{
  "transactions": [
    {
      "hash": "0x5b6a6042065e62694472c81ca12e38843bd9e85d505b43f567e4f053afdfab12",
      "transactionType": "CREATE",
      "contractName": "Vote",
      "contractAddress": "0x1202ce1492afedb32a7d82e98f6ab034fadc682d",
      "function": null,
      "arguments": null,
      "transaction": {
        "from": "0xf39fd6e51aad88f6f4ce6ab8827279cfffb92266",
        "gas": "0x83255",
        "value": "0x0",
        "input": "0x6080604052348015600f57600080fd5b506106858061001f6000396000f3fe608060405234801561001057600080fd5b50600436106100365760003560e01c8063c5b364411461003b578063e69b9edc14610062575b600080fd5b61004e6100493660046105df565b610075565b604051901515815260200160405180910390f35b61004e6100703660046105df565b61032f565b60007f2909c0a05d58f8b7f14a4ef9b6dfbc139611bb545981c04988c895be90f3500081805b82600101548110156100db57600081815260208490526040902060010154336001600160a01b03909116036100d357600191506100db565b60010161009b565b50806100fa57604051635c9ee2ab60e11b815260040160405180910390fd5b60008581527f9a70c69f78b954ec2ace8c62308c5ea2ed35f782ee583f10b56d88886fa9930060205260409020805461017a5760405162461bcd60e51b815260206004820152601d60248201527f4e6f206865616465727320666f7220746869732070726f706f73616c2e00000060448201526064015b60405180910390fd5b8054853590829060009061019057610190610612565b906000526020600020906004020160000154036101ee576003818660005b6020020135815481106101c3576101c3610612565b906000526020600020906004020160010160008282546101e39190610628565b909155506103269050565b80548535908290600190811061020657610206610612565b906000526020600020906004020160000154036102665780546003908290873590811061023557610235610612565b906000526020600020906004020160010160008282546102559190610628565b9091555060029050818660016101ae565b80546003908290873590811061027e5761027e610612565b9060005260206000209060040201600101600082825461029e9190610628565b9091555060029050818660016020020135815481106102bf576102bf610612565b906000526020600020906004020160010160008282546102df9190610628565b90915550600190508186600260200201358154811061030057610300610612565b906000526020600020906004020160010160008282546103209190610628565b90915550505b50505092915050565b60007f2909c0a05d58f8b7f14a4ef9b6dfbc139611bb545981c04988c895be90f3500081805b826001015481101561039557600081815260208490526040902060010154336001600160a01b039091160361038d5760019150610395565b600101610355565b50806103b457604051635c9ee2ab60e11b815260040160405180910390fd5b60008581527f9a70c69f78b954ec2ace8c62308c5ea2ed35f782ee583f10b56d88886fa993006020526040902060018101546104325760405162461bcd60e51b815260206004820152601a60248201527f4e6f20636d647320666f7220746869732070726f706f73616c2e0000000000006044820152606401610171565b6001810180548635919060009061044b5761044b610612565b906000526020600020906003020160000154036104a1576003600182018660005b60200201358154811061048157610481610612565b906000526020600020906003020160020160008282546101e39190610628565b600180820180548735929081106104ba576104ba610612565b90600052602060002090600302016000015403610521576001810180546003919087359081106104ec576104ec610612565b9060005260206000209060030201600201600082825461050c9190610628565b9091555060029050600180830190879061046c565b60018101805460039190873590811061053c5761053c610612565b9060005260206000209060030201600201600082825461055c9190610628565b909155505060018101805460029190602088013590811061057f5761057f610612565b9060005260206000209060030201600201600082825461059f9190610628565b90915550506001818101805460408801359081106105bf576105bf610612565b906000526020600020906003020160020160008282546103209190610628565b600080608083850312156105f257600080fd5b823591508360808401111561060657600080fd5b50926020919091019150565b634e487b7160e01b600052603260045260246000fd5b8082018082111561064957634e487b7160e01b600052601160045260246000fd5b9291505056fea2646970667358221220cbd298f23fbbc270b243234e8bdb3f5d19f807e73619324a968b9c0a57c6eede64736f6c63430008190033",
        "nonce": "0x20fb",
        "chainId": "0xaa36a7"
      },
      "additionalContracts": [],
      "isFixedGasLimit": false
    },
    {
      "hash": "0x1561f87faa2ba205f782e7a470a9390acf61b1a1e7d4d73313270af790335ae0",
      "transactionType": "CREATE",
      "contractName": "Clone",
      "contractAddress": "0x805428d905123dc1df3de6700f683611b2de1341",
      "function": null,
      "arguments": null,
      "transaction": {
        "from": "0xf39fd6e51aad88f6f4ce6ab8827279cfffb92266",
        "gas": "0xa2a9a",
        "value": "0x0",
        "input": "0x6080604052348015600f57600080fd5b506108508061001f6000396000f3fe608060405234801561001057600080fd5b506004361061002b5760003560e01c80638ca89f7714610030575b600080fd5b61004361003e366004610169565b61005f565b6040516001600160a01b03909116815260200160405180910390f35b60006100d16100957f267691be3525af8a813d30db0c9e2bad08f63baecf6dceb85e2cf3676cff56f4546001600160a01b031690565b84848080601f0160208091040260200160405190810160405280939291908181526020018383808284376000920191909152506100d892505050565b9392505050565b600082826040516100e89061015c565b6100f39291906101db565b604051809103906000f08015801561010f573d6000803e3d6000fd5b50604080516001600160a01b038087168252831660208201529192507f9678a1e87ca9f1a37dc659a97b39d812d98cd236947e1b53b3d0d6fd346acb6e910160405180910390a192915050565b6105e08061023b83390190565b6000806020838503121561017c57600080fd5b823567ffffffffffffffff8082111561019457600080fd5b818501915085601f8301126101a857600080fd5b8135818111156101b757600080fd5b8660208285010111156101c957600080fd5b60209290920196919550909350505050565b60018060a01b03831681526000602060406020840152835180604085015260005b81811015610218578581018301518582016060015282016101fc565b506000606082860101526060601f19601f83011685010192505050939250505056fe60806040526040516105e03803806105e08339810160408190526100229161034b565b61002c828261003c565b6100358261011c565b5050610479565b61004582610160565b6040516001600160a01b03831681527fa657f2ad315cf3bb35cf1964158da75c3f334481df05a4a1644b2376b17a59b29060200160405180910390a18051156101105761010b6001600160a01b03831663dc9cc6456100a38461040b565b6040516001600160e01b031960e084901b81168252919091166004820152602401602060405180830381865afa1580156100e1573d6000803e3d6000fd5b505050506040513d601f19601f820116820180604052508101906101059190610442565b826101d5565b505050565b61011861024c565b5050565b807fa3f0ad74e5423aebfd80d3ef4346578335a9a72aeaee59ff6cb3582b35133d505b80546001600160a01b0319166001600160a01b039290921691909117905550565b806001600160a01b03163b6000036101ae5760405162461bcd60e51b815260206004820152600c60248201526b1393d397d0d3d395149050d560a21b60448201526064015b60405180910390fd5b807f267691be3525af8a813d30db0c9e2bad08f63baecf6dceb85e2cf3676cff56f461013f565b6060600080846001600160a01b0316846040516101f2919061045d565b600060405180830381855af49150503d806000811461022d576040519150601f19603f3d011682016040523d82523d6000602084013e610232565b606091505b50909250905061024385838361026d565b95945050505050565b341561026b5760405163b398979f60e01b815260040160405180910390fd5b565b6060826102825761027d826102cc565b6102c5565b815115801561029957506001600160a01b0384163b155b156102c257604051639996b31560e01b81526001600160a01b03851660048201526024016101a5565b50805b9392505050565b8051156102dc5780518082602001fd5b604051630a12f52160e11b815260040160405180910390fd5b80516001600160a01b038116811461030c57600080fd5b919050565b634e487b7160e01b600052604160045260246000fd5b60005b8381101561034257818101518382015260200161032a565b50506000910152565b6000806040838503121561035e57600080fd5b610367836102f5565b60208401519092506001600160401b038082111561038457600080fd5b818501915085601f83011261039857600080fd5b8151818111156103aa576103aa610311565b604051601f8201601f19908116603f011681019083821181831017156103d2576103d2610311565b816040528281528860208487010111156103eb57600080fd5b6103fc836020830160208801610327565b80955050505050509250929050565b805160208201516001600160e01b0319808216929190600483101561043a5780818460040360031b1b83161693505b505050919050565b60006020828403121561045457600080fd5b6102c5826102f5565b6000825161046f818460208701610327565b9190910192915050565b610158806104886000396000f3fe608060405261000c61000e565b005b61001e610019610020565b6100ce565b565b60006100537f267691be3525af8a813d30db0c9e2bad08f63baecf6dceb85e2cf3676cff56f4546001600160a01b031690565b60405163dc9cc64560e01b81526001600160e01b03196000351660048201526001600160a01b03919091169063dc9cc64590602401602060405180830381865afa1580156100a5573d6000803e3d6000fd5b505050506040513d601f19601f820116820180604052508101906100c991906100f2565b905090565b3660008037600080366000845af43d6000803e8080156100ed573d6000f35b3d6000fd5b60006020828403121561010457600080fd5b81516001600160a01b038116811461011b57600080fd5b939250505056fea26469706673582212208809a6c555e27c2ae43ead3718098f2c2814da97cba040aac468c4b698d63ee164736f6c63430008190033a2646970667358221220507ca9aa4fe31e366476229d1aa4b6d0c563e08a52c9d464849adb76d1190c6e64736f6c63430008190033",
        "nonce": "0x20fc",
        "chainId": "0xaa36a7"
      },
      "additionalContracts": [],
      "isFixedGasLimit": false
    },
    {
      "hash": "0xc8bb3e0c255e6ae20ed5d4fdf6893842ab4e164ac6cc17b3d96129ca6c3ef358",
      "transactionType": "CREATE",
      "contractName": "Initialize",
      "contractAddress": "0xea9cb5f8569686fb7567c34b27015b0bdcf60e9e",
      "function": null,
      "arguments": null,
      "transaction": {
        "from": "0xf39fd6e51aad88f6f4ce6ab8827279cfffb92266",
        "gas": "0x50cbf",
        "value": "0x0",
        "input": "0x6080604052348015600f57600080fd5b506103a48061001f6000396000f3fe608060405234801561001057600080fd5b506004361061002b5760003560e01c8063dc1ec0e514610030575b600080fd5b61004361003e36600461026f565b610057565b604051901515815260200160405180910390f35b7f2909c0a05d58f8b7f14a4ef9b6dfbc139611bb545981c04988c895be90f35001546000907f2909c0a05d58f8b7f14a4ef9b6dfbc139611bb545981c04988c895be90f3500090156100ef5760405162461bcd60e51b815260206004820152601f60248201527f496e697469616c697a653a20616c726561647920696e697469616c697a656400604482015260640160405180910390fd5b82357f9a70c69f78b954ec2ace8c62308c5ea2ed35f782ee583f10b56d88886fa9930290815560208401357f9a70c69f78b954ec2ace8c62308c5ea2ed35f782ee583f10b56d88886fa993035560408401357f9a70c69f78b954ec2ace8c62308c5ea2ed35f782ee583f10b56d88886fa993045560608401357f9a70c69f78b954ec2ace8c62308c5ea2ed35f782ee583f10b56d88886fa99305557f2909c0a05d58f8b7f14a4ef9b6dfbc139611bb545981c04988c895be90f35001547f2909c0a05d58f8b7f14a4ef9b6dfbc139611bb545981c04988c895be90f35000919060005b8781101561025e5760008281526020859052604090208290558888828181106101fd576101fd610301565b90506020020160208101906102129190610317565b60008381526020869052604081206001810180546001600160a01b0319166001600160a01b0394909416939093179092556002909101558161025381610347565b9250506001016101d2565b506001928301555095945050505050565b600080600083850360a081121561028557600080fd5b843567ffffffffffffffff8082111561029d57600080fd5b818701915087601f8301126102b157600080fd5b8135818111156102c057600080fd5b8860208260051b85010111156102d557600080fd5b6020929092019550909350506080601f19820112156102f357600080fd5b506020840190509250925092565b634e487b7160e01b600052603260045260246000fd5b60006020828403121561032957600080fd5b81356001600160a01b038116811461034057600080fd5b9392505050565b60006001820161036757634e487b7160e01b600052601160045260246000fd5b506001019056fea26469706673582212209528df85c4b4be76ccbc32e7b7e62cea8ee8f24c0d492c71bc7f7e8da92d502764736f6c63430008190033",
        "nonce": "0x20fd",
        "chainId": "0xaa36a7"
      },
      "additionalContracts": [],
      "isFixedGasLimit": false
    },
    {
      "hash": "0x638cfe671a08924c79ebf301904a68901ea7536c095c205fa1d8e95cf6ded581",
      "transactionType": "CREATE",
      "contractName": "Propose",
      "contractAddress": "0xae74d448a9f3f587cd4addf75b1b457a6efebd1f",
      "function": null,
      "arguments": null,
      "transaction": {
        "from": "0xf39fd6e51aad88f6f4ce6ab8827279cfffb92266",
        "gas": "0x10a4a6",
        "value": "0x0",
        "input": "0x6080604052348015600f57600080fd5b50610e388061001f6000396000f3fe608060405234801561001057600080fd5b506004361061002b5760003560e01c80639f46786e14610030575b600080fd5b61004361003e366004610808565b610055565b60405190815260200160405180910390f35b60007f2909c0a05d58f8b7f14a4ef9b6dfbc139611bb545981c04988c895be90f3500081805b82600101548110156100bb57600081815260208490526040902060010154336001600160a01b03909116036100b357600191506100bb565b60010161007b565b50806100da57604051635c9ee2ab60e11b815260040160405180910390fd5b7f9a70c69f78b954ec2ace8c62308c5ea2ed35f782ee583f10b56d88886fa993015460008181527f9a70c69f78b954ec2ace8c62308c5ea2ed35f782ee583f10b56d88886fa99300602081905260409091207f2909c0a05d58f8b7f14a4ef9b6dfbc139611bb545981c04988c895be90f35001547f9a70c69f78b954ec2ace8c62308c5ea2ed35f782ee583f10b56d88886fa9930454939650919290917fe4fa6871814422bfe1d10a118a3483c970f3cc6a461f81c9d5701005cfdaf400917f2909c0a05d58f8b7f14a4ef9b6dfbc139611bb545981c04988c895be90f350009111156106e257600282015467ffffffffffffffff1661026d5760405162461bcd60e51b815260206004820152605860248201527f4e6f20436861696e6c696e6b2056524620737562736372697074696f6e2e205460448201527f727920536574436f6e6669677350726f7465637465643a3a637265617465416e60648201527f6446756e64537562736372697074696f6e2066697273742e0000000000000000608482015260a4015b60405180910390fd5b60038201546001600160a01b03166102ff5760405162461bcd60e51b815260206004820152604960248201527f4e6f20436861696e6c696e6b2056524620767266436f6f7264696e61746f722e60448201527f205472792053657456524650726f7465637465643a3a736574565246436f6e6660648201526834b3903334b939ba1760b91b608482015260a401610264565b60048201546000036103885760405162461bcd60e51b815260206004820152604660248201527f4e6f20436861696e6c696e6b20565246206b6579486173682e2054727920536560448201527f74436f6e6669677350726f7465637465643a3a736574565246436f6e666967206064820152653334b939ba1760d11b608482015260a401610264565b600582015463ffffffff166000036104205760405162461bcd60e51b815260206004820152604f60248201527f4e6f20436861696e6c696e6b205652462063616c6c6261636b4761734c696d6960448201527f742e2054727920536574436f6e6669677350726f7465637465643a3a7365745660648201526e292321b7b73334b3903334b939ba1760891b608482015260a401610264565b6005820154640100000000900461ffff166000036104c25760405162461bcd60e51b815260206004820152605360248201527f4e6f20436861696e6c696e6b205652462072657175657374436f6e6669726d6160448201527f74696f6e732e2054727920536574436f6e6669677350726f7465637465643a3a60648201527239b2ba2b292321b7b73334b3903334b939ba1760691b608482015260a401610264565b60058201546601000000000000900463ffffffff1660000361055c5760405162461bcd60e51b815260206004820152604760248201527f4e6f20436861696e6c696e6b20565246206e756d576f7264732e20547279205360448201527f6574436f6e6669677350726f7465637465643a3a736574565246436f6e666967606482015266103334b939ba1760c91b608482015260a401610264565b6005820154600160501b90046001600160a01b03166105e35760405162461bcd60e51b815260206004820152603f60248201527f4e6f20436861696e6c696e6b20565246204c494e4b544f4b454e2e205472792060448201527f536574436f6e666967733a3a736574565246436f6e6669672066697273742e006064820152608401610264565b6003820154600480840154600285015460058601546040516305d3b1d360e41b81529384019290925267ffffffffffffffff166024830152640100000000810461ffff16604483015263ffffffff808216606484015266010000000000009091041660848201526000916001600160a01b031690635d3b1d309060a4016020604051808303816000875af115801561067f573d6000803e3d6000fd5b505050506040513d601f19601f820116820180604052508101906106a3919061084a565b600180850180546000908152602087905260408082208590558254825281209092018b90558054929350906106d783610879565b919050555050610740565b60005b816001015481101561073e57600081815260208381526040822060019081015460088801805480840182559085529290932090910180546001600160a01b0319166001600160a01b0390931692909217909155016106e5565b505b600061074c8980610892565b506020111561078557826107608980610892565b8154600181018355600092835260209092209091600402016107828282610932565b50505b600061079460208a018a6109df565b6107a29060208101906108b2565b905011156107e057600183016107bb60208a018a6109df565b8154600181018355600092835260209092209091600302016107dd8282610cc4565b50505b42600a8401556001840180549060006107f883610879565b9190505550505050505050919050565b60006020828403121561081a57600080fd5b813567ffffffffffffffff81111561083157600080fd5b82016060818503121561084357600080fd5b9392505050565b60006020828403121561085c57600080fd5b5051919050565b634e487b7160e01b600052601160045260246000fd5b60006001820161088b5761088b610863565b5060010190565b60008235607e198336030181126108a857600080fd5b9190910192915050565b6000808335601e198436030181126108c957600080fd5b83018035915067ffffffffffffffff8211156108e457600080fd5b6020019150600581901b36038213156108fc57600080fd5b9250929050565b634e487b7160e01b600052604160045260246000fd5b5b8181101561092e576000815560010161091a565b5050565b8135815560016020808401356001840155604084013560028401556003830161095e60608601866108b2565b67ffffffffffffffff81111561097657610976610903565b600160401b81111561098a5761098a610903565b8254818455808210156109b0578360005260206000206109ae828201848301610919565b505b50600092835260208320925b818110156109d5578235848201559184019185016109bc565b5050505050505050565b60008235605e198336030181126108a857600080fd5b60008235603e198336030181126108a857600080fd5b600181811c90821680610a1f57607f821691505b602082108103610a3f57634e487b7160e01b600052602260045260246000fd5b50919050565b610a4f8154610a0b565b801561092e57601f811160018114610a6957505060009055565b826000526020600020610a87601f840160051c820160018301610919565b600080855590555b505050565b6000808335601e19843603018112610aab57600080fd5b83018035915067ffffffffffffffff821115610ac657600080fd5b6020019150368190038213156108fc57600080fd5b601f821115610a8f57806000526020600020601f840160051c81016020851015610b025750805b610b14601f850160051c830182610919565b5050505050565b67ffffffffffffffff831115610b3357610b33610903565b610b4783610b418354610a0b565b83610adb565b6000601f841160018114610b7b5760008515610b635750838201355b600019600387901b1c1916600186901b178355610b14565b600083815260209020601f19861690835b82811015610bac5786850135825560209485019460019092019101610b8c565b5086821015610bc95760001960f88860031b161c19848701351681555b505060018560011b0183555050505050565b610be58283610a94565b67ffffffffffffffff811115610bfd57610bfd610903565b610c1181610c0b8554610a0b565b85610adb565b6000601f821160018114610c455760008315610c2d5750838201355b600019600385901b1c1916600184901b178555610c9f565b600085815260209020601f19841690835b82811015610c765786850135825560209485019460019092019101610c56565b5084821015610c935760001960f88660031b161c19848701351681555b505060018360011b0185555b50505050610cb06020830183610a94565b610cbe818360018601610b1b565b50505050565b8135815560018082016020610cdc60208601866108b2565b600160401b811115610cf057610cf0610903565b835481855580821015610db2576001600160ff1b038181168214610d1657610d16610863565b8083168314610d2757610d27610863565b5060008581526020812083881b81019083891b015b80821015610dae57610d4e8254610a0b565b8015610d9757601f80821160018114610d6957858555610d94565b600085815260209020610d8583850160051c82018e8301610919565b50600085815260208120818755555b50505b50610da3898301610a45565b600282019150610d3c565b5050505b506000938452602084209382905b82811015610ded57610ddb610dd583866109f5565b87610bdb565b60029590950194908401908601610dc0565b5050505050505060408201356002820155505056fea2646970667358221220ec226fb9c0fdf23a1e8929eb0ff06d241ae83a887a3af192723155d05c27e18864736f6c63430008190033",
        "nonce": "0x20fe",
        "chainId": "0xaa36a7"
      },
      "additionalContracts": [],
      "isFixedGasLimit": false
    },
    {
      "hash": "0x487259ee9cb5debfeea8c5e345c42e4bcb637e5c52c1f99b9e5c0d1bf10fa7b7",
      "transactionType": "CREATE",
      "contractName": "Fork",
      "contractAddress": "0x1d3278105350102d64fade46dfa4ac183dac2967",
      "function": null,
      "arguments": null,
      "transaction": {
        "from": "0xf39fd6e51aad88f6f4ce6ab8827279cfffb92266",
        "gas": "0x9f133",
        "value": "0x0",
        "input": "0x6080604052348015600f57600080fd5b5061081b8061001f6000396000f3fe608060405234801561001057600080fd5b506004361061002b5760003560e01c8063603d9eb714610030575b600080fd5b61004361003e3660046101fb565b610055565b60405190815260200160405180910390f35b60008281527f9a70c69f78b954ec2ace8c62308c5ea2ed35f782ee583f10b56d88886fa9930060208190526040822084919083805b60088301548110156100d757600883018054339190839081106100af576100af610249565b6000918252602090912001546001600160a01b031614806100cd5750815b915060010161008a565b50806101205760405162461bcd60e51b81526020600482015260146024820152732cb7ba9030b932903737ba103a3432903932b81760611b604482015260640160405180910390fd5b60008781527f9a70c69f78b954ec2ace8c62308c5ea2ed35f782ee583f10b56d88886fa99300602081905260408220909161015b898061025f565b5060201115610194578061016f898061025f565b815460018101835560009283526020909220909160040201610191828261032f565b50505b60006101a360208a018a6103dc565b6101b190602081019061027f565b905011156101ef57600181016101ca60208a018a6103dc565b8154600181018355600092835260209092209091600302016101ec82826106c1565b50505b50505050505092915050565b6000806040838503121561020e57600080fd5b82359150602083013567ffffffffffffffff81111561022c57600080fd5b83016060818603121561023e57600080fd5b809150509250929050565b634e487b7160e01b600052603260045260246000fd5b60008235607e1983360301811261027557600080fd5b9190910192915050565b6000808335601e1984360301811261029657600080fd5b83018035915067ffffffffffffffff8211156102b157600080fd5b6020019150600581901b36038213156102c957600080fd5b9250929050565b634e487b7160e01b600052604160045260246000fd5b600181901b6001600160ff1b038216821461031157634e487b7160e01b600052601160045260246000fd5b919050565b5b8181101561032b5760008155600101610317565b5050565b8135815560016020808401356001840155604084013560028401556003830161035b606086018661027f565b67ffffffffffffffff811115610373576103736102d0565b600160401b811115610387576103876102d0565b8254818455808210156103ad578360005260206000206103ab828201848301610316565b505b50600092835260208320925b818110156103d2578235848201559184019185016103b9565b5050505050505050565b60008235605e1983360301811261027557600080fd5b60008235603e1983360301811261027557600080fd5b600181811c9082168061041c57607f821691505b60208210810361043c57634e487b7160e01b600052602260045260246000fd5b50919050565b61044c8154610408565b801561032b57601f81116001811461046657505060009055565b826000526020600020610484601f840160051c820160018301610316565b600080855590555b505050565b6000808335601e198436030181126104a857600080fd5b83018035915067ffffffffffffffff8211156104c357600080fd5b6020019150368190038213156102c957600080fd5b601f82111561048c57806000526020600020601f840160051c810160208510156104ff5750805b610511601f850160051c830182610316565b5050505050565b67ffffffffffffffff831115610530576105306102d0565b6105448361053e8354610408565b836104d8565b6000601f84116001811461057857600085156105605750838201355b600019600387901b1c1916600186901b178355610511565b600083815260209020601f19861690835b828110156105a95786850135825560209485019460019092019101610589565b50868210156105c65760001960f88860031b161c19848701351681555b505060018560011b0183555050505050565b6105e28283610491565b67ffffffffffffffff8111156105fa576105fa6102d0565b61060e816106088554610408565b856104d8565b6000601f821160018114610642576000831561062a5750838201355b600019600385901b1c1916600184901b17855561069c565b600085815260209020601f19841690835b828110156106735786850135825560209485019460019092019101610653565b50848210156106905760001960f88660031b161c19848701351681555b505060018360011b0185555b505050506106ad6020830183610491565b6106bb818360018601610518565b50505050565b81358155600180820160206106d9602086018661027f565b600160401b8111156106ed576106ed6102d0565b83548185558082101561079557610703816102e6565b61070c836102e6565b6000878152602081209283019291909101905b82821015610791576107318254610408565b801561077a57601f8082116001811461074c57838555610777565b60008581526020902061076883850160051c82018e8301610316565b50600085815260208120818755555b50505b50610786898301610442565b60028201915061071f565b5050505b506000938452602084209382905b828110156107d0576107be6107b883866103f2565b876105d8565b600295909501949084019086016107a3565b5050505050505060408201356002820155505056fea26469706673582212200aecfeaab260c46fe3f9df0be878212a55fc87f1d4fe4e38e505fce098d5222e64736f6c63430008190033",
        "nonce": "0x20ff",
        "chainId": "0xaa36a7"
      },
      "additionalContracts": [],
      "isFixedGasLimit": false
    },
    {
      "hash": "0xeec4c64e7519e359323681b321f9930731806b8dd44f149442817a35b1595027",
      "transactionType": "CREATE",
      "contractName": "Tally",
      "contractAddress": "0x9878c977ff386f2fd8bf182cc62e87657631b4c9",
      "function": null,
      "arguments": null,
      "transaction": {
        "from": "0xf39fd6e51aad88f6f4ce6ab8827279cfffb92266",
        "gas": "0x1cedea",
        "value": "0x0",
        "input": "0x6080604052348015600f57600080fd5b5061196c8061001f6000396000f3fe608060405234801561001057600080fd5b506004361061002b5760003560e01c8063ed8b6b3114610030575b600080fd5b61004361003e366004611748565b610057565b604051901515815260200160405180910390f35b60008181527f9a70c69f78b954ec2ace8c62308c5ea2ed35f782ee583f10b56d88886fa993006020819052604082207f9a70c69f78b954ec2ace8c62308c5ea2ed35f782ee583f10b56d88886fa9930354849291906100fd5760405162461bcd60e51b815260206004820152601d60248201527f5365742074616c6c7920696e74657276616c20617420636f6e6669672e00000060448201526064015b60405180910390fd5b600382015460028201906000906101149042611777565b815260208101919091526040016000205460ff161561017f5760405162461bcd60e51b815260206004820152602160248201527f5468697320696e74657276616c20697320616c72656164792074616c6c6965646044820152601760f91b60648201526084016100f4565b60008581527f9a70c69f78b954ec2ace8c62308c5ea2ed35f782ee583f10b56d88886fa993006020819052604090912080600181017f147a311fe1db87247fe76cc1e6db3134e5d52a59e0824f018dad572e05b140006101dd611607565b6002860154600a86015442916101f291611799565b116102775760405162461bcd60e51b815260206004820152604960248201527f546869732070726f706f73616c20686173206265656e20657870697265642e2060448201527f596f752063616e6e6f742072756e206e65772074616c6c7920746f20757064616064820152683a32903930b735b99760b91b608482015260a4016100f4565b835467ffffffffffffffff811115610291576102916117ac565b6040519080825280602002602001820160405280156102ba578160200160208202803683370190505b50815283546040805160208084028201810190925282815261039792909187919060009084015b8282101561038957838290600052602060002090600402016040518060800160405290816000820154815260200160018201548152602001600282015481526020016003820180548060200260200160405190810160405280929190818152602001828054801561037157602002820191906000526020600020905b81548152602001906001019080831161035d575b505050505081525050815260200190600101906102e1565b505050506006870154611209565b8152825467ffffffffffffffff8111156103b3576103b36117ac565b6040519080825280602002602001820160405280156103dc578160200160208202803683370190505b5081602001819052506105e083805480602002602001604051908101604052809291908181526020016000905b828210156105d257838290600052602060002090600302016040518060600160405290816000820154815260200160018201805480602002602001604051908101604052809291908181526020016000905b828210156105b1578382906000526020600020906002020160405180604001604052908160008201805461048e906117c2565b80601f01602080910402602001604051908101604052809291908181526020018280546104ba906117c2565b80156105075780601f106104dc57610100808354040283529160200191610507565b820191906000526020600020905b8154815290600101906020018083116104ea57829003601f168201915b50505050508152602001600182018054610520906117c2565b80601f016020809104026020016040519081016040528092919081815260200182805461054c906117c2565b80156105995780601f1061056e57610100808354040283529160200191610599565b820191906000526020600020905b81548152906001019060200180831161057c57829003601f168201915b5050505050815250508152602001906001019061045b565b50505050815260200160028201548152505081526020019060010190610409565b505050506007870154611425565b602082015280518051600091869183906105fc576105fc6117fc565b602002602001015181548110610614576106146117fc565b90600052602060002090600402016001015490506000876002016003015482101590506000858460200151600081518110610651576106516117fc565b602002602001015181548110610669576106696117fc565b90600052602060002090600302019050600081600201549050816001018054905067ffffffffffffffff8111156106a2576106a26117ac565b6040519080825280602002602001820160405280156106cb578160200160208202803683370190505b50604086015260005b60018301548110156108755760008360010182815481106106f7576106f76117fc565b9060005260206000209060020201905060008860000160006107aa846000018054610721906117c2565b80601f016020809104026020016040519081016040528092919081815260200182805461074d906117c2565b801561079a5780601f1061076f5761010080835404028352916020019161079a565b820191906000526020600020905b81548152906001019060200180831161077d57829003601f168201915b5050505050805160209091012090565b6001600160e01b0319168152602081019190915260400160002054905080156107fc5780841015886040015184815181106107e7576107e76117fc565b9115156020928302919091019091015261082e565b8c600201600301548410158860400151848151811061081d5761081d6117fc565b911515602092830291909101909101525b87604001518381518110610844576108446117fc565b60200260200101511561085d576001606089015261086b565b505060006060870152610875565b50506001016106d4565b5060048901546000036108b657604080516003808252608082019092529060208201606080368337505081516108b49260048d0192506020019061165a565b505b821561098857845180516000906108cf576108cf6117fc565b6020026020010151896003016001016000815481106108f0576108f06117fc565b600091825260209091200155845180516001908110610911576109116117fc565b602002602001015189600301600101600181548110610932576109326117fc565b600091825260209091200155845180516002908110610953576109536117fc565b602002602001015189600301600101600281548110610974576109746117fc565b600091825260209091200155875460068a01555b60058901546000036109c857604080516003808252608082019092529060208201606080368337505081516109c69260058d0192506020019061165a565b505b846060015115610aaa5784602001516000815181106109e9576109e96117fc565b602002602001015189600301600201600081548110610a0a57610a0a6117fc565b90600052602060002001819055508460200151600181518110610a2f57610a2f6117fc565b602002602001015189600301600201600181548110610a5057610a506117fc565b90600052602060002001819055508460200151600281518110610a7557610a756117fc565b602002602001015189600301600201600281548110610a9657610a966117fc565b600091825260209091200155865460078a01555b60005b6003811015610dd25760048a01805482908110610acc57610acc6117fc565b60009182526020909120015460c087015260058a01805482908110610af357610af36117fc565b60009182526020909120015460e0870152895460c08701511015610bd557896000018660c0015181548110610b2a57610b2a6117fc565b906000526020600020906004020160405180608001604052908160008201548152602001600182015481526020016002820154815260200160038201805480602002602001604051908101604052809291908181526020018280548015610bb057602002820191906000526020600020905b815481526020019060010190808311610b9c575b50505050508152505086608001518260038110610bcf57610bcf6117fc565b60200201525b60018a015460e08701511015610dca57896001018660e0015181548110610bfe57610bfe6117fc565b90600052602060002090600302016040518060600160405290816000820154815260200160018201805480602002602001604051908101604052809291908181526020016000905b82821015610d9c5783829060005260206000209060020201604051806040016040529081600082018054610c79906117c2565b80601f0160208091040260200160405190810160405280929190818152602001828054610ca5906117c2565b8015610cf25780601f10610cc757610100808354040283529160200191610cf2565b820191906000526020600020905b815481529060010190602001808311610cd557829003601f168201915b50505050508152602001600182018054610d0b906117c2565b80601f0160208091040260200160405190810160405280929190818152602001828054610d37906117c2565b8015610d845780601f10610d5957610100808354040283529160200191610d84565b820191906000526020600020905b815481529060010190602001808311610d6757829003601f168201915b50505050508152505081526020019060010190610c46565b5050505081526020016002820154815250508660a001518260038110610dc457610dc46117fc565b60200201525b600101610aad565b5060005b600381101561116a5785608001518160038110610df557610df56117fc565b60200201515160c08701518b548c91908110610e1357610e136117fc565b600091825260209091206004909102015560808601518160038110610e3a57610e3a6117fc565b6020020151602001518a6000018760c0015181548110610e5c57610e5c6117fc565b90600052602060002090600402016001018190555085608001518160038110610e8757610e876117fc565b6020020151604001518a6000018760c0015181548110610ea957610ea96117fc565b90600052602060002090600402016002018190555060005b86608001518260038110610ed757610ed76117fc565b60200201516060015151811015610f6f5786608001518260038110610efe57610efe6117fc565b6020020151606001518181518110610f1857610f186117fc565b60200260200101518b6000018860c0015181548110610f3957610f396117fc565b90600052602060002090600402016003018281548110610f5b57610f5b6117fc565b600091825260209091200155600101610ec1565b508560a001518160038110610f8657610f866117fc565b6020020151600001518a6001018760e0015181548110610fa857610fa86117fc565b600091825260208220600390910201919091555b8660a001518260038110610fd257610fd26117fc565b60200201516020015151811015611115578660a001518260038110610ff957610ff96117fc565b6020020151602001518181518110611013576110136117fc565b6020026020010151600001518b6001018860e0015181548110611038576110386117fc565b9060005260206000209060030201600101828154811061105a5761105a6117fc565b906000526020600020906002020160000190816110779190611863565b508660a00151826003811061108e5761108e6117fc565b60200201516020015181815181106110a8576110a86117fc565b6020026020010151602001518b6001018860e00151815481106110cd576110cd6117fc565b906000526020600020906003020160010182815481106110ef576110ef6117fc565b9060005260206000209060020201600101908161110c9190611863565b50600101610fbc565b508560a00151816003811061112c5761112c6117fc565b6020020151604001518a6001018760e001518154811061114e5761114e6117fc565b6000918252602090912060026003909202010155600101610dd6565b5060038a01546111bc5760405162461bcd60e51b815260206004820152601d60248201527f5365742074616c6c7920696e74657276616c20617420636f6e6669672e00000060448201526064016100f4565b60018960020160008c60020160010154426111d79190611777565b81526020810191909152604001600020805460ff1916911515919091179055509b9d9c50505050505050505050505050565b815160609080831061124a5760005b604051908082528060200260200182016040528015611241578160200160208202803683370190505b5091505061141f565b60006112568483611923565b905060008167ffffffffffffffff811115611273576112736117ac565b60405190808252806020026020018201604052801561129c578160200160208202803683370190505b50905060005b828110156112d9576112b48682611799565b8282815181106112c6576112c66117fc565b60209081029190910101526001016112a2565b5060005b828110156114195760005b60016112f48386611923565b6112fe9190611923565b811015611410578783611312836001611799565b81518110611322576113226117fc565b60200260200101518151811061133a5761133a6117fc565b60200260200101516020015188848381518110611359576113596117fc565b602002602001015181518110611371576113716117fc565b6020026020010151602001511015611408578261138f826001611799565b8151811061139f5761139f6117fc565b60200260200101518382815181106113b9576113b96117fc565b60200260200101518483815181106113d3576113d36117fc565b60200260200101858460016113e89190611799565b815181106113f8576113f86117fc565b6020908102919091010191909152525b6001016112e8565b506001016112dd565b50925050505b92915050565b8151606090808310611438576000611218565b60006114448483611923565b905060008167ffffffffffffffff811115611461576114616117ac565b60405190808252806020026020018201604052801561148a578160200160208202803683370190505b50905060005b828110156114c7576114a28682611799565b8282815181106114b4576114b46117fc565b6020908102919091010152600101611490565b5060005b828110156114195760005b60016114e28386611923565b6114ec9190611923565b8110156115fe578783611500836001611799565b81518110611510576115106117fc565b602002602001015181518110611528576115286117fc565b60200260200101516040015188848381518110611547576115476117fc565b60200260200101518151811061155f5761155f6117fc565b60200260200101516040015110156115f6578261157d826001611799565b8151811061158d5761158d6117fc565b60200260200101518382815181106115a7576115a76117fc565b60200260200101518483815181106115c1576115c16117fc565b60200260200101858460016115d69190611799565b815181106115e6576115e66117fc565b6020908102919091010191909152525b6001016114d6565b506001016114cb565b6040518061010001604052806060815260200160608152602001606081526020016000151581526020016116396116a5565b81526020016116466116ea565b815260200160008152602001600081525090565b828054828255906000526020600020908101928215611695579160200282015b8281111561169557825182559160200191906001019061167a565b506116a1929150611733565b5090565b60405180606001604052806003905b60408051608081018252600080825260208083018290529282015260608082015282526000199092019101816116b45790505090565b60405180606001604052806003905b61171d60405180606001604052806000815260200160608152602001600081525090565b8152602001906001900390816116f95790505090565b5b808211156116a15760008155600101611734565b60006020828403121561175a57600080fd5b5035919050565b634e487b7160e01b600052601160045260246000fd5b60008261179457634e487b7160e01b600052601260045260246000fd5b500490565b8082018082111561141f5761141f611761565b634e487b7160e01b600052604160045260246000fd5b600181811c908216806117d657607f821691505b6020821081036117f657634e487b7160e01b600052602260045260246000fd5b50919050565b634e487b7160e01b600052603260045260246000fd5b601f82111561185e576000816000526020600020601f850160051c8101602086101561183b5750805b601f850160051c820191505b8181101561185a57828155600101611847565b5050505b505050565b815167ffffffffffffffff81111561187d5761187d6117ac565b6118918161188b84546117c2565b84611812565b602080601f8311600181146118c657600084156118ae5750858301515b600019600386901b1c1916600185901b17855561185a565b600085815260208120601f198616915b828110156118f5578886015182559484019460019091019084016118d6565b50858210156119135787850151600019600388901b60f8161c191681555b5050505050600190811b01905550565b8181038181111561141f5761141f61176156fea2646970667358221220f4c6dc19e2421329a8693a0fd894ac531d321fcacb14a4d5bbc5fa3dbc451dc164736f6c63430008190033",
        "nonce": "0x2100",
        "chainId": "0xaa36a7"
      },
      "additionalContracts": [],
      "isFixedGasLimit": false
    },
    {
      "hash": "0x6d3568921e76ce1711924e15469c9b51b6622c9d7b58ab9bb17867cd6c4eafa9",
      "transactionType": "CREATE",
      "contractName": "Execute",
      "contractAddress": "0x88f41fb05634615e2d3ae489773ff4ca82804bbb",
      "function": null,
      "arguments": null,
      "transaction": {
        "from": "0xf39fd6e51aad88f6f4ce6ab8827279cfffb92266",
        "gas": "0xc94c9",
        "value": "0x0",
        "input": "0x6080604052348015600f57600080fd5b50610a838061001f6000396000f3fe608060405234801561001057600080fd5b506004361061002b5760003560e01c8063fe0d94c114610030575b600080fd5b61004361003e36600461080a565b610057565b604051901515815260200160405180910390f35b60008181527f9a70c69f78b954ec2ace8c62308c5ea2ed35f782ee583f10b56d88886fa993006020819052604082207f9a70c69f78b954ec2ace8c62308c5ea2ed35f782ee583f10b56d88886fa9930254600a82015442916100b891610823565b111561010b5760405162461bcd60e51b815260206004820152601a60248201527f50726f706f73616c206d7573742062652066696e69736865642e00000000000060448201526064015b60405180910390fd5b600181015461015c5760405162461bcd60e51b815260206004820152601960248201527f4e6f20626f647920666f726b7320746f20657865637574652e000000000000006044820152606401610102565b60058101546101b75760405162461bcd60e51b815260206004820152602160248201527f54616c6c79206d75737420626520646f6e65206174206c65617374206f6e63656044820152601760f91b6064820152608401610102565b600081600101826003016002016000815481106101d6576101d6610844565b9060005260206000200154815481106101f1576101f1610844565b9060005260206000209060030201600101905060005b815481101561042357600082828154811061022457610224610844565b906000526020600020906002020160405180604001604052908160008201805461024d9061085a565b80601f01602080910402602001604051908101604052809291908181526020018280546102799061085a565b80156102c65780601f1061029b576101008083540402835291602001916102c6565b820191906000526020600020905b8154815290600101906020018083116102a957829003601f168201915b505050505081526020016001820180546102df9061085a565b80601f016020809104026020016040519081016040528092919081815260200182805461030b9061085a565b80156103585780601f1061032d57610100808354040283529160200191610358565b820191906000526020600020905b81548152906001019060200180831161033b57829003601f168201915b5050505050815250509050600080306001600160a01b031683600001518051906020012084602001516040516020016103929291906108b8565b60408051601f19818403018152908290526103ac916108e9565b600060405180830381855af49150503d80600081146103e7576040519150601f19603f3d011682016040523d82523d6000602084013e6103ec565b606091505b509150915081610418576103ff8161042c565b60405162461bcd60e51b81526004016101029190610905565b505050600101610207565b50505050919050565b6060815160240361045457600061044283610463565b905061044d81610510565b9392505050565b61045d826106ad565b92915050565b600081516000036104b65760405162461bcd60e51b815260206004820152601f60248201527f72657665727465642077697468206e6f206572726f72206d6573736167652e006044820152606401610102565b6004825110156105085760405162461bcd60e51b815260206004820152601d60248201527f4461746120746f6f2073686f727420666f722070616e696320636f64650000006044820152606401610102565b506024015190565b60608160010361055357505060408051808201909152601881527f70616e69633a204469766973696f6e206279207a65726f2e0000000000000000602082015290565b8160110361057a5760405180606001604052806026815260200161094f6026913992915050565b816012036105a1576040518060600160405280602581526020016109d86025913992915050565b816021036105e257505060408051808201909152601f81527f70616e69633a20506f702066726f6d20616e20656d7074792061727261792e00602082015290565b81602203610609576040518060600160405280602c8152602001610a22602c913992915050565b81603103610630576040518060600160405280602581526020016109fd6025913992915050565b81603203610657576040518060600160405280602881526020016109b06028913992915050565b8160410361067e576040518060600160405280603b8152602001610975603b913992915050565b50506040805180820190915260138152722ab735b737bbb7103830b734b19031b7b2329760691b602082015290565b606081516000036107005760405162461bcd60e51b815260206004820152601f60248201527f72657665727465642077697468206e6f206572726f72206d6573736167652e006044820152606401610102565b6044825110156107525760405162461bcd60e51b815260206004820181905260248201527f4461746120746f6f2073686f727420666f722072657665727420726561736f6e6044820152606401610102565b604482015160008167ffffffffffffffff81111561077257610772610938565b6040519080825280601f01601f19166020018201604052801561079c576020820181803683370190505b50905060005b8281101561080257846107b6826044610823565b815181106107c6576107c6610844565b602001015160f81c60f81b8282815181106107e3576107e3610844565b60200101906001600160f81b031916908160001a9053506001016107a2565b509392505050565b60006020828403121561081c57600080fd5b5035919050565b8082018082111561045d57634e487b7160e01b600052601160045260246000fd5b634e487b7160e01b600052603260045260246000fd5b600181811c9082168061086e57607f821691505b60208210810361088e57634e487b7160e01b600052602260045260246000fd5b50919050565b60005b838110156108af578181015183820152602001610897565b50506000910152565b6001600160e01b03198316815281516000906108db816004850160208701610894565b919091016004019392505050565b600082516108fb818460208701610894565b9190910192915050565b6020815260008251806020840152610924816040850160208701610894565b601f01601f19169190910160400192915050565b634e487b7160e01b600052604160045260246000fdfe70616e69633a2041726974686d65746963206f7065726174696f6e20756e646572666c6f772e70616e69633a205a65726f2d696e697469616c697a6564207661726961626c65206f6620696e7465726e616c2066756e6374696f6e20747970652e70616e69633a206172726179206f75742d6f662d626f756e6473206163636573732028307833322970616e69633a2041726974686d65746963206f7065726174696f6e206f766572666c6f772e70616e69633a20416c6c6f636174696f6e206f6620746f6f206d756368206d656d6f72792e70616e69633a204172726179206f72206d656d6f727920616363657373206f7574206f6620626f756e64732ea264697066735822122034f9bb4b5e3ce42f4fb74c5f5028189a2abe87ba424e02ed4cc40f2d79cf0b4c64736f6c63430008190033",
        "nonce": "0x2101",
        "chainId": "0xaa36a7"
      },
      "additionalContracts": [],
      "isFixedGasLimit": false
    },
    {
      "hash": "0x8e3c327d89aacbbcdfd1c4ebc8c39bc88d09f78214756868aa3a0881aba7c9e0",
      "transactionType": "CREATE",
      "contractName": "MemberJoinProtected",
      "contractAddress": "0xc9b81022130932b862c9434c5cef43d9509a697e",
      "function": null,
      "arguments": null,
      "transaction": {
        "from": "0xf39fd6e51aad88f6f4ce6ab8827279cfffb92266",
        "gas": "0x5dbd1",
        "value": "0x0",
        "input": "0x6080604052348015600f57600080fd5b506104618061001f6000396000f3fe608060405234801561001057600080fd5b506004361061002b5760003560e01c806306f7e36d14610030575b600080fd5b61004361003e3660046102f8565b610057565b604051901515815260200160405180910390f35b60008281527f9a70c69f78b954ec2ace8c62308c5ea2ed35f782ee583f10b56d88886fa993006020819052604082207f9a70c69f78b954ec2ace8c62308c5ea2ed35f782ee583f10b56d88886fa9930254600a8201548693929142916100bd91906103ee565b1080156100cd5750600481015415155b6101395760405162461bcd60e51b815260206004820152603360248201527f436f72726573706f6e64696e672070726f706f73616c206d75737420626520656044820152723c3834b932b21030b732103a30b63634b2b21760691b606482015260840160405180910390fd5b7f2909c0a05d58f8b7f14a4ef9b6dfbc139611bb545981c04988c895be90f3500060005b86518110156102665786818151811061017857610178610415565b60200260200101516000015182600001600083856001015461019a91906103ee565b815260208101919091526040016000205586518790829081106101bf576101bf610415565b6020026020010151602001518260000160008385600101546101e191906103ee565b815260200190815260200160002060010160006101000a8154816001600160a01b0302191690836001600160a01b0316021790555086818151811061022857610228610415565b60200260200101516040015182600001600083856001015461024a91906103ee565b815260208101919091526040016000206002015560010161015d565b508551816001015461027891906103ee565b6001909101555091949350505050565b634e487b7160e01b600052604160045260246000fd5b6040516060810167ffffffffffffffff811182821017156102c1576102c1610288565b60405290565b604051601f8201601f1916810167ffffffffffffffff811182821017156102f0576102f0610288565b604052919050565b600080604080848603121561030c57600080fd5b8335925060208085013567ffffffffffffffff8082111561032c57600080fd5b818701915087601f83011261034057600080fd5b81358181111561035257610352610288565b610360848260051b016102c7565b8181528481019250606091820284018501918a83111561037f57600080fd5b938501935b828510156103dd5780858c03121561039c5760008081fd5b6103a461029e565b85358152868601356001600160a01b03811681146103c25760008081fd5b81880152858801358882015284529384019392850192610384565b508096505050505050509250929050565b8082018082111561040f57634e487b7160e01b600052601160045260246000fd5b92915050565b634e487b7160e01b600052603260045260246000fdfea26469706673582212206ad5136ce8a5a2c37fa617f25aa210edef19db372b623b3f8685c8440f6a2dba64736f6c63430008190033",
        "nonce": "0x2102",
        "chainId": "0xaa36a7"
      },
      "additionalContracts": [],
      "isFixedGasLimit": false
    },
    {
      "hash": "0xf981b94367172c2a53e269740737e87834549b3bbec3da2f58ff9c174c93d7d1",
      "transactionType": "CREATE",
      "contractName": "SetConfigsProtected",
      "contractAddress": "0x08b3dce948189047a946a516966ed406a748782b",
      "function": null,
      "arguments": null,
      "transaction": {
        "from": "0xf39fd6e51aad88f6f4ce6ab8827279cfffb92266",
        "gas": "0xa734f",
        "value": "0x0",
        "input": "0x6080604052348015600f57600080fd5b506108938061001f6000396000f3fe608060405234801561001057600080fd5b50600436106100415760003560e01c80635cefc4ad146100465780635ebf4de31461006d57806369c30f0e14610080575b600080fd5b610059610054366004610557565b610093565b604051901515815260200160405180910390f35b61005961007b366004610618565b610185565b61005961008e3660046106bb565b610323565b60008281527f9a70c69f78b954ec2ace8c62308c5ea2ed35f782ee583f10b56d88886fa9930060208190526040822060008051602061083e83398151915254600a8201548693929142916100e791906106fc565b1080156100f75750600481015415155b61011c5760405162461bcd60e51b815260040161011390610723565b60405180910390fd5b5050825160008051602061083e833981519152555060408201517f9a70c69f78b954ec2ace8c62308c5ea2ed35f782ee583f10b56d88886fa99304556060909101517f9a70c69f78b954ec2ace8c62308c5ea2ed35f782ee583f10b56d88886fa9930555919050565b60008281527f9a70c69f78b954ec2ace8c62308c5ea2ed35f782ee583f10b56d88886fa9930060208190526040822060008051602061083e83398151915254600a8201548693929142916101d991906106fc565b1080156101e95750600481015415155b6102055760405162461bcd60e51b815260040161011390610723565b505082517fe4fa6871814422bfe1d10a118a3483c970f3cc6a461f81c9d5701005cfdaf40380546001600160a01b039283166001600160a01b031990911617905560208401517fe4fa6871814422bfe1d10a118a3483c970f3cc6a461f81c9d5701005cfdaf4045560408401517fe4fa6871814422bfe1d10a118a3483c970f3cc6a461f81c9d5701005cfdaf40580546060870151608088015160a090980151909416600160501b027fffff0000000000000000000000000000000000000000ffffffffffffffffffff63ffffffff988916660100000000000002166601000000000000600160f01b031961ffff9096166401000000000265ffffffffffff1990931698909416979097171792909216179390931790925592915050565b60008281527f9a70c69f78b954ec2ace8c62308c5ea2ed35f782ee583f10b56d88886fa9930060208190526040822060008051602061083e83398151915254600a82015486939291429161037791906106fc565b1080156103875750600481015415155b6103a35760405162461bcd60e51b815260040161011390610723565b7fe4fa6871814422bfe1d10a118a3483c970f3cc6a461f81c9d5701005cfdaf403546040805163288688f960e21b815290517fe4fa6871814422bfe1d10a118a3483c970f3cc6a461f81c9d5701005cfdaf400926001600160a01b03169163a21a23e491600480830192602092919082900301816000875af115801561042d573d6000803e3d6000fd5b505050506040513d601f19601f820116820180604052508101906104519190610776565b60028201805467ffffffffffffffff9290921667ffffffffffffffff199092168217905560058201546003830154604080516020808201959095528151808203909501855280820191829052630200057560e51b9091526001600160a01b03600160501b909304831693634000aea0936104d29316918b91906044016107a7565b6020604051808303816000875af11580156104f1573d6000803e3d6000fd5b505050506040513d601f19601f82011682018060405250810190610515919061081b565b505050505092915050565b60405160c0810167ffffffffffffffff8111828210171561055157634e487b7160e01b600052604160045260246000fd5b60405290565b60008082840360a081121561056b57600080fd5b833592506080601f198201121561058157600080fd5b506040516080810181811067ffffffffffffffff821117156105b357634e487b7160e01b600052604160045260246000fd5b806040525060208401358152604084013560208201526060840135604082015260808401356060820152809150509250929050565b80356001600160a01b03811681146105ff57600080fd5b919050565b803563ffffffff811681146105ff57600080fd5b60008082840360e081121561062c57600080fd5b8335925060c0601f198201121561064257600080fd5b5061064b610520565b610657602085016105e8565b81526040840135602082015261066f60608501610604565b6040820152608084013561ffff8116811461068957600080fd5b606082015261069a60a08501610604565b60808201526106ab60c085016105e8565b60a0820152809150509250929050565b600080604083850312156106ce57600080fd5b8235915060208301356bffffffffffffffffffffffff811681146106f157600080fd5b809150509250929050565b8082018082111561071d57634e487b7160e01b600052601160045260246000fd5b92915050565b60208082526033908201527f436f72726573706f6e64696e672070726f706f73616c206d75737420626520656040820152723c3834b932b21030b732103a30b63634b2b21760691b606082015260800190565b60006020828403121561078857600080fd5b815167ffffffffffffffff811681146107a057600080fd5b9392505050565b60018060a01b0384168152600060206bffffffffffffffffffffffff8516602084015260606040840152835180606085015260005b818110156107f8578581018301518582016080015282016107dc565b506000608082860101526080601f19601f83011685010192505050949350505050565b60006020828403121561082d57600080fd5b815180151581146107a057600080fdfe9a70c69f78b954ec2ace8c62308c5ea2ed35f782ee583f10b56d88886fa99302a2646970667358221220f023914bd28d9e7ed77de8e9db525f8c0d1ea9d862d79a28a91603f398b0123e64736f6c63430008190033",
        "nonce": "0x2103",
        "chainId": "0xaa36a7"
      },
      "additionalContracts": [],
      "isFixedGasLimit": false
    },
    {
      "hash": "0x095371a97aa2216e75ccc8c636e214d2223735b8b6055aa569ebf3863f4335b0",
      "transactionType": "CREATE",
      "contractName": "ConfigOverrideProtected",
      "contractAddress": "0x180593c150f916831aedb9e60be689d304456286",
      "function": null,
      "arguments": null,
      "transaction": {
        "from": "0xf39fd6e51aad88f6f4ce6ab8827279cfffb92266",
        "gas": "0x3a991",
        "value": "0x0",
        "input": "0x6080604052348015600f57600080fd5b506102608061001f6000396000f3fe608060405234801561001057600080fd5b506004361061002b5760003560e01c80639f31e87b14610030575b600080fd5b61004361003e366004610194565b610057565b604051901515815260200160405180910390f35b60008281527f9a70c69f78b954ec2ace8c62308c5ea2ed35f782ee583f10b56d88886fa993006020819052604082207f9a70c69f78b954ec2ace8c62308c5ea2ed35f782ee583f10b56d88886fa9930254600a8201548693929142916100bd9190610203565b1080156100cd5750600481015415155b6101395760405162461bcd60e51b815260206004820152603360248201527f436f72726573706f6e64696e672070726f706f73616c206d75737420626520656044820152723c3834b932b21030b732103a30b63634b2b21760691b606482015260840160405180910390fd5b5050915163ed8b6b3160e01b6000527f147a311fe1db87247fe76cc1e6db3134e5d52a59e0824f018dad572e05b140006020527f5383e7c9ddd7d9b1763c1c2f58463c31530bb7fd97b38b4d6c0ce4a8002064665592915050565b60008082840360408112156101a857600080fd5b833592506020601f19820112156101be57600080fd5b506040516020810181811067ffffffffffffffff821117156101f057634e487b7160e01b600052604160045260246000fd5b6040526020939093013583525092909150565b8082018082111561022457634e487b7160e01b600052601160045260246000fd5b9291505056fea2646970667358221220689e653b27da9a5352e0d5ea0995e6a3a96554288fc37a00283e48fe4f068e5d64736f6c63430008190033",
        "nonce": "0x2104",
        "chainId": "0xaa36a7"
      },
      "additionalContracts": [],
      "isFixedGasLimit": false
    },
    {
      "hash": "0xc911a10363183f6f4c04f0ce699ee43fe18b73fee7d23fc8e07c46822c7e33ff",
      "transactionType": "CREATE",
      "contractName": "SaveTextProtected",
      "contractAddress": "0x9507a39e0f069feefa033c42eae0820559fe5c67",
      "function": null,
      "arguments": null,
      "transaction": {
        "from": "0xf39fd6e51aad88f6f4ce6ab8827279cfffb92266",
        "gas": "0x4f4b5",
        "value": "0x0",
        "input": "0x6080604052348015600f57600080fd5b5061038e8061001f6000396000f3fe608060405234801561001057600080fd5b506004361061002b5760003560e01c80639877696714610030575b600080fd5b61004361003e36600461023d565b610057565b604051901515815260200160405180910390f35b60008381527f9a70c69f78b954ec2ace8c62308c5ea2ed35f782ee583f10b56d88886fa993006020819052604082207f9a70c69f78b954ec2ace8c62308c5ea2ed35f782ee583f10b56d88886fa9930254600a8201548793929142916100bd9190610326565b1080156100cd5750600481015415155b6101395760405162461bcd60e51b815260206004820152603360248201527f436f72726573706f6e64696e672070726f706f73616c206d75737420626520656044820152723c3834b932b21030b732103a30b63634b2b21760691b606482015260840160405180910390fd5b60008681527ec2b62a56d6a36d26f9b1ee520f3f92694a04313c94e467f10a03b080d77900602081815260409092207ec2b62a56d6a36d26f9b1ee520f3f92694a04313c94e467f10a03b080d779015481558751919290916101a3916001840191908a01906101c7565b506001820180549060006101b68361033f565b919050555050505050509392505050565b828054828255906000526020600020908101928215610202579160200282015b828111156102025782518255916020019190600101906101e7565b5061020e929150610212565b5090565b5b8082111561020e5760008155600101610213565b634e487b7160e01b600052604160045260246000fd5b60008060006060848603121561025257600080fd5b833592506020808501359250604085013567ffffffffffffffff8082111561027957600080fd5b818701915087601f83011261028d57600080fd5b81358181111561029f5761029f610227565b8060051b604051601f19603f830116810181811085821117156102c4576102c4610227565b60405291825284820192508381018501918a8311156102e257600080fd5b938501935b82851015610300578435845293850193928501926102e7565b8096505050505050509250925092565b634e487b7160e01b600052601160045260246000fd5b8082018082111561033957610339610310565b92915050565b60006001820161035157610351610310565b506001019056fea2646970667358221220d9e9a51b5c3edeb1685176924595d09f08a2a7b97e3bd566d816b6947d141a1464736f6c63430008190033",
        "nonce": "0x2105",
        "chainId": "0xaa36a7"
      },
      "additionalContracts": [],
      "isFixedGasLimit": false
    },
    {
      "hash": "0x3bfe66c3c61828636476176bc3dde551c2c7a20af2a143d42e37c4cda66e7d66",
      "transactionType": "CREATE",
      "contractName": "Getter",
      "contractAddress": "0xa1a66287e75c8862ceea03c71a1fd9d5b2445f64",
      "function": null,
      "arguments": null,
      "transaction": {
        "from": "0xf39fd6e51aad88f6f4ce6ab8827279cfffb92266",
        "gas": "0x12a8cb",
        "value": "0x0",
        "input": "0x6080604052348015600f57600080fd5b5061100e8061001f6000396000f3fe608060405234801561001057600080fd5b50600436106100ea5760003560e01c8063a4c5e9cb1161008c578063c7f758a811610066578063c7f758a814610466578063cb37be9e14610486578063de3d9fb71461048e578063e8109953146104c957600080fd5b8063a4c5e9cb146102f9578063ab3545e514610334578063c1e582ba146103e057600080fd5b80636c996f88116100c85780636c996f8814610183578063787e0fe0146101a35780637f4ef9d4146101ab5780639a5ea6a0146101cb57600080fd5b806325be10bd146100ef5780632a2c16a0146101655780632b7efac11461017b575b600080fd5b6101516100fd366004610bf9565b60408051602080820183526000918290526001600160e01b03199390931681527f147a311fe1db87247fe76cc1e6db3134e5d52a59e0824f018dad572e05b140008352819020815192830190915254815290565b604051905181526020015b60405180910390f35b61016d6104e9565b60405190815260200161015c565b61016d610516565b610196610191366004610c2a565b61053d565b60405161015c9190610c7f565b61016d610629565b6101be6101b9366004610c2a565b61063f565b60405161015c9190610d0c565b6102946040805160c081018252600080825260208201819052918101829052606081018290526080810182905260a08101919091527fe4fa6871814422bfe1d10a118a3483c970f3cc6a461f81c9d5701005cfdaf4006040805160c08101825260038301546001600160a01b0390811682526004840154602083015260059093015463ffffffff8082169383019390935261ffff6401000000008204166060830152660100000000000081049092166080820152600160501b90910490911660a0820152919050565b60405161015c919081516001600160a01b0390811682526020808401519083015260408084015163ffffffff9081169184019190915260608085015161ffff16908401526080808501519091169083015260a092830151169181019190915260c00190565b6103016106ee565b60405161015c91908151815260208083015190820152604080830151908201526060918201519181019190915260800190565b6103b5610342366004610c2a565b6040805160608082018352600080835260208084018290529284018190529384527f2909c0a05d58f8b7f14a4ef9b6dfbc139611bb545981c04988c895be90f35000825292829020825193840183528054845260018101546001600160a01b031691840191909152600201549082015290565b60408051825181526020808401516001600160a01b031690820152918101519082015260600161015c565b61044b6103ee366004610c2a565b60408051808201909152600080825260208201527fe4fa6871814422bfe1d10a118a3483c970f3cc6a461f81c9d5701005cfdaf4006000928352602090815260409283902083518085019094528054845260010154908301525090565b6040805182518152602092830151928101929092520161015c565b610479610474366004610c2a565b6107c2565b60405161015c9190610d9e565b61016d61095e565b7fe4fa6871814422bfe1d10a118a3483c970f3cc6a461f81c9d5701005cfdaf4025460405167ffffffffffffffff909116815260200161015c565b6104dc6104d7366004610e59565b610986565b60405161015c9190610ec1565b60007fe4fa6871814422bfe1d10a118a3483c970f3cc6a461f81c9d5701005cfdaf4005b60010154905090565b60007ec2b62a56d6a36d26f9b1ee520f3f92694a04313c94e467f10a03b080d7790061050d565b6060600080516020610fb98339815191526000838152602091825260408082208054825181860281018601909352808352919390929084015b8282101561061e57838290600052602060002090600402016040518060800160405290816000820154815260200160018201548152602001600282015481526020016003820180548060200260200160405190810160405280929190818152602001828054801561060657602002820191906000526020600020905b8154815260200190600101908083116105f2575b50505050508152505081526020019060010190610576565b505050509050919050565b6000600080516020610fb983398151915261050d565b6040805180820190915260008152606060208201527ec2b62a56d6a36d26f9b1ee520f3f92694a04313c94e467f10a03b080d7790060008381526020918252604090819020815180830183528154815260018201805484518187028101870190955280855291949293858401939092908301828280156106de57602002820191906000526020600020905b8154815260200190600101908083116106ca575b5050505050815250509050919050565b6107196040518060800160405280600081526020016000815260200160008152602001600081525090565b50604080516080810182527f9a70c69f78b954ec2ace8c62308c5ea2ed35f782ee583f10b56d88886fa993025481527f9a70c69f78b954ec2ace8c62308c5ea2ed35f782ee583f10b56d88886fa993035460208201527f9a70c69f78b954ec2ace8c62308c5ea2ed35f782ee583f10b56d88886fa9930454918101919091527f9a70c69f78b954ec2ace8c62308c5ea2ed35f782ee583f10b56d88886fa9930554606082015290565b6107ca610b92565b6000828152600080516020610fb98339815191526020908152604091829020825161016081018452600382018054606083019081526004840180548751818802810188019098528088529496939586959294608087019390929183018282801561085357602002820191906000526020600020905b81548152602001906001019080831161083f575b50505050508152602001600282018054806020026020016040519081016040528092919081815260200182805480156108ab57602002820191906000526020600020905b815481526020019060010190808311610897575b5050505050815260200160038201548152602001600482015481526020016005820180548060200260200160405190810160405280929190818152602001828054801561092157602002820191906000526020600020905b81546001600160a01b03168152600190910190602001808311610903575b5050509183525050600682015460208083019190915260079092015460409182015291835284549083015260019093015492019190915292915050565b60007f2909c0a05d58f8b7f14a4ef9b6dfbc139611bb545981c04988c895be90f3500061050d565b6109aa60405180606001604052806000815260200160608152602001600081525090565b6000838152600080516020610fb9833981519152602052604090206001018054839081106109da576109da610f68565b90600052602060002090600302016040518060600160405290816000820154815260200160018201805480602002602001604051908101604052809291908181526020016000905b82821015610b785783829060005260206000209060020201604051806040016040529081600082018054610a5590610f7e565b80601f0160208091040260200160405190810160405280929190818152602001828054610a8190610f7e565b8015610ace5780601f10610aa357610100808354040283529160200191610ace565b820191906000526020600020905b815481529060010190602001808311610ab157829003601f168201915b50505050508152602001600182018054610ae790610f7e565b80601f0160208091040260200160405190810160405280929190818152602001828054610b1390610f7e565b8015610b605780601f10610b3557610100808354040283529160200191610b60565b820191906000526020600020905b815481529060010190602001808311610b4357829003601f168201915b50505050508152505081526020019060010190610a22565b505050508152602001600282015481525050905092915050565b6040518060600160405280610be560405180610100016040528060008152602001606081526020016060815260200160008152602001600081526020016060815260200160008152602001600081525090565b815260200160008152602001600081525090565b600060208284031215610c0b57600080fd5b81356001600160e01b031981168114610c2357600080fd5b9392505050565b600060208284031215610c3c57600080fd5b5035919050565b60008151808452602080850194506020840160005b83811015610c7457815187529582019590820190600101610c58565b509495945050505050565b600060208083018184528085518083526040925060408601915060408160051b87010184880160005b83811015610cfe57888303603f1901855281518051845287810151888501528681015187850152606090810151608091850182905290610cea81860183610c43565b968901969450505090860190600101610ca8565b509098975050505050505050565b60208082528251828201528281015160408084015280516060840181905260009291820190839060808601905b80831015610d595783518252928401926001929092019190840190610d39565b509695505050505050565b60008151808452602080850194506020840160005b83811015610c745781516001600160a01b031687529582019590820190600101610d79565b6020815260008251606060208401528051608084015260208101516101008060a0860152610dd0610180860183610c43565b91506040830151607f19808785030160c0880152610dee8483610c43565b9350606085015160e088015260808501518388015260a0850151925080878503016101208801525050610e218282610d64565b91505060c082015161014085015260e08201516101608501526020850151604085015260408501516060850152809250505092915050565b60008060408385031215610e6c57600080fd5b50508035926020909101359150565b6000815180845260005b81811015610ea157602081850181015186830182015201610e85565b506000602082860101526020601f19601f83011685010191505092915050565b60006020808352608083018451828501528185015160406060604087015282825180855260a08801915060a08160051b8901019450858401935060005b81811015610f4e57888603609f1901835284518051858852610f2286890182610e7b565b91890151888303898b0152919050610f3a8183610e7b565b975050509386019391860191600101610efe565b505050505060408501516060850152809250505092915050565b634e487b7160e01b600052603260045260246000fd5b600181811c90821680610f9257607f821691505b602082108103610fb257634e487b7160e01b600052602260045260246000fd5b5091905056fe9a70c69f78b954ec2ace8c62308c5ea2ed35f782ee583f10b56d88886fa99300a26469706673582212202cbe54c1b73470b6cd8f79903350ca821f2fe2389d3c36eb781910ccf468428664736f6c63430008190033",
        "nonce": "0x2106",
        "chainId": "0xaa36a7"
      },
      "additionalContracts": [],
      "isFixedGasLimit": false
    },
    {
      "hash": "0x6a97e590fdc2908aeda90d77dfc03b26a350ad5f735528db6db04ddcd5b23f29",
      "transactionType": "CREATE",
      "contractName": "TextDAOFacade",
      "contractAddress": "0xbff93e345a83d66ac6fcaaa9a7869172a443efa2",
      "function": null,
      "arguments": null,
      "transaction": {
        "from": "0xf39fd6e51aad88f6f4ce6ab8827279cfffb92266",
        "gas": "0xdcff0",
        "value": "0x0",
        "input": "0x6080604052348015600f57600080fd5b50610ba38061001f6000396000f3fe608060405234801561001057600080fd5b506004361061018e5760003560e01c8063a4c5e9cb116100de578063cb37be9e11610097578063e69b9edc11610071578063e69b9edc146103f9578063e810995314610444578063ed8b6b3114610464578063fe0d94c11461046457600080fd5b8063cb37be9e146101dd578063dc1ec0e514610427578063de3d9fb71461043557600080fd5b8063a4c5e9cb14610315578063ab3545e514610350578063bca2007b146103aa578063c1e582ba146103b8578063c5b36441146103f9578063c7f758a81461040757600080fd5b8063603d9eb71161014b5780637f4ef9d4116101255780637f4ef9d41461023d5780638124b78e146102715780639a5ea6a0146102825780639f46786e1461030157600080fd5b8063603d9eb71461020e5780636c996f881461021c578063787e0fe0146101dd57600080fd5b806306f7e36d1461019357806325be10bd146101a85780632a2c16a0146101dd5780632b7efac1146101dd5780633fc765ad146101ee5780634f4a953614610200575b600080fd5b6101a66101a136600461053e565b505050565b005b6101c96101b63660046105bd565b5060408051602081019091526000815290565b604051905181526020015b60405180910390f35b60005b6040519081526020016101d4565b6101a66101fc366004610606565b5050565b6101a66101a1366004610633565b6101a66101fc3660046106ae565b61023061022a3660046106f5565b50606090565b6040516101d4919061074a565b61026461024b3660046106f5565b5060408051808201909152600081526060602082015290565b6040516101d491906107d7565b6101a661027f36600461082f565b50565b6040805160c08082018352600080835260208084018281528486018381526060808701858152608080890187815260a0998a018881528b51988952955196880196909652925163ffffffff908116998701999099525161ffff169085015291519095169082015292516001600160a01b031691830191909152016101d4565b6101e061030f366004610858565b50600090565b61031d61047a565b6040516101d491908151815260208083015190820152604080830151908201526060918201519181019190915260800190565b61037f61035e3660046106f5565b50604080516060810182526000808252602082018190529181019190915290565b60408051825181526020808401516001600160a01b03169082015291810151908201526060016101d4565b6101a661027f366004610895565b6103de6103c63660046106f5565b50604080518082019091526000808252602082015290565b604080518251815260209283015192810192909252016101d4565b6101a66101fc3660046108b1565b61041a6104153660046106f5565b6104a5565b6040516101d4919061091e565b6101a66101a13660046109d9565b604051600081526020016101d4565b610457610452366004610a5e565b6104ad565b6040516101d49190610ac6565b6101a661027f3660046106f5565b919050565b90565b6104776040518060800160405280600081526020016000815260200160008152602001600081525090565b6104726104d7565b6104d160405180606001604052806000815260200160608152602001600081525090565b92915050565b604051806060016040528061052a60405180610100016040528060008152602001606081526020016060815260200160008152602001600081526020016060815260200160008152602001600081525090565b815260200160008152602001600081525090565b60008060006040848603121561055357600080fd5b83359250602084013567ffffffffffffffff8082111561057257600080fd5b818601915086601f83011261058657600080fd5b81358181111561059557600080fd5b8760206060830285010111156105aa57600080fd5b6020830194508093505050509250925092565b6000602082840312156105cf57600080fd5b81356001600160e01b0319811681146105e757600080fd5b9392505050565b60006080828403121561060057600080fd5b50919050565b60008060a0838503121561061957600080fd5b8235915061062a84602085016105ee565b90509250929050565b60008060006040848603121561064857600080fd5b83359250602084013567ffffffffffffffff8082111561066757600080fd5b818601915086601f83011261067b57600080fd5b81358181111561068a57600080fd5b8760208285010111156105aa57600080fd5b60006060828403121561060057600080fd5b600080604083850312156106c157600080fd5b82359150602083013567ffffffffffffffff8111156106df57600080fd5b6106eb8582860161069c565b9150509250929050565b60006020828403121561070757600080fd5b5035919050565b60008151808452602080850194506020840160005b8381101561073f57815187529582019590820190600101610723565b509495945050505050565b600060208083018184528085518083526040925060408601915060408160051b87010184880160005b838110156107c957888303603f19018552815180518452878101518885015286810151878501526060908101516080918501829052906107b58186018361070e565b968901969450505090860190600101610773565b509098975050505050505050565b60208082528251828201528281015160408084015280516060840181905260009291820190839060808601905b808310156108245783518252928401926001929092019190840190610804565b509695505050505050565b60006020828403121561084157600080fd5b81356001600160a01b03811681146105e757600080fd5b60006020828403121561086a57600080fd5b813567ffffffffffffffff81111561088157600080fd5b61088d8482850161069c565b949350505050565b6000608082840312156108a757600080fd5b6105e783836105ee565b600080608083850312156108c457600080fd5b82359150836080840111156108d857600080fd5b50926020919091019150565b60008151808452602080850194506020840160005b8381101561073f5781516001600160a01b0316875295820195908201906001016108f9565b6020815260008251606060208401528051608084015260208101516101008060a086015261095061018086018361070e565b91506040830151607f19808785030160c088015261096e848361070e565b9350606085015160e088015260808501518388015260a08501519250808785030161012088015250506109a182826108e4565b91505060c082015161014085015260e08201516101608501526020850151604085015260408501516060850152809250505092915050565b600080600060a084860312156109ee57600080fd5b833567ffffffffffffffff80821115610a0657600080fd5b818601915086601f830112610a1a57600080fd5b813581811115610a2957600080fd5b8760208260051b8501011115610a3e57600080fd5b602092830195509350610a559187915086016105ee565b90509250925092565b60008060408385031215610a7157600080fd5b50508035926020909101359150565b6000815180845260005b81811015610aa657602081850181015186830182015201610a8a565b506000602082860101526020601f19601f83011685010191505092915050565b60006020808352608083018451828501528185015160406060604087015282825180855260a08801915060a08160051b8901019450858401935060005b81811015610b5357888603609f1901835284518051858852610b2786890182610a80565b91890151888303898b0152919050610b3f8183610a80565b975050509386019391860191600101610b03565b50505050506040850151606085015280925050509291505056fea2646970667358221220b3c5dd89640c4314602492649cf37807779fb65435e0b21b7304a40d763f636464736f6c63430008190033",
        "nonce": "0x2107",
        "chainId": "0xaa36a7"
      },
      "additionalContracts": [],
      "isFixedGasLimit": false
    },
    {
      "hash": "0xab15a8c5cfda883db86b1308f9262a8f03f8d6ce4ca49ac5dcb070ec6640d561",
      "transactionType": "CREATE",
      "contractName": "Dictionary",
      "contractAddress": "0x40af4fb3c5a7299977f7dd5a442435bd6a520fbc",
      "function": null,
      "arguments": [
        "0xf39Fd6e51aad88F6F4ce6aB8827279cffFb92266"
      ],
      "transaction": {
        "from": "0xf39fd6e51aad88f6f4ce6ab8827279cfffb92266",
        "gas": "0xa796e",
        "value": "0x0",
        "input": "0x608060405234801561001057600080fd5b5060405161091538038061091583398101604081905261002f916100c0565b806001600160a01b03811661005e57604051631e4fbdf760e01b81526000600482015260240160405180910390fd5b6100678161006e565b50506100f0565b600380546001600160a01b038381166001600160a01b0319831681179093556040519116919082907f8be0079c531659141344cd1fd0a4f28419497f9722a3daafe3b4186f6b6457e090600090a35050565b6000602082840312156100d257600080fd5b81516001600160a01b03811681146100e957600080fd5b9392505050565b610816806100ff6000396000f3fe608060405234801561001057600080fd5b50600436106100935760003560e01c8063715018a611610066578063715018a61461012f5780638da5cb5b14610137578063a5954dd714610148578063dc9cc6451461015d578063f2fde38b1461017057600080fd5b806301ffc9a7146100985780630815f6fd146100e25780635c60da1b146100f7578063651dc03d1461011c575b600080fd5b6100cd6100a63660046106f5565b6001600160e01b0319166000908152602081905260409020546001600160a01b0316151590565b60405190151581526020015b60405180910390f35b6100f56100f036600461072e565b610183565b005b6002546001600160a01b03165b6040516001600160a01b0390911681526020016100d9565b6100f561012a366004610761565b610199565b6100f56101ad565b6003546001600160a01b0316610104565b6101506101c1565b6040516100d9919061077c565b61010461016b3660046106f5565b610246565b6100f561017e366004610761565b6102df565b61018b61031a565b6101958282610347565b5050565b6101a161031a565b6101aa81610371565b50565b6101b561031a565b6101bf60006103c6565b565b6060600180548060200260200160405190810160405280929190818152602001828054801561023c57602002820191906000526020600020906000905b82829054906101000a900460e01b6001600160e01b031916815260200190600401906020826003010492830192600103820291508084116101fe5790505b5050505050905090565b6001600160e01b031981166000908152602081905260408120546001600160a01b031680156102755792915050565b5060008080526020527fad3228b676f7d3cd4284a5443f17f1962b36e491b30a40b2405849e597ba5fb5546001600160a01b031680156102b55792915050565b60405163404ceef760e11b81526001600160e01b0319841660048201526024015b60405180910390fd5b6102e761031a565b6001600160a01b03811661031157604051631e4fbdf760e01b8152600060048201526024016102d6565b6101aa816103c6565b6003546001600160a01b031633146101bf5760405163118cdaa760e01b81523360048201526024016102d6565b6001600160a01b03811661035e5761019582610418565b61036782610514565b61019582826105bb565b600280546001600160a01b0319166001600160a01b0383169081179091556040519081527f159f10d3da077d18f228d52be447d552e7d1892d10f7af8f615658160e374729906020015b60405180910390a150565b600380546001600160a01b038381166001600160a01b0319831681179093556040519116919082907f8be0079c531659141344cd1fd0a4f28419497f9722a3daafe3b4186f6b6457e090600090a35050565b60005b6001548110156104bd57816001600160e01b03191660018281548110610443576104436107ca565b90600052602060002090600891828204019190066004029054906101000a900460e01b6001600160e01b031916036104b55760018181548110610488576104886107ca565b90600052602060002090600891828204019190066004026101000a81549063ffffffff02191690556104bd565b60010161041b565b506001600160e01b031981166000818152602081815260409182902080546001600160a01b031916905590519182527fb0f2f3a9229724df0b95683e95488b72aed817bc1a5bd6fe1d2e7504e92871cb91016103bb565b61051d81610660565b156105255750565b6001805480820182556000919091527fb10e2d527612073b26eecdfd717e6a320cf44b4afac2b0732d9fcbe2b7fa0cf66008820401805463ffffffff60079093166004026101000a928302191660e084901c929092029190911790556040516001600160e01b0319821681527fbe533f538959a17d76f1b09e966e741ee3b1183099682f96216c93d21feaecba906020016103bb565b806001600160a01b03163b6000036105f157604051630c76093760e01b81526001600160a01b03821660048201526024016102d6565b6001600160e01b031982166000818152602081815260409182902080546001600160a01b0319166001600160a01b0386169081179091558251938452908301527fda3c8142b3c1d27633026f55bfcb4eeb0b5b8db0daa0a3e10c2213a441722ad1910160405180910390a15050565b6000805b6001548110156106cf57826001600160e01b0319166001828154811061068c5761068c6107ca565b90600052602060002090600891828204019190066004029054906101000a900460e01b6001600160e01b031916036106c75750600192915050565b600101610664565b50600092915050565b80356001600160e01b0319811681146106f057600080fd5b919050565b60006020828403121561070757600080fd5b610710826106d8565b9392505050565b80356001600160a01b03811681146106f057600080fd5b6000806040838503121561074157600080fd5b61074a836106d8565b915061075860208401610717565b90509250929050565b60006020828403121561077357600080fd5b61071082610717565b6020808252825182820181905260009190848201906040850190845b818110156107be5783516001600160e01b03191683529284019291840191600101610798565b50909695505050505050565b634e487b7160e01b600052603260045260246000fdfea26469706673582212208fd8ca1ca4e9b195d199802fa78b1526b04071a3e8095acd9f56756efe6d3a5e64736f6c63430008190033000000000000000000000000f39fd6e51aad88f6f4ce6ab8827279cfffb92266",
        "nonce": "0x2108",
        "chainId": "0xaa36a7"
      },
      "additionalContracts": [],
      "isFixedGasLimit": false
    },
    {
      "hash": "0xc827c7369702c5c4f6cb152534565a6d63281e6146128ecde436925098116e28",
      "transactionType": "CALL",
      "contractName": "Dictionary",
      "contractAddress": "0x40af4fb3c5a7299977f7dd5a442435bd6a520fbc",
      "function": "setImplementation(bytes4,address)",
      "arguments": [
        "0x8ca89f7700000000000000000000000000000000000000000000000000000000",
        "0x805428d905123DC1Df3De6700F683611B2De1341"
      ],
      "transaction": {
        "from": "0xf39fd6e51aad88f6f4ce6ab8827279cfffb92266",
        "to": "0x40af4fb3c5a7299977f7dd5a442435bd6a520fbc",
        "gas": "0x206fc",
        "value": "0x0",
        "input": "0x0815f6fd8ca89f7700000000000000000000000000000000000000000000000000000000000000000000000000000000805428d905123dc1df3de6700f683611b2de1341",
        "nonce": "0x2109",
        "chainId": "0xaa36a7"
      },
      "additionalContracts": [],
      "isFixedGasLimit": false
    },
    {
      "hash": "0xe546b48ee482f55d9c3a5065dc17026bdff1540749cac1c051d364734727d6b1",
      "transactionType": "CALL",
      "contractName": "Dictionary",
      "contractAddress": "0x40af4fb3c5a7299977f7dd5a442435bd6a520fbc",
      "function": "setImplementation(bytes4,address)",
      "arguments": [
        "0xdc1ec0e500000000000000000000000000000000000000000000000000000000",
        "0xea9CB5f8569686fB7567C34B27015b0BDcF60e9E"
      ],
      "transaction": {
        "from": "0xf39fd6e51aad88f6f4ce6ab8827279cfffb92266",
        "to": "0x40af4fb3c5a7299977f7dd5a442435bd6a520fbc",
        "gas": "0x151c0",
        "value": "0x0",
        "input": "0x0815f6fddc1ec0e500000000000000000000000000000000000000000000000000000000000000000000000000000000ea9cb5f8569686fb7567c34b27015b0bdcf60e9e",
        "nonce": "0x210a",
        "chainId": "0xaa36a7"
      },
      "additionalContracts": [],
      "isFixedGasLimit": false
    },
    {
      "hash": "0xa5a6215328381ccb1a254c8fea52f5b1ef50d515f19466dd4a87bec9bd916da6",
      "transactionType": "CALL",
      "contractName": "Dictionary",
      "contractAddress": "0x40af4fb3c5a7299977f7dd5a442435bd6a520fbc",
      "function": "setImplementation(bytes4,address)",
      "arguments": [
        "0x9f46786e00000000000000000000000000000000000000000000000000000000",
        "0xaE74d448A9f3f587CD4AddF75b1B457A6EfEBd1f"
      ],
      "transaction": {
        "from": "0xf39fd6e51aad88f6f4ce6ab8827279cfffb92266",
        "to": "0x40af4fb3c5a7299977f7dd5a442435bd6a520fbc",
        "gas": "0x1691b",
        "value": "0x0",
        "input": "0x0815f6fd9f46786e00000000000000000000000000000000000000000000000000000000000000000000000000000000ae74d448a9f3f587cd4addf75b1b457a6efebd1f",
        "nonce": "0x210b",
        "chainId": "0xaa36a7"
      },
      "additionalContracts": [],
      "isFixedGasLimit": false
    },
    {
      "hash": "0x89da6528165357c10c6984f33f3e0ded5f91589382a106c299f70c49106be63e",
      "transactionType": "CALL",
      "contractName": "Dictionary",
      "contractAddress": "0x40af4fb3c5a7299977f7dd5a442435bd6a520fbc",
      "function": "setImplementation(bytes4,address)",
      "arguments": [
        "0x603d9eb700000000000000000000000000000000000000000000000000000000",
        "0x1D3278105350102D64FaDe46DfA4ac183dac2967"
      ],
      "transaction": {
        "from": "0xf39fd6e51aad88f6f4ce6ab8827279cfffb92266",
        "to": "0x40af4fb3c5a7299977f7dd5a442435bd6a520fbc",
        "gas": "0x16c96",
        "value": "0x0",
        "input": "0x0815f6fd603d9eb7000000000000000000000000000000000000000000000000000000000000000000000000000000001d3278105350102d64fade46dfa4ac183dac2967",
        "nonce": "0x210c",
        "chainId": "0xaa36a7"
      },
      "additionalContracts": [],
      "isFixedGasLimit": false
    },
    {
      "hash": "0xe8b558f858461f79bf71c2225a8cb47e58958fa52604f13adbc0278f363ce89e",
      "transactionType": "CALL",
      "contractName": "Dictionary",
      "contractAddress": "0x40af4fb3c5a7299977f7dd5a442435bd6a520fbc",
      "function": "setImplementation(bytes4,address)",
      "arguments": [
        "0xc5b3644100000000000000000000000000000000000000000000000000000000",
        "0x1202ce1492AFeDB32A7d82E98F6aB034FaDC682d"
      ],
      "transaction": {
        "from": "0xf39fd6e51aad88f6f4ce6ab8827279cfffb92266",
        "to": "0x40af4fb3c5a7299977f7dd5a442435bd6a520fbc",
        "gas": "0x15b9f",
        "value": "0x0",
        "input": "0x0815f6fdc5b36441000000000000000000000000000000000000000000000000000000000000000000000000000000001202ce1492afedb32a7d82e98f6ab034fadc682d",
        "nonce": "0x210d",
        "chainId": "0xaa36a7"
      },
      "additionalContracts": [],
      "isFixedGasLimit": false
    },
    {
      "hash": "0x7e46c8d26007c6ad8ad8de26f87c8adab6025b0988add836a2c0361d84ae585e",
      "transactionType": "CALL",
      "contractName": "Dictionary",
      "contractAddress": "0x40af4fb3c5a7299977f7dd5a442435bd6a520fbc",
      "function": "setImplementation(bytes4,address)",
      "arguments": [
        "0xe69b9edc00000000000000000000000000000000000000000000000000000000",
        "0x1202ce1492AFeDB32A7d82E98F6aB034FaDC682d"
      ],
      "transaction": {
        "from": "0xf39fd6e51aad88f6f4ce6ab8827279cfffb92266",
        "to": "0x40af4fb3c5a7299977f7dd5a442435bd6a520fbc",
        "gas": "0x15ee9",
        "value": "0x0",
        "input": "0x0815f6fde69b9edc000000000000000000000000000000000000000000000000000000000000000000000000000000001202ce1492afedb32a7d82e98f6ab034fadc682d",
        "nonce": "0x210e",
        "chainId": "0xaa36a7"
      },
      "additionalContracts": [],
      "isFixedGasLimit": false
    },
    {
      "hash": "0x9211d419e1d3b10dedc8f151ca3393480fa4981e515f840764f82e2f626f0450",
      "transactionType": "CALL",
      "contractName": "Dictionary",
      "contractAddress": "0x40af4fb3c5a7299977f7dd5a442435bd6a520fbc",
      "function": "setImplementation(bytes4,address)",
      "arguments": [
        "0xed8b6b3100000000000000000000000000000000000000000000000000000000",
        "0x9878c977Ff386F2Fd8Bf182cc62E87657631B4C9"
      ],
      "transaction": {
        "from": "0xf39fd6e51aad88f6f4ce6ab8827279cfffb92266",
        "to": "0x40af4fb3c5a7299977f7dd5a442435bd6a520fbc",
        "gas": "0x1770b",
        "value": "0x0",
        "input": "0x0815f6fded8b6b31000000000000000000000000000000000000000000000000000000000000000000000000000000009878c977ff386f2fd8bf182cc62e87657631b4c9",
        "nonce": "0x210f",
        "chainId": "0xaa36a7"
      },
      "additionalContracts": [],
      "isFixedGasLimit": false
    },
    {
      "hash": "0x729c0416207f9678d9ed4532e2b15dba45fb367367d2d1165565a7c08210420d",
      "transactionType": "CALL",
      "contractName": "Dictionary",
      "contractAddress": "0x40af4fb3c5a7299977f7dd5a442435bd6a520fbc",
      "function": "setImplementation(bytes4,address)",
      "arguments": [
        "0xfe0d94c100000000000000000000000000000000000000000000000000000000",
        "0x88F41fb05634615e2D3aE489773ff4cA82804bbb"
      ],
      "transaction": {
        "from": "0xf39fd6e51aad88f6f4ce6ab8827279cfffb92266",
        "to": "0x40af4fb3c5a7299977f7dd5a442435bd6a520fbc",
        "gas": "0x17a87",
        "value": "0x0",
        "input": "0x0815f6fdfe0d94c10000000000000000000000000000000000000000000000000000000000000000000000000000000088f41fb05634615e2d3ae489773ff4ca82804bbb",
        "nonce": "0x2110",
        "chainId": "0xaa36a7"
      },
      "additionalContracts": [],
      "isFixedGasLimit": false
    },
    {
      "hash": "0x7d189df1c26dab1621db990602f52c44de7eadd369a24e986434eda967e42a86",
      "transactionType": "CALL",
      "contractName": "Dictionary",
      "contractAddress": "0x40af4fb3c5a7299977f7dd5a442435bd6a520fbc",
      "function": "setImplementation(bytes4,address)",
      "arguments": [
        "0x06f7e36d00000000000000000000000000000000000000000000000000000000",
        "0xC9b81022130932B862C9434c5ceF43d9509a697E"
      ],
      "transaction": {
        "from": "0xf39fd6e51aad88f6f4ce6ab8827279cfffb92266",
        "to": "0x40af4fb3c5a7299977f7dd5a442435bd6a520fbc",
        "gas": "0x1cf92",
        "value": "0x0",
        "input": "0x0815f6fd06f7e36d00000000000000000000000000000000000000000000000000000000000000000000000000000000c9b81022130932b862c9434c5cef43d9509a697e",
        "nonce": "0x2111",
        "chainId": "0xaa36a7"
      },
      "additionalContracts": [],
      "isFixedGasLimit": false
    },
    {
      "hash": "0x58f61bae96158d2abf023dcb527b8e5d24f3608c19d2c8eda26274d492f48bd9",
      "transactionType": "CALL",
      "contractName": "Dictionary",
      "contractAddress": "0x40af4fb3c5a7299977f7dd5a442435bd6a520fbc",
      "function": "setImplementation(bytes4,address)",
      "arguments": [
        "0x5cefc4ad00000000000000000000000000000000000000000000000000000000",
        "0x08b3DcE948189047A946A516966ED406a748782b"
      ],
      "transaction": {
        "from": "0xf39fd6e51aad88f6f4ce6ab8827279cfffb92266",
        "to": "0x40af4fb3c5a7299977f7dd5a442435bd6a520fbc",
        "gas": "0x1769a",
        "value": "0x0",
        "input": "0x0815f6fd5cefc4ad0000000000000000000000000000000000000000000000000000000000000000000000000000000008b3dce948189047a946a516966ed406a748782b",
        "nonce": "0x2112",
        "chainId": "0xaa36a7"
      },
      "additionalContracts": [],
      "isFixedGasLimit": false
    },
    {
      "hash": "0x5647065f3ce53dfa8c9d72e8d646b08c43216c50cb1403817eec721c69b6bcf0",
      "transactionType": "CALL",
      "contractName": "Dictionary",
      "contractAddress": "0x40af4fb3c5a7299977f7dd5a442435bd6a520fbc",
      "function": "setImplementation(bytes4,address)",
      "arguments": [
        "0x9f31e87b00000000000000000000000000000000000000000000000000000000",
        "0x180593C150F916831AeDB9E60be689D304456286"
      ],
      "transaction": {
        "from": "0xf39fd6e51aad88f6f4ce6ab8827279cfffb92266",
        "to": "0x40af4fb3c5a7299977f7dd5a442435bd6a520fbc",
        "gas": "0x179e4",
        "value": "0x0",
        "input": "0x0815f6fd9f31e87b00000000000000000000000000000000000000000000000000000000000000000000000000000000180593c150f916831aedb9e60be689d304456286",
        "nonce": "0x2113",
        "chainId": "0xaa36a7"
      },
      "additionalContracts": [],
      "isFixedGasLimit": false
    },
    {
      "hash": "0xc3f79ec905cf88e2c391c704efc4b0991b67d2bc53951f6b44620ec9da2a0222",
      "transactionType": "CALL",
      "contractName": "Dictionary",
      "contractAddress": "0x40af4fb3c5a7299977f7dd5a442435bd6a520fbc",
      "function": "setImplementation(bytes4,address)",
      "arguments": [
        "0x9877696700000000000000000000000000000000000000000000000000000000",
        "0x9507A39e0F069feefA033C42eaE0820559FE5C67"
      ],
      "transaction": {
        "from": "0xf39fd6e51aad88f6f4ce6ab8827279cfffb92266",
        "to": "0x40af4fb3c5a7299977f7dd5a442435bd6a520fbc",
        "gas": "0x1939c",
        "value": "0x0",
        "input": "0x0815f6fd98776967000000000000000000000000000000000000000000000000000000000000000000000000000000009507a39e0f069feefa033c42eae0820559fe5c67",
        "nonce": "0x2114",
        "chainId": "0xaa36a7"
      },
      "additionalContracts": [],
      "isFixedGasLimit": false
    },
    {
      "hash": "0x7ab2d2867abf24783edcfdf0100dcfbd2e52d6e292869e64cf1a88d6d8458f19",
      "transactionType": "CALL",
      "contractName": "Dictionary",
      "contractAddress": "0x40af4fb3c5a7299977f7dd5a442435bd6a520fbc",
      "function": "setImplementation(bytes4,address)",
      "arguments": [
        "0xc7f758a800000000000000000000000000000000000000000000000000000000",
        "0xa1A66287e75C8862cEEa03C71A1fD9D5B2445F64"
      ],
      "transaction": {
        "from": "0xf39fd6e51aad88f6f4ce6ab8827279cfffb92266",
        "to": "0x40af4fb3c5a7299977f7dd5a442435bd6a520fbc",
        "gas": "0x19717",
        "value": "0x0",
        "input": "0x0815f6fdc7f758a800000000000000000000000000000000000000000000000000000000000000000000000000000000a1a66287e75c8862ceea03c71a1fd9d5b2445f64",
        "nonce": "0x2115",
        "chainId": "0xaa36a7"
      },
      "additionalContracts": [],
      "isFixedGasLimit": false
    },
    {
      "hash": "0x4e538de2350f766911f492576ae11678a0be21ae3f64751532ef4c18cc8fe4fe",
      "transactionType": "CALL",
      "contractName": "Dictionary",
      "contractAddress": "0x40af4fb3c5a7299977f7dd5a442435bd6a520fbc",
      "function": "setImplementation(bytes4,address)",
      "arguments": [
        "0x6c996f8800000000000000000000000000000000000000000000000000000000",
        "0xa1A66287e75C8862cEEa03C71A1fD9D5B2445F64"
      ],
      "transaction": {
        "from": "0xf39fd6e51aad88f6f4ce6ab8827279cfffb92266",
        "to": "0x40af4fb3c5a7299977f7dd5a442435bd6a520fbc",
        "gas": "0x183c4",
        "value": "0x0",
        "input": "0x0815f6fd6c996f8800000000000000000000000000000000000000000000000000000000000000000000000000000000a1a66287e75c8862ceea03c71a1fd9d5b2445f64",
        "nonce": "0x2116",
        "chainId": "0xaa36a7"
      },
      "additionalContracts": [],
      "isFixedGasLimit": false
    },
    {
      "hash": "0xf1bba2c855e11d669551352aa36ae1db9c62e7fcc56b5e723485296f3439b3e7",
      "transactionType": "CALL",
      "contractName": "Dictionary",
      "contractAddress": "0x40af4fb3c5a7299977f7dd5a442435bd6a520fbc",
      "function": "setImplementation(bytes4,address)",
      "arguments": [
        "0xe810995300000000000000000000000000000000000000000000000000000000",
        "0xa1A66287e75C8862cEEa03C71A1fD9D5B2445F64"
      ],
      "transaction": {
        "from": "0xf39fd6e51aad88f6f4ce6ab8827279cfffb92266",
        "to": "0x40af4fb3c5a7299977f7dd5a442435bd6a520fbc",
        "gas": "0x1870e",
        "value": "0x0",
        "input": "0x0815f6fde810995300000000000000000000000000000000000000000000000000000000000000000000000000000000a1a66287e75c8862ceea03c71a1fd9d5b2445f64",
        "nonce": "0x2117",
        "chainId": "0xaa36a7"
      },
      "additionalContracts": [],
      "isFixedGasLimit": false
    },
    {
      "hash": "0x35c6d922d2821ce78f3bc7ad1de6a2a4d927e545d522db7ae301dac54a7239da",
      "transactionType": "CALL",
      "contractName": "Dictionary",
      "contractAddress": "0x40af4fb3c5a7299977f7dd5a442435bd6a520fbc",
      "function": "setImplementation(bytes4,address)",
      "arguments": [
        "0x787e0fe000000000000000000000000000000000000000000000000000000000",
        "0xa1A66287e75C8862cEEa03C71A1fD9D5B2445F64"
      ],
      "transaction": {
        "from": "0xf39fd6e51aad88f6f4ce6ab8827279cfffb92266",
        "to": "0x40af4fb3c5a7299977f7dd5a442435bd6a520fbc",
        "gas": "0x1a18c",
        "value": "0x0",
        "input": "0x0815f6fd787e0fe000000000000000000000000000000000000000000000000000000000000000000000000000000000a1a66287e75c8862ceea03c71a1fd9d5b2445f64",
        "nonce": "0x2118",
        "chainId": "0xaa36a7"
      },
      "additionalContracts": [],
      "isFixedGasLimit": false
    },
    {
      "hash": "0xa7160b669900a5847ec471aa99f47c5a5d37793637541843926554b58828e2af",
      "transactionType": "CALL",
      "contractName": "Dictionary",
      "contractAddress": "0x40af4fb3c5a7299977f7dd5a442435bd6a520fbc",
      "function": "setImplementation(bytes4,address)",
      "arguments": [
        "0xa4c5e9cb00000000000000000000000000000000000000000000000000000000",
        "0xa1A66287e75C8862cEEa03C71A1fD9D5B2445F64"
      ],
      "transaction": {
        "from": "0xf39fd6e51aad88f6f4ce6ab8827279cfffb92266",
        "to": "0x40af4fb3c5a7299977f7dd5a442435bd6a520fbc",
        "gas": "0x1f46c",
        "value": "0x0",
        "input": "0x0815f6fda4c5e9cb00000000000000000000000000000000000000000000000000000000000000000000000000000000a1a66287e75c8862ceea03c71a1fd9d5b2445f64",
        "nonce": "0x2119",
        "chainId": "0xaa36a7"
      },
      "additionalContracts": [],
      "isFixedGasLimit": false
    },
    {
      "hash": "0xa28f2de687512506e540297055660425b8930c4451a09c1ff000a4d44192a3d4",
      "transactionType": "CALL",
      "contractName": "Dictionary",
      "contractAddress": "0x40af4fb3c5a7299977f7dd5a442435bd6a520fbc",
      "function": "setImplementation(bytes4,address)",
      "arguments": [
        "0x7f4ef9d400000000000000000000000000000000000000000000000000000000",
        "0xa1A66287e75C8862cEEa03C71A1fD9D5B2445F64"
      ],
      "transaction": {
        "from": "0xf39fd6e51aad88f6f4ce6ab8827279cfffb92266",
        "to": "0x40af4fb3c5a7299977f7dd5a442435bd6a520fbc",
        "gas": "0x1b3a8",
        "value": "0x0",
        "input": "0x0815f6fd7f4ef9d400000000000000000000000000000000000000000000000000000000000000000000000000000000a1a66287e75c8862ceea03c71a1fd9d5b2445f64",
        "nonce": "0x211a",
        "chainId": "0xaa36a7"
      },
      "additionalContracts": [],
      "isFixedGasLimit": false
    },
    {
      "hash": "0x54d6e462dda2b79f4b24f143f47cd9d2a05f73d04f6751ae077df9a9f2f16ad2",
      "transactionType": "CALL",
      "contractName": "Dictionary",
      "contractAddress": "0x40af4fb3c5a7299977f7dd5a442435bd6a520fbc",
      "function": "setImplementation(bytes4,address)",
      "arguments": [
        "0x2b7efac100000000000000000000000000000000000000000000000000000000",
        "0xa1A66287e75C8862cEEa03C71A1fD9D5B2445F64"
      ],
      "transaction": {
        "from": "0xf39fd6e51aad88f6f4ce6ab8827279cfffb92266",
        "to": "0x40af4fb3c5a7299977f7dd5a442435bd6a520fbc",
        "gas": "0x19ebe",
        "value": "0x0",
        "input": "0x0815f6fd2b7efac100000000000000000000000000000000000000000000000000000000000000000000000000000000a1a66287e75c8862ceea03c71a1fd9d5b2445f64",
        "nonce": "0x211b",
        "chainId": "0xaa36a7"
      },
      "additionalContracts": [],
      "isFixedGasLimit": false
    },
    {
      "hash": "0x8c9c11a70d4e7f85b56586ae538cde5b20b684753eb6f77dac965a950a93ff43",
      "transactionType": "CALL",
      "contractName": "Dictionary",
      "contractAddress": "0x40af4fb3c5a7299977f7dd5a442435bd6a520fbc",
      "function": "setImplementation(bytes4,address)",
      "arguments": [
        "0xab3545e500000000000000000000000000000000000000000000000000000000",
        "0xa1A66287e75C8862cEEa03C71A1fD9D5B2445F64"
      ],
      "transaction": {
        "from": "0xf39fd6e51aad88f6f4ce6ab8827279cfffb92266",
        "to": "0x40af4fb3c5a7299977f7dd5a442435bd6a520fbc",
        "gas": "0x1a209",
        "value": "0x0",
        "input": "0x0815f6fdab3545e500000000000000000000000000000000000000000000000000000000000000000000000000000000a1a66287e75c8862ceea03c71a1fd9d5b2445f64",
        "nonce": "0x211c",
        "chainId": "0xaa36a7"
      },
      "additionalContracts": [],
      "isFixedGasLimit": false
    },
    {
      "hash": "0x61796bfc529fba5a714cab36ee95fc5c02f31c9e5decdfd524027e77ec83c739",
      "transactionType": "CALL",
      "contractName": "Dictionary",
      "contractAddress": "0x40af4fb3c5a7299977f7dd5a442435bd6a520fbc",
      "function": "setImplementation(bytes4,address)",
      "arguments": [
        "0xcb37be9e00000000000000000000000000000000000000000000000000000000",
        "0xa1A66287e75C8862cEEa03C71A1fD9D5B2445F64"
      ],
      "transaction": {
        "from": "0xf39fd6e51aad88f6f4ce6ab8827279cfffb92266",
        "to": "0x40af4fb3c5a7299977f7dd5a442435bd6a520fbc",
        "gas": "0x1be1d",
        "value": "0x0",
        "input": "0x0815f6fdcb37be9e00000000000000000000000000000000000000000000000000000000000000000000000000000000a1a66287e75c8862ceea03c71a1fd9d5b2445f64",
        "nonce": "0x211d",
        "chainId": "0xaa36a7"
      },
      "additionalContracts": [],
      "isFixedGasLimit": false
    },
    {
      "hash": "0x6dce55193d53a4236065b51482fd0d1008bbcf29f768132f24a2e338a05e73de",
      "transactionType": "CALL",
      "contractName": "Dictionary",
      "contractAddress": "0x40af4fb3c5a7299977f7dd5a442435bd6a520fbc",
      "function": "setImplementation(bytes4,address)",
      "arguments": [
        "0xc1e582ba00000000000000000000000000000000000000000000000000000000",
        "0xa1A66287e75C8862cEEa03C71A1fD9D5B2445F64"
      ],
      "transaction": {
        "from": "0xf39fd6e51aad88f6f4ce6ab8827279cfffb92266",
        "to": "0x40af4fb3c5a7299977f7dd5a442435bd6a520fbc",
        "gas": "0x1c198",
        "value": "0x0",
        "input": "0x0815f6fdc1e582ba00000000000000000000000000000000000000000000000000000000000000000000000000000000a1a66287e75c8862ceea03c71a1fd9d5b2445f64",
        "nonce": "0x211e",
        "chainId": "0xaa36a7"
      },
      "additionalContracts": [],
      "isFixedGasLimit": false
    },
    {
      "hash": "0x150251c819cc5d875992852d4fe2ab6f15da61a623a70f8551a97f6a2714180f",
      "transactionType": "CALL",
      "contractName": "Dictionary",
      "contractAddress": "0x40af4fb3c5a7299977f7dd5a442435bd6a520fbc",
      "function": "setImplementation(bytes4,address)",
      "arguments": [
        "0x2a2c16a000000000000000000000000000000000000000000000000000000000",
        "0xa1A66287e75C8862cEEa03C71A1fD9D5B2445F64"
      ],
      "transaction": {
        "from": "0xf39fd6e51aad88f6f4ce6ab8827279cfffb92266",
        "to": "0x40af4fb3c5a7299977f7dd5a442435bd6a520fbc",
        "gas": "0x1abe8",
        "value": "0x0",
        "input": "0x0815f6fd2a2c16a000000000000000000000000000000000000000000000000000000000000000000000000000000000a1a66287e75c8862ceea03c71a1fd9d5b2445f64",
        "nonce": "0x211f",
        "chainId": "0xaa36a7"
      },
      "additionalContracts": [],
      "isFixedGasLimit": false
    },
    {
      "hash": "0xe51c02af83889926462b999181cc0ae31f84f654214a86ab3834ea29c445680e",
      "transactionType": "CALL",
      "contractName": "Dictionary",
      "contractAddress": "0x40af4fb3c5a7299977f7dd5a442435bd6a520fbc",
      "function": "setImplementation(bytes4,address)",
      "arguments": [
        "0xde3d9fb700000000000000000000000000000000000000000000000000000000",
        "0xa1A66287e75C8862cEEa03C71A1fD9D5B2445F64"
      ],
      "transaction": {
        "from": "0xf39fd6e51aad88f6f4ce6ab8827279cfffb92266",
        "to": "0x40af4fb3c5a7299977f7dd5a442435bd6a520fbc",
        "gas": "0x1af32",
        "value": "0x0",
        "input": "0x0815f6fdde3d9fb700000000000000000000000000000000000000000000000000000000000000000000000000000000a1a66287e75c8862ceea03c71a1fd9d5b2445f64",
        "nonce": "0x2120",
        "chainId": "0xaa36a7"
      },
      "additionalContracts": [],
      "isFixedGasLimit": false
    },
    {
      "hash": "0xa851c95d23673d228f62cfe756104a06c6fce1e2034cb5aafb82f1fd24130f4e",
      "transactionType": "CALL",
      "contractName": "Dictionary",
      "contractAddress": "0x40af4fb3c5a7299977f7dd5a442435bd6a520fbc",
      "function": "setImplementation(bytes4,address)",
      "arguments": [
        "0x9a5ea6a000000000000000000000000000000000000000000000000000000000",
        "0xa1A66287e75C8862cEEa03C71A1fD9D5B2445F64"
      ],
      "transaction": {
        "from": "0xf39fd6e51aad88f6f4ce6ab8827279cfffb92266",
        "to": "0x40af4fb3c5a7299977f7dd5a442435bd6a520fbc",
        "gas": "0x238e1",
        "value": "0x0",
        "input": "0x0815f6fd9a5ea6a000000000000000000000000000000000000000000000000000000000000000000000000000000000a1a66287e75c8862ceea03c71a1fd9d5b2445f64",
        "nonce": "0x2121",
        "chainId": "0xaa36a7"
      },
      "additionalContracts": [],
      "isFixedGasLimit": false
    },
    {
      "hash": "0xeff364f2f5733de516d772fc05728f3bf500b479395e79216854a9765f5dcee2",
      "transactionType": "CALL",
      "contractName": "Dictionary",
      "contractAddress": "0x40af4fb3c5a7299977f7dd5a442435bd6a520fbc",
      "function": "setImplementation(bytes4,address)",
      "arguments": [
        "0x25be10bd00000000000000000000000000000000000000000000000000000000",
        "0xa1A66287e75C8862cEEa03C71A1fD9D5B2445F64"
      ],
      "transaction": {
        "from": "0xf39fd6e51aad88f6f4ce6ab8827279cfffb92266",
        "to": "0x40af4fb3c5a7299977f7dd5a442435bd6a520fbc",
        "gas": "0x1daad",
        "value": "0x0",
        "input": "0x0815f6fd25be10bd00000000000000000000000000000000000000000000000000000000000000000000000000000000a1a66287e75c8862ceea03c71a1fd9d5b2445f64",
        "nonce": "0x2122",
        "chainId": "0xaa36a7"
      },
      "additionalContracts": [],
      "isFixedGasLimit": false
    },
    {
      "hash": "0xb4f035fc72787434192c11341affeaad5f405100af5de461e414e68ce9d4e8b7",
      "transactionType": "CALL",
      "contractName": "Dictionary",
      "contractAddress": "0x40af4fb3c5a7299977f7dd5a442435bd6a520fbc",
      "function": "upgradeFacade(address)",
      "arguments": [
        "0xbFf93E345a83D66aC6fCaaa9A7869172A443efa2"
      ],
      "transaction": {
        "from": "0xf39fd6e51aad88f6f4ce6ab8827279cfffb92266",
        "to": "0x40af4fb3c5a7299977f7dd5a442435bd6a520fbc",
        "gas": "0x10dbe",
        "value": "0x0",
        "input": "0x651dc03d000000000000000000000000bff93e345a83d66ac6fcaaa9a7869172a443efa2",
        "nonce": "0x2123",
        "chainId": "0xaa36a7"
      },
      "additionalContracts": [],
      "isFixedGasLimit": false
    },
    {
      "hash": "0x3ddce2aec521c10260acf4fc344066d2e7b846c57dee406d12aab1881b6ff7f9",
      "transactionType": "CREATE",
      "contractName": null,
      "contractAddress": "0xc77427793e32517830568969539d03e6290ccd22",
      "function": null,
      "arguments": null,
      "transaction": {
        "from": "0xf39fd6e51aad88f6f4ce6ab8827279cfffb92266",
        "gas": "0x3dd06",
        "value": "0x0",
        "input": "0x60806040526040516105e03803806105e08339810160408190526100229161034b565b61002c828261003c565b6100358261011c565b5050610479565b61004582610160565b6040516001600160a01b03831681527fa657f2ad315cf3bb35cf1964158da75c3f334481df05a4a1644b2376b17a59b29060200160405180910390a18051156101105761010b6001600160a01b03831663dc9cc6456100a38461040b565b6040516001600160e01b031960e084901b81168252919091166004820152602401602060405180830381865afa1580156100e1573d6000803e3d6000fd5b505050506040513d601f19601f820116820180604052508101906101059190610442565b826101d5565b505050565b61011861024c565b5050565b807fa3f0ad74e5423aebfd80d3ef4346578335a9a72aeaee59ff6cb3582b35133d505b80546001600160a01b0319166001600160a01b039290921691909117905550565b806001600160a01b03163b6000036101ae5760405162461bcd60e51b815260206004820152600c60248201526b1393d397d0d3d395149050d560a21b60448201526064015b60405180910390fd5b807f267691be3525af8a813d30db0c9e2bad08f63baecf6dceb85e2cf3676cff56f461013f565b6060600080846001600160a01b0316846040516101f2919061045d565b600060405180830381855af49150503d806000811461022d576040519150601f19603f3d011682016040523d82523d6000602084013e610232565b606091505b50909250905061024385838361026d565b95945050505050565b341561026b5760405163b398979f60e01b815260040160405180910390fd5b565b6060826102825761027d826102cc565b6102c5565b815115801561029957506001600160a01b0384163b155b156102c257604051639996b31560e01b81526001600160a01b03851660048201526024016101a5565b50805b9392505050565b8051156102dc5780518082602001fd5b604051630a12f52160e11b815260040160405180910390fd5b80516001600160a01b038116811461030c57600080fd5b919050565b634e487b7160e01b600052604160045260246000fd5b60005b8381101561034257818101518382015260200161032a565b50506000910152565b6000806040838503121561035e57600080fd5b610367836102f5565b60208401519092506001600160401b038082111561038457600080fd5b818501915085601f83011261039857600080fd5b8151818111156103aa576103aa610311565b604051601f8201601f19908116603f011681019083821181831017156103d2576103d2610311565b816040528281528860208487010111156103eb57600080fd5b6103fc836020830160208801610327565b80955050505050509250929050565b805160208201516001600160e01b0319808216929190600483101561043a5780818460040360031b1b83161693505b505050919050565b60006020828403121561045457600080fd5b6102c5826102f5565b6000825161046f818460208701610327565b9190910192915050565b610158806104886000396000f3fe608060405261000c61000e565b005b61001e610019610020565b6100ce565b565b60006100537f267691be3525af8a813d30db0c9e2bad08f63baecf6dceb85e2cf3676cff56f4546001600160a01b031690565b60405163dc9cc64560e01b81526001600160e01b03196000351660048201526001600160a01b03919091169063dc9cc64590602401602060405180830381865afa1580156100a5573d6000803e3d6000fd5b505050506040513d601f19601f820116820180604052508101906100c991906100f2565b905090565b3660008037600080366000845af43d6000803e8080156100ed573d6000f35b3d6000fd5b60006020828403121561010457600080fd5b81516001600160a01b038116811461011b57600080fd5b939250505056fea26469706673582212208809a6c555e27c2ae43ead3718098f2c2814da97cba040aac468c4b698d63ee164736f6c6343000819003300000000000000000000000040af4fb3c5a7299977f7dd5a442435bd6a520fbc00000000000000000000000000000000000000000000000000000000000000400000000000000000000000000000000000000000000000000000000000000000",
        "nonce": "0x2124",
        "chainId": "0xaa36a7"
      },
      "additionalContracts": [],
      "isFixedGasLimit": false
    }
  ],
  "receipts": [
    {
      "status": "0x1",
      "cumulativeGasUsed": "0x64e86",
      "logs": [],
      "logsBloom": "0x00000000000000000000000000000000000000000000000000000000000000000000000000000000000000000000000000000000000000000000000000000000000000000000000000000000000000000000000000000000000000000000000000000000000000000000000000000000000000000000000000000000000000000000000000000000000000000000000000000000000000000000000000000000000000000000000000000000000000000000000000000000000000000000000000000000000000000000000000000000000000000000000000000000000000000000000000000000000000000000000000000000000000000000000000000000",
      "type": "0x0",
      "transactionHash": "0x5b6a6042065e62694472c81ca12e38843bd9e85d505b43f567e4f053afdfab12",
      "transactionIndex": "0x0",
      "blockHash": "0xb81abe2a6716772661b1883abc1e31ebf7077398e19c7fb6dfd5f5be7e845072",
      "blockNumber": "0x5d395d",
      "gasUsed": "0x64e86",
      "effectiveGasPrice": "0x3b9aca0c",
      "blobGasPrice": "0x3925f50e6e",
      "from": "0xf39fd6e51aad88f6f4ce6ab8827279cfffb92266",
      "to": null,
      "contractAddress": "0x1202ce1492afedb32a7d82e98f6ab034fadc682d",
      "root": "0x0000000000000000000000000000000000000000000000000000000000000000"
    },
    {
      "status": "0x1",
      "cumulativeGasUsed": "0x7d289",
      "logs": [],
      "logsBloom": "0x00000000000000000000000000000000000000000000000000000000000000000000000000000000000000000000000000000000000000000000000000000000000000000000000000000000000000000000000000000000000000000000000000000000000000000000000000000000000000000000000000000000000000000000000000000000000000000000000000000000000000000000000000000000000000000000000000000000000000000000000000000000000000000000000000000000000000000000000000000000000000000000000000000000000000000000000000000000000000000000000000000000000000000000000000000000",
      "type": "0x0",
      "transactionHash": "0x1561f87faa2ba205f782e7a470a9390acf61b1a1e7d4d73313270af790335ae0",
      "transactionIndex": "0x0",
      "blockHash": "0x78f91fafc0edbb2626a2209858ebada125d42d3c75bc08dfda0526bb07e6c09b",
      "blockNumber": "0x5d395e",
      "gasUsed": "0x7d289",
      "effectiveGasPrice": "0x3b9aca0c",
      "blobGasPrice": "0x32cc680154",
      "from": "0xf39fd6e51aad88f6f4ce6ab8827279cfffb92266",
      "to": null,
      "contractAddress": "0x805428d905123dc1df3de6700f683611b2de1341",
      "root": "0x0000000000000000000000000000000000000000000000000000000000000000"
    },
    {
      "status": "0x1",
      "cumulativeGasUsed": "0xbb533",
      "logs": [],
      "logsBloom": "0x00000000000000000000000000000000000000000000000000000000000000000000000000000000000000000000000000000000000000000000000000000000000000000000000000000000000000000000000000000000000000000000000000000000000000000000000000000000000000000000000000000000000000000000000000000000000000000000000000000000000000000000000000000000000000000000000000000000000000000000000000000000000000000000000000000000000000000000000000000000000000000000000000000000000000000000000000000000000000000000000000000000000000000000000000000000",
      "type": "0x0",
      "transactionHash": "0xc8bb3e0c255e6ae20ed5d4fdf6893842ab4e164ac6cc17b3d96129ca6c3ef358",
      "transactionIndex": "0x1",
      "blockHash": "0x78f91fafc0edbb2626a2209858ebada125d42d3c75bc08dfda0526bb07e6c09b",
      "blockNumber": "0x5d395e",
      "gasUsed": "0x3e2aa",
      "effectiveGasPrice": "0x3b9aca0c",
      "blobGasPrice": "0x32cc680154",
      "from": "0xf39fd6e51aad88f6f4ce6ab8827279cfffb92266",
      "to": null,
      "contractAddress": "0xea9cb5f8569686fb7567c34b27015b0bdcf60e9e",
      "root": "0x0000000000000000000000000000000000000000000000000000000000000000"
    },
    {
      "status": "0x1",
      "cumulativeGasUsed": "0x188385",
      "logs": [],
      "logsBloom": "0x00000000000000000000000000000000000000000000000000000000000000000000000000000000000000000000000000000000000000000000000000000000000000000000000000000000000000000000000000000000000000000000000000000000000000000000000000000000000000000000000000000000000000000000000000000000000000000000000000000000000000000000000000000000000000000000000000000000000000000000000000000000000000000000000000000000000000000000000000000000000000000000000000000000000000000000000000000000000000000000000000000000000000000000000000000000",
      "type": "0x0",
      "transactionHash": "0x638cfe671a08924c79ebf301904a68901ea7536c095c205fa1d8e95cf6ded581",
      "transactionIndex": "0x2",
      "blockHash": "0x78f91fafc0edbb2626a2209858ebada125d42d3c75bc08dfda0526bb07e6c09b",
      "blockNumber": "0x5d395e",
      "gasUsed": "0xcce52",
      "effectiveGasPrice": "0x3b9aca0c",
      "blobGasPrice": "0x32cc680154",
      "from": "0xf39fd6e51aad88f6f4ce6ab8827279cfffb92266",
      "to": null,
      "contractAddress": "0xae74d448a9f3f587cd4addf75b1b457a6efebd1f",
      "root": "0x0000000000000000000000000000000000000000000000000000000000000000"
    },
    {
      "status": "0x1",
      "cumulativeGasUsed": "0x2029e2",
      "logs": [],
      "logsBloom": "0x00000000000000000000000000000000000000000000000000000000000000000000000000000000000000000000000000000000000000000000000000000000000000000000000000000000000000000000000000000000000000000000000000000000000000000000000000000000000000000000000000000000000000000000000000000000000000000000000000000000000000000000000000000000000000000000000000000000000000000000000000000000000000000000000000000000000000000000000000000000000000000000000000000000000000000000000000000000000000000000000000000000000000000000000000000000",
      "type": "0x0",
      "transactionHash": "0x487259ee9cb5debfeea8c5e345c42e4bcb637e5c52c1f99b9e5c0d1bf10fa7b7",
      "transactionIndex": "0x3",
      "blockHash": "0x78f91fafc0edbb2626a2209858ebada125d42d3c75bc08dfda0526bb07e6c09b",
      "blockNumber": "0x5d395e",
      "gasUsed": "0x7a65d",
      "effectiveGasPrice": "0x3b9aca0c",
      "blobGasPrice": "0x32cc680154",
      "from": "0xf39fd6e51aad88f6f4ce6ab8827279cfffb92266",
      "to": null,
      "contractAddress": "0x1d3278105350102d64fade46dfa4ac183dac2967",
      "root": "0x0000000000000000000000000000000000000000000000000000000000000000"
    },
    {
      "status": "0x1",
      "cumulativeGasUsed": "0x366c58",
      "logs": [],
      "logsBloom": "0x00000000000000000000000000000000000000000000000000000000000000000000000000000000000000000000000000000000000000000000000000000000000000000000000000000000000000000000000000000000000000000000000000000000000000000000000000000000000000000000000000000000000000000000000000000000000000000000000000000000000000000000000000000000000000000000000000000000000000000000000000000000000000000000000000000000000000000000000000000000000000000000000000000000000000000000000000000000000000000000000000000000000000000000000000000000",
      "type": "0x0",
      "transactionHash": "0xeec4c64e7519e359323681b321f9930731806b8dd44f149442817a35b1595027",
      "transactionIndex": "0x4",
      "blockHash": "0x78f91fafc0edbb2626a2209858ebada125d42d3c75bc08dfda0526bb07e6c09b",
      "blockNumber": "0x5d395e",
      "gasUsed": "0x164276",
      "effectiveGasPrice": "0x3b9aca0c",
      "blobGasPrice": "0x32cc680154",
      "from": "0xf39fd6e51aad88f6f4ce6ab8827279cfffb92266",
      "to": null,
      "contractAddress": "0x9878c977ff386f2fd8bf182cc62e87657631b4c9",
      "root": "0x0000000000000000000000000000000000000000000000000000000000000000"
    },
    {
      "status": "0x1",
      "cumulativeGasUsed": "0x401a8b",
      "logs": [],
      "logsBloom": "0x00000000000000000000000000000000000000000000000000000000000000000000000000000000000000000000000000000000000000000000000000000000000000000000000000000000000000000000000000000000000000000000000000000000000000000000000000000000000000000000000000000000000000000000000000000000000000000000000000000000000000000000000000000000000000000000000000000000000000000000000000000000000000000000000000000000000000000000000000000000000000000000000000000000000000000000000000000000000000000000000000000000000000000000000000000000",
      "type": "0x0",
      "transactionHash": "0x6d3568921e76ce1711924e15469c9b51b6622c9d7b58ab9bb17867cd6c4eafa9",
      "transactionIndex": "0x5",
      "blockHash": "0x78f91fafc0edbb2626a2209858ebada125d42d3c75bc08dfda0526bb07e6c09b",
      "blockNumber": "0x5d395e",
      "gasUsed": "0x9ae33",
      "effectiveGasPrice": "0x3b9aca0c",
      "blobGasPrice": "0x32cc680154",
      "from": "0xf39fd6e51aad88f6f4ce6ab8827279cfffb92266",
      "to": null,
      "contractAddress": "0x88f41fb05634615e2d3ae489773ff4ca82804bbb",
      "root": "0x0000000000000000000000000000000000000000000000000000000000000000"
    },
    {
      "status": "0x1",
      "cumulativeGasUsed": "0x449c88",
      "logs": [],
      "logsBloom": "0x00000000000000000000000000000000000000000000000000000000000000000000000000000000000000000000000000000000000000000000000000000000000000000000000000000000000000000000000000000000000000000000000000000000000000000000000000000000000000000000000000000000000000000000000000000000000000000000000000000000000000000000000000000000000000000000000000000000000000000000000000000000000000000000000000000000000000000000000000000000000000000000000000000000000000000000000000000000000000000000000000000000000000000000000000000000",
      "type": "0x0",
      "transactionHash": "0x8e3c327d89aacbbcdfd1c4ebc8c39bc88d09f78214756868aa3a0881aba7c9e0",
      "transactionIndex": "0x6",
      "blockHash": "0x78f91fafc0edbb2626a2209858ebada125d42d3c75bc08dfda0526bb07e6c09b",
      "blockNumber": "0x5d395e",
      "gasUsed": "0x481fd",
      "effectiveGasPrice": "0x3b9aca0c",
      "blobGasPrice": "0x32cc680154",
      "from": "0xf39fd6e51aad88f6f4ce6ab8827279cfffb92266",
      "to": null,
      "contractAddress": "0xc9b81022130932b862c9434c5cef43d9509a697e",
      "root": "0x0000000000000000000000000000000000000000000000000000000000000000"
    },
    {
      "status": "0x1",
      "cumulativeGasUsed": "0x80a7a",
      "logs": [],
      "logsBloom": "0x00000000000000000000000000000000000000000000000000000000000000000000000000000000000000000000000000000000000000000000000000000000000000000000000000000000000000000000000000000000000000000000000000000000000000000000000000000000000000000000000000000000000000000000000000000000000000000000000000000000000000000000000000000000000000000000000000000000000000000000000000000000000000000000000000000000000000000000000000000000000000000000000000000000000000000000000000000000000000000000000000000000000000000000000000000000",
      "type": "0x0",
      "transactionHash": "0xf981b94367172c2a53e269740737e87834549b3bbec3da2f58ff9c174c93d7d1",
      "transactionIndex": "0x0",
      "blockHash": "0x4f6757f8230da5a08cbec39d373604baa7b9d5162ece21084a485d25e4881d21",
      "blockNumber": "0x5d395f",
      "gasUsed": "0x80a7a",
      "effectiveGasPrice": "0x3b9aca0c",
      "blobGasPrice": "0x2d2778da6c",
      "from": "0xf39fd6e51aad88f6f4ce6ab8827279cfffb92266",
      "to": null,
      "contractAddress": "0x08b3dce948189047a946a516966ed406a748782b",
      "root": "0x0000000000000000000000000000000000000000000000000000000000000000"
    },
    {
      "status": "0x1",
      "cumulativeGasUsed": "0xadbd7",
      "logs": [],
      "logsBloom": "0x00000000000000000000000000000000000000000000000000000000000000000000000000000000000000000000000000000000000000000000000000000000000000000000000000000000000000000000000000000000000000000000000000000000000000000000000000000000000000000000000000000000000000000000000000000000000000000000000000000000000000000000000000000000000000000000000000000000000000000000000000000000000000000000000000000000000000000000000000000000000000000000000000000000000000000000000000000000000000000000000000000000000000000000000000000000",
      "type": "0x0",
      "transactionHash": "0x095371a97aa2216e75ccc8c636e214d2223735b8b6055aa569ebf3863f4335b0",
      "transactionIndex": "0x1",
      "blockHash": "0x4f6757f8230da5a08cbec39d373604baa7b9d5162ece21084a485d25e4881d21",
      "blockNumber": "0x5d395f",
      "gasUsed": "0x2d15d",
      "effectiveGasPrice": "0x3b9aca0c",
      "blobGasPrice": "0x2d2778da6c",
      "from": "0xf39fd6e51aad88f6f4ce6ab8827279cfffb92266",
      "to": null,
      "contractAddress": "0x180593c150f916831aedb9e60be689d304456286",
      "root": "0x0000000000000000000000000000000000000000000000000000000000000000"
    },
    {
      "status": "0x1",
      "cumulativeGasUsed": "0x3d02a",
      "logs": [],
      "logsBloom": "0x00000000000000000000000000000000000000000000000000000000000000000000000000000000000000000000000000000000000000000000000000000000000000000000000000000000000000000000000000000000000000000000000000000000000000000000000000000000000000000000000000000000000000000000000000000000000000000000000000000000000000000000000000000000000000000000000000000000000000000000000000000000000000000000000000000000000000000000000000000000000000000000000000000000000000000000000000000000000000000000000000000000000000000000000000000000",
      "type": "0x0",
      "transactionHash": "0xc911a10363183f6f4c04f0ce699ee43fe18b73fee7d23fc8e07c46822c7e33ff",
      "transactionIndex": "0x0",
      "blockHash": "0x97aa5b1022a4e666ce3d9ca53283907d8eead16d9d0ce53c4e2bd215b5a1dfe6",
      "blockNumber": "0x5d3960",
      "gasUsed": "0x3d02a",
      "effectiveGasPrice": "0x3b9aca0c",
      "blobGasPrice": "0x2823160edc",
      "from": "0xf39fd6e51aad88f6f4ce6ab8827279cfffb92266",
      "to": null,
      "contractAddress": "0x9507a39e0f069feefa033c42eae0820559fe5c67",
      "root": "0x0000000000000000000000000000000000000000000000000000000000000000"
    },
    {
      "status": "0x1",
      "cumulativeGasUsed": "0x122ba3",
      "logs": [],
      "logsBloom": "0x00000000000000000000000000000000000000000000000000000000000000000000000000000000000000000000000000000000000000000000000000000000000000000000000000000000000000000000000000000000000000000000000000000000000000000000000000000000000000000000000000000000000000000000000000000000000000000000000000000000000000000000000000000000000000000000000000000000000000000000000000000000000000000000000000000000000000000000000000000000000000000000000000000000000000000000000000000000000000000000000000000000000000000000000000000000",
      "type": "0x0",
      "transactionHash": "0x3bfe66c3c61828636476176bc3dde551c2c7a20af2a143d42e37c4cda66e7d66",
      "transactionIndex": "0x1",
      "blockHash": "0x97aa5b1022a4e666ce3d9ca53283907d8eead16d9d0ce53c4e2bd215b5a1dfe6",
      "blockNumber": "0x5d3960",
      "gasUsed": "0xe5b79",
      "effectiveGasPrice": "0x3b9aca0c",
      "blobGasPrice": "0x2823160edc",
      "from": "0xf39fd6e51aad88f6f4ce6ab8827279cfffb92266",
      "to": null,
      "contractAddress": "0xa1a66287e75c8862ceea03c71a1fd9d5b2445f64",
      "root": "0x0000000000000000000000000000000000000000000000000000000000000000"
    },
    {
      "status": "0x1",
      "cumulativeGasUsed": "0x1ccc55",
      "logs": [],
      "logsBloom": "0x00000000000000000000000000000000000000000000000000000000000000000000000000000000000000000000000000000000000000000000000000000000000000000000000000000000000000000000000000000000000000000000000000000000000000000000000000000000000000000000000000000000000000000000000000000000000000000000000000000000000000000000000000000000000000000000000000000000000000000000000000000000000000000000000000000000000000000000000000000000000000000000000000000000000000000000000000000000000000000000000000000000000000000000000000000000",
      "type": "0x0",
      "transactionHash": "0x6a97e590fdc2908aeda90d77dfc03b26a350ad5f735528db6db04ddcd5b23f29",
      "transactionIndex": "0x2",
      "blockHash": "0x97aa5b1022a4e666ce3d9ca53283907d8eead16d9d0ce53c4e2bd215b5a1dfe6",
      "blockNumber": "0x5d3960",
      "gasUsed": "0xaa0b2",
      "effectiveGasPrice": "0x3b9aca0c",
      "blobGasPrice": "0x2823160edc",
      "from": "0xf39fd6e51aad88f6f4ce6ab8827279cfffb92266",
      "to": null,
      "contractAddress": "0xbff93e345a83d66ac6fcaaa9a7869172a443efa2",
      "root": "0x0000000000000000000000000000000000000000000000000000000000000000"
    },
    {
      "status": "0x1",
      "cumulativeGasUsed": "0x24db8d",
      "logs": [
        {
          "address": "0x40af4fb3c5a7299977f7dd5a442435bd6a520fbc",
          "topics": [
            "0x8be0079c531659141344cd1fd0a4f28419497f9722a3daafe3b4186f6b6457e0",
            "0x0000000000000000000000000000000000000000000000000000000000000000",
            "0x000000000000000000000000f39fd6e51aad88f6f4ce6ab8827279cfffb92266"
          ],
          "data": "0x",
          "blockHash": "0x97aa5b1022a4e666ce3d9ca53283907d8eead16d9d0ce53c4e2bd215b5a1dfe6",
          "blockNumber": "0x5d3960",
          "blockTimestamp": "0x666cdde0",
          "transactionHash": "0xab15a8c5cfda883db86b1308f9262a8f03f8d6ce4ca49ac5dcb070ec6640d561",
          "transactionIndex": "0x3",
          "logIndex": "0x0",
          "removed": false
        }
      ],
      "logsBloom": "0x00000000000000002000000000000000000000000000000000800000000000000000000000000000000000000000000000000000000000000000000000000000000000000000000000000020000000000001000000000000000000000000000000000000020000000000000100004800000000000000000000000000000000400000000000000000000000000000000000000000000000000000000000000000000000000000000000000000000000000000000000000000000000000000000000000000000000200000000000000000000000002000000000000000000020000000000000000000000000000000000000000000000000000000000000000000",
      "type": "0x0",
      "transactionHash": "0xab15a8c5cfda883db86b1308f9262a8f03f8d6ce4ca49ac5dcb070ec6640d561",
      "transactionIndex": "0x3",
      "blockHash": "0x97aa5b1022a4e666ce3d9ca53283907d8eead16d9d0ce53c4e2bd215b5a1dfe6",
      "blockNumber": "0x5d3960",
      "gasUsed": "0x80f38",
      "effectiveGasPrice": "0x3b9aca0c",
      "blobGasPrice": "0x2823160edc",
      "from": "0xf39fd6e51aad88f6f4ce6ab8827279cfffb92266",
      "to": null,
      "contractAddress": "0x40af4fb3c5a7299977f7dd5a442435bd6a520fbc",
      "root": "0x0000000000000000000000000000000000000000000000000000000000000000"
    },
    {
      "status": "0x1",
      "cumulativeGasUsed": "0x26534a",
      "logs": [
        {
          "address": "0x40af4fb3c5a7299977f7dd5a442435bd6a520fbc",
          "topics": [
            "0xbe533f538959a17d76f1b09e966e741ee3b1183099682f96216c93d21feaecba"
          ],
          "data": "0x8ca89f7700000000000000000000000000000000000000000000000000000000",
          "blockHash": "0x97aa5b1022a4e666ce3d9ca53283907d8eead16d9d0ce53c4e2bd215b5a1dfe6",
          "blockNumber": "0x5d3960",
          "blockTimestamp": "0x666cdde0",
          "transactionHash": "0xc827c7369702c5c4f6cb152534565a6d63281e6146128ecde436925098116e28",
          "transactionIndex": "0x4",
          "logIndex": "0x1",
          "removed": false
        },
        {
          "address": "0x40af4fb3c5a7299977f7dd5a442435bd6a520fbc",
          "topics": [
            "0xda3c8142b3c1d27633026f55bfcb4eeb0b5b8db0daa0a3e10c2213a441722ad1"
          ],
          "data": "0x8ca89f7700000000000000000000000000000000000000000000000000000000000000000000000000000000805428d905123dc1df3de6700f683611b2de1341",
          "blockHash": "0x97aa5b1022a4e666ce3d9ca53283907d8eead16d9d0ce53c4e2bd215b5a1dfe6",
          "blockNumber": "0x5d3960",
          "blockTimestamp": "0x666cdde0",
          "transactionHash": "0xc827c7369702c5c4f6cb152534565a6d63281e6146128ecde436925098116e28",
          "transactionIndex": "0x4",
          "logIndex": "0x2",
          "removed": false
        }
      ],
      "logsBloom": "0x00000000000000002000000000000000000000000000000000000000000000080000000000000000000000000000000000000000000000000000000000000000000000000000000000000020000000000000000000000000000000000000000000000000000000000000200000004000000000000000000010000000000000000000000000000000000000000000100000000000000000000000000000000000000000000000000000004000080000000000000000000000000000000000000000000000000000000000000000000000000000000000000000000000000000000000000000000000000000000000000000000000000000000000000000000000",
      "type": "0x0",
      "transactionHash": "0xc827c7369702c5c4f6cb152534565a6d63281e6146128ecde436925098116e28",
      "transactionIndex": "0x4",
      "blockHash": "0x97aa5b1022a4e666ce3d9ca53283907d8eead16d9d0ce53c4e2bd215b5a1dfe6",
      "blockNumber": "0x5d3960",
      "gasUsed": "0x177bd",
      "effectiveGasPrice": "0x3b9aca0c",
      "blobGasPrice": "0x2823160edc",
      "from": "0xf39fd6e51aad88f6f4ce6ab8827279cfffb92266",
      "to": "0x40af4fb3c5a7299977f7dd5a442435bd6a520fbc",
      "contractAddress": null,
      "root": "0x0000000000000000000000000000000000000000000000000000000000000000"
    },
    {
      "status": "0x1",
      "cumulativeGasUsed": "0xf487",
      "logs": [
        {
          "address": "0x40af4fb3c5a7299977f7dd5a442435bd6a520fbc",
          "topics": [
            "0xbe533f538959a17d76f1b09e966e741ee3b1183099682f96216c93d21feaecba"
          ],
          "data": "0xdc1ec0e500000000000000000000000000000000000000000000000000000000",
          "blockHash": "0xa6a0ab29b1d2d3218954b56f5f31030358a01506bf9a19165489185d5836043a",
          "blockNumber": "0x5d3961",
          "blockTimestamp": "0x666cdde1",
          "transactionHash": "0xe546b48ee482f55d9c3a5065dc17026bdff1540749cac1c051d364734727d6b1",
          "transactionIndex": "0x0",
          "logIndex": "0x0",
          "removed": false
        },
        {
          "address": "0x40af4fb3c5a7299977f7dd5a442435bd6a520fbc",
          "topics": [
            "0xda3c8142b3c1d27633026f55bfcb4eeb0b5b8db0daa0a3e10c2213a441722ad1"
          ],
          "data": "0xdc1ec0e500000000000000000000000000000000000000000000000000000000000000000000000000000000ea9cb5f8569686fb7567c34b27015b0bdcf60e9e",
          "blockHash": "0xa6a0ab29b1d2d3218954b56f5f31030358a01506bf9a19165489185d5836043a",
          "blockNumber": "0x5d3961",
          "blockTimestamp": "0x666cdde1",
          "transactionHash": "0xe546b48ee482f55d9c3a5065dc17026bdff1540749cac1c051d364734727d6b1",
          "transactionIndex": "0x0",
          "logIndex": "0x1",
          "removed": false
        }
      ],
      "logsBloom": "0x00000000000000002000000000000000000000000000000000000000000000080000000000000000000000000000000000000000000000000000000000000000000000000000000000000020000000000000000000000000000000000000000000000000000000000000200000004000000000000000000010000000000000000000000000000000000000000000100000000000000000000000000000000000000000000000000000004000080000000000000000000000000000000000000000000000000000000000000000000000000000000000000000000000000000000000000000000000000000000000000000000000000000000000000000000000",
      "type": "0x0",
      "transactionHash": "0xe546b48ee482f55d9c3a5065dc17026bdff1540749cac1c051d364734727d6b1",
      "transactionIndex": "0x0",
      "blockHash": "0xa6a0ab29b1d2d3218954b56f5f31030358a01506bf9a19165489185d5836043a",
      "blockNumber": "0x5d3961",
      "gasUsed": "0xf487",
      "effectiveGasPrice": "0x3b9aca0c",
      "blobGasPrice": "0x23ad68e864",
      "from": "0xf39fd6e51aad88f6f4ce6ab8827279cfffb92266",
      "to": "0x40af4fb3c5a7299977f7dd5a442435bd6a520fbc",
      "contractAddress": null,
      "root": "0x0000000000000000000000000000000000000000000000000000000000000000"
    },
    {
      "status": "0x1",
      "cumulativeGasUsed": "0xf6e9",
      "logs": [
        {
          "address": "0x40af4fb3c5a7299977f7dd5a442435bd6a520fbc",
          "topics": [
            "0xbe533f538959a17d76f1b09e966e741ee3b1183099682f96216c93d21feaecba"
          ],
          "data": "0x9f46786e00000000000000000000000000000000000000000000000000000000",
          "blockHash": "0xe1c4f2df9e3815f9e8ae525304c0459ef4da15eaebccb14f5bc1c93aace48ffa",
          "blockNumber": "0x5d3962",
          "blockTimestamp": "0x666cdde2",
          "transactionHash": "0xa5a6215328381ccb1a254c8fea52f5b1ef50d515f19466dd4a87bec9bd916da6",
          "transactionIndex": "0x0",
          "logIndex": "0x0",
          "removed": false
        },
        {
          "address": "0x40af4fb3c5a7299977f7dd5a442435bd6a520fbc",
          "topics": [
            "0xda3c8142b3c1d27633026f55bfcb4eeb0b5b8db0daa0a3e10c2213a441722ad1"
          ],
          "data": "0x9f46786e00000000000000000000000000000000000000000000000000000000000000000000000000000000ae74d448a9f3f587cd4addf75b1b457a6efebd1f",
          "blockHash": "0xe1c4f2df9e3815f9e8ae525304c0459ef4da15eaebccb14f5bc1c93aace48ffa",
          "blockNumber": "0x5d3962",
          "blockTimestamp": "0x666cdde2",
          "transactionHash": "0xa5a6215328381ccb1a254c8fea52f5b1ef50d515f19466dd4a87bec9bd916da6",
          "transactionIndex": "0x0",
          "logIndex": "0x1",
          "removed": false
        }
      ],
      "logsBloom": "0x00000000000000002000000000000000000000000000000000000000000000080000000000000000000000000000000000000000000000000000000000000000000000000000000000000020000000000000000000000000000000000000000000000000000000000000200000004000000000000000000010000000000000000000000000000000000000000000100000000000000000000000000000000000000000000000000000004000080000000000000000000000000000000000000000000000000000000000000000000000000000000000000000000000000000000000000000000000000000000000000000000000000000000000000000000000",
      "type": "0x0",
      "transactionHash": "0xa5a6215328381ccb1a254c8fea52f5b1ef50d515f19466dd4a87bec9bd916da6",
      "transactionIndex": "0x0",
      "blockHash": "0xe1c4f2df9e3815f9e8ae525304c0459ef4da15eaebccb14f5bc1c93aace48ffa",
      "blockNumber": "0x5d3962",
      "gasUsed": "0xf6e9",
      "effectiveGasPrice": "0x3b9aca0c",
      "blobGasPrice": "0x1fb6961ce7",
      "from": "0xf39fd6e51aad88f6f4ce6ab8827279cfffb92266",
      "to": "0x40af4fb3c5a7299977f7dd5a442435bd6a520fbc",
      "contractAddress": null,
      "root": "0x0000000000000000000000000000000000000000000000000000000000000000"
    },
    {
      "status": "0x1",
      "cumulativeGasUsed": "0x1f034",
      "logs": [
        {
          "address": "0x40af4fb3c5a7299977f7dd5a442435bd6a520fbc",
          "topics": [
            "0xbe533f538959a17d76f1b09e966e741ee3b1183099682f96216c93d21feaecba"
          ],
          "data": "0x603d9eb700000000000000000000000000000000000000000000000000000000",
          "blockHash": "0xe1c4f2df9e3815f9e8ae525304c0459ef4da15eaebccb14f5bc1c93aace48ffa",
          "blockNumber": "0x5d3962",
          "blockTimestamp": "0x666cdde2",
          "transactionHash": "0x89da6528165357c10c6984f33f3e0ded5f91589382a106c299f70c49106be63e",
          "transactionIndex": "0x1",
          "logIndex": "0x2",
          "removed": false
        },
        {
          "address": "0x40af4fb3c5a7299977f7dd5a442435bd6a520fbc",
          "topics": [
            "0xda3c8142b3c1d27633026f55bfcb4eeb0b5b8db0daa0a3e10c2213a441722ad1"
          ],
          "data": "0x603d9eb7000000000000000000000000000000000000000000000000000000000000000000000000000000001d3278105350102d64fade46dfa4ac183dac2967",
          "blockHash": "0xe1c4f2df9e3815f9e8ae525304c0459ef4da15eaebccb14f5bc1c93aace48ffa",
          "blockNumber": "0x5d3962",
          "blockTimestamp": "0x666cdde2",
          "transactionHash": "0x89da6528165357c10c6984f33f3e0ded5f91589382a106c299f70c49106be63e",
          "transactionIndex": "0x1",
          "logIndex": "0x3",
          "removed": false
        }
      ],
      "logsBloom": "0x00000000000000002000000000000000000000000000000000000000000000080000000000000000000000000000000000000000000000000000000000000000000000000000000000000020000000000000000000000000000000000000000000000000000000000000200000004000000000000000000010000000000000000000000000000000000000000000100000000000000000000000000000000000000000000000000000004000080000000000000000000000000000000000000000000000000000000000000000000000000000000000000000000000000000000000000000000000000000000000000000000000000000000000000000000000",
      "type": "0x0",
      "transactionHash": "0x89da6528165357c10c6984f33f3e0ded5f91589382a106c299f70c49106be63e",
      "transactionIndex": "0x1",
      "blockHash": "0xe1c4f2df9e3815f9e8ae525304c0459ef4da15eaebccb14f5bc1c93aace48ffa",
      "blockNumber": "0x5d3962",
      "gasUsed": "0xf94b",
      "effectiveGasPrice": "0x3b9aca0c",
      "blobGasPrice": "0x1fb6961ce7",
      "from": "0xf39fd6e51aad88f6f4ce6ab8827279cfffb92266",
      "to": "0x40af4fb3c5a7299977f7dd5a442435bd6a520fbc",
      "contractAddress": null,
      "root": "0x0000000000000000000000000000000000000000000000000000000000000000"
    },
    {
      "status": "0x1",
      "cumulativeGasUsed": "0x2ebe1",
      "logs": [
        {
          "address": "0x40af4fb3c5a7299977f7dd5a442435bd6a520fbc",
          "topics": [
            "0xbe533f538959a17d76f1b09e966e741ee3b1183099682f96216c93d21feaecba"
          ],
          "data": "0xc5b3644100000000000000000000000000000000000000000000000000000000",
          "blockHash": "0xe1c4f2df9e3815f9e8ae525304c0459ef4da15eaebccb14f5bc1c93aace48ffa",
          "blockNumber": "0x5d3962",
          "blockTimestamp": "0x666cdde2",
          "transactionHash": "0xe8b558f858461f79bf71c2225a8cb47e58958fa52604f13adbc0278f363ce89e",
          "transactionIndex": "0x2",
          "logIndex": "0x4",
          "removed": false
        },
        {
          "address": "0x40af4fb3c5a7299977f7dd5a442435bd6a520fbc",
          "topics": [
            "0xda3c8142b3c1d27633026f55bfcb4eeb0b5b8db0daa0a3e10c2213a441722ad1"
          ],
          "data": "0xc5b36441000000000000000000000000000000000000000000000000000000000000000000000000000000001202ce1492afedb32a7d82e98f6ab034fadc682d",
          "blockHash": "0xe1c4f2df9e3815f9e8ae525304c0459ef4da15eaebccb14f5bc1c93aace48ffa",
          "blockNumber": "0x5d3962",
          "blockTimestamp": "0x666cdde2",
          "transactionHash": "0xe8b558f858461f79bf71c2225a8cb47e58958fa52604f13adbc0278f363ce89e",
          "transactionIndex": "0x2",
          "logIndex": "0x5",
          "removed": false
        }
      ],
      "logsBloom": "0x00000000000000002000000000000000000000000000000000000000000000080000000000000000000000000000000000000000000000000000000000000000000000000000000000000020000000000000000000000000000000000000000000000000000000000000200000004000000000000000000010000000000000000000000000000000000000000000100000000000000000000000000000000000000000000000000000004000080000000000000000000000000000000000000000000000000000000000000000000000000000000000000000000000000000000000000000000000000000000000000000000000000000000000000000000000",
      "type": "0x0",
      "transactionHash": "0xe8b558f858461f79bf71c2225a8cb47e58958fa52604f13adbc0278f363ce89e",
      "transactionIndex": "0x2",
      "blockHash": "0xe1c4f2df9e3815f9e8ae525304c0459ef4da15eaebccb14f5bc1c93aace48ffa",
      "blockNumber": "0x5d3962",
      "gasUsed": "0xfbad",
      "effectiveGasPrice": "0x3b9aca0c",
      "blobGasPrice": "0x1fb6961ce7",
      "from": "0xf39fd6e51aad88f6f4ce6ab8827279cfffb92266",
      "to": "0x40af4fb3c5a7299977f7dd5a442435bd6a520fbc",
      "contractAddress": null,
      "root": "0x0000000000000000000000000000000000000000000000000000000000000000"
    },
    {
      "status": "0x1",
      "cumulativeGasUsed": "0x3e9f0",
      "logs": [
        {
          "address": "0x40af4fb3c5a7299977f7dd5a442435bd6a520fbc",
          "topics": [
            "0xbe533f538959a17d76f1b09e966e741ee3b1183099682f96216c93d21feaecba"
          ],
          "data": "0xe69b9edc00000000000000000000000000000000000000000000000000000000",
          "blockHash": "0xe1c4f2df9e3815f9e8ae525304c0459ef4da15eaebccb14f5bc1c93aace48ffa",
          "blockNumber": "0x5d3962",
          "blockTimestamp": "0x666cdde2",
          "transactionHash": "0x7e46c8d26007c6ad8ad8de26f87c8adab6025b0988add836a2c0361d84ae585e",
          "transactionIndex": "0x3",
          "logIndex": "0x6",
          "removed": false
        },
        {
          "address": "0x40af4fb3c5a7299977f7dd5a442435bd6a520fbc",
          "topics": [
            "0xda3c8142b3c1d27633026f55bfcb4eeb0b5b8db0daa0a3e10c2213a441722ad1"
          ],
          "data": "0xe69b9edc000000000000000000000000000000000000000000000000000000000000000000000000000000001202ce1492afedb32a7d82e98f6ab034fadc682d",
          "blockHash": "0xe1c4f2df9e3815f9e8ae525304c0459ef4da15eaebccb14f5bc1c93aace48ffa",
          "blockNumber": "0x5d3962",
          "blockTimestamp": "0x666cdde2",
          "transactionHash": "0x7e46c8d26007c6ad8ad8de26f87c8adab6025b0988add836a2c0361d84ae585e",
          "transactionIndex": "0x3",
          "logIndex": "0x7",
          "removed": false
        }
      ],
      "logsBloom": "0x00000000000000002000000000000000000000000000000000000000000000080000000000000000000000000000000000000000000000000000000000000000000000000000000000000020000000000000000000000000000000000000000000000000000000000000200000004000000000000000000010000000000000000000000000000000000000000000100000000000000000000000000000000000000000000000000000004000080000000000000000000000000000000000000000000000000000000000000000000000000000000000000000000000000000000000000000000000000000000000000000000000000000000000000000000000",
      "type": "0x0",
      "transactionHash": "0x7e46c8d26007c6ad8ad8de26f87c8adab6025b0988add836a2c0361d84ae585e",
      "transactionIndex": "0x3",
      "blockHash": "0xe1c4f2df9e3815f9e8ae525304c0459ef4da15eaebccb14f5bc1c93aace48ffa",
      "blockNumber": "0x5d3962",
      "gasUsed": "0xfe0f",
      "effectiveGasPrice": "0x3b9aca0c",
      "blobGasPrice": "0x1fb6961ce7",
      "from": "0xf39fd6e51aad88f6f4ce6ab8827279cfffb92266",
      "to": "0x40af4fb3c5a7299977f7dd5a442435bd6a520fbc",
      "contractAddress": null,
      "root": "0x0000000000000000000000000000000000000000000000000000000000000000"
    },
    {
      "status": "0x1",
      "cumulativeGasUsed": "0x4ea61",
      "logs": [
        {
          "address": "0x40af4fb3c5a7299977f7dd5a442435bd6a520fbc",
          "topics": [
            "0xbe533f538959a17d76f1b09e966e741ee3b1183099682f96216c93d21feaecba"
          ],
          "data": "0xed8b6b3100000000000000000000000000000000000000000000000000000000",
          "blockHash": "0xe1c4f2df9e3815f9e8ae525304c0459ef4da15eaebccb14f5bc1c93aace48ffa",
          "blockNumber": "0x5d3962",
          "blockTimestamp": "0x666cdde2",
          "transactionHash": "0x9211d419e1d3b10dedc8f151ca3393480fa4981e515f840764f82e2f626f0450",
          "transactionIndex": "0x4",
          "logIndex": "0x8",
          "removed": false
        },
        {
          "address": "0x40af4fb3c5a7299977f7dd5a442435bd6a520fbc",
          "topics": [
            "0xda3c8142b3c1d27633026f55bfcb4eeb0b5b8db0daa0a3e10c2213a441722ad1"
          ],
          "data": "0xed8b6b31000000000000000000000000000000000000000000000000000000000000000000000000000000009878c977ff386f2fd8bf182cc62e87657631b4c9",
          "blockHash": "0xe1c4f2df9e3815f9e8ae525304c0459ef4da15eaebccb14f5bc1c93aace48ffa",
          "blockNumber": "0x5d3962",
          "blockTimestamp": "0x666cdde2",
          "transactionHash": "0x9211d419e1d3b10dedc8f151ca3393480fa4981e515f840764f82e2f626f0450",
          "transactionIndex": "0x4",
          "logIndex": "0x9",
          "removed": false
        }
      ],
      "logsBloom": "0x00000000000000002000000000000000000000000000000000000000000000080000000000000000000000000000000000000000000000000000000000000000000000000000000000000020000000000000000000000000000000000000000000000000000000000000200000004000000000000000000010000000000000000000000000000000000000000000100000000000000000000000000000000000000000000000000000004000080000000000000000000000000000000000000000000000000000000000000000000000000000000000000000000000000000000000000000000000000000000000000000000000000000000000000000000000",
      "type": "0x0",
      "transactionHash": "0x9211d419e1d3b10dedc8f151ca3393480fa4981e515f840764f82e2f626f0450",
      "transactionIndex": "0x4",
      "blockHash": "0xe1c4f2df9e3815f9e8ae525304c0459ef4da15eaebccb14f5bc1c93aace48ffa",
      "blockNumber": "0x5d3962",
      "gasUsed": "0x10071",
      "effectiveGasPrice": "0x3b9aca0c",
      "blobGasPrice": "0x1fb6961ce7",
      "from": "0xf39fd6e51aad88f6f4ce6ab8827279cfffb92266",
      "to": "0x40af4fb3c5a7299977f7dd5a442435bd6a520fbc",
      "contractAddress": null,
      "root": "0x0000000000000000000000000000000000000000000000000000000000000000"
    },
    {
      "status": "0x1",
      "cumulativeGasUsed": "0x5ed34",
      "logs": [
        {
          "address": "0x40af4fb3c5a7299977f7dd5a442435bd6a520fbc",
          "topics": [
            "0xbe533f538959a17d76f1b09e966e741ee3b1183099682f96216c93d21feaecba"
          ],
          "data": "0xfe0d94c100000000000000000000000000000000000000000000000000000000",
          "blockHash": "0xe1c4f2df9e3815f9e8ae525304c0459ef4da15eaebccb14f5bc1c93aace48ffa",
          "blockNumber": "0x5d3962",
          "blockTimestamp": "0x666cdde2",
          "transactionHash": "0x729c0416207f9678d9ed4532e2b15dba45fb367367d2d1165565a7c08210420d",
          "transactionIndex": "0x5",
          "logIndex": "0xa",
          "removed": false
        },
        {
          "address": "0x40af4fb3c5a7299977f7dd5a442435bd6a520fbc",
          "topics": [
            "0xda3c8142b3c1d27633026f55bfcb4eeb0b5b8db0daa0a3e10c2213a441722ad1"
          ],
          "data": "0xfe0d94c10000000000000000000000000000000000000000000000000000000000000000000000000000000088f41fb05634615e2d3ae489773ff4ca82804bbb",
          "blockHash": "0xe1c4f2df9e3815f9e8ae525304c0459ef4da15eaebccb14f5bc1c93aace48ffa",
          "blockNumber": "0x5d3962",
          "blockTimestamp": "0x666cdde2",
          "transactionHash": "0x729c0416207f9678d9ed4532e2b15dba45fb367367d2d1165565a7c08210420d",
          "transactionIndex": "0x5",
          "logIndex": "0xb",
          "removed": false
        }
      ],
      "logsBloom": "0x00000000000000002000000000000000000000000000000000000000000000080000000000000000000000000000000000000000000000000000000000000000000000000000000000000020000000000000000000000000000000000000000000000000000000000000200000004000000000000000000010000000000000000000000000000000000000000000100000000000000000000000000000000000000000000000000000004000080000000000000000000000000000000000000000000000000000000000000000000000000000000000000000000000000000000000000000000000000000000000000000000000000000000000000000000000",
      "type": "0x0",
      "transactionHash": "0x729c0416207f9678d9ed4532e2b15dba45fb367367d2d1165565a7c08210420d",
      "transactionIndex": "0x5",
      "blockHash": "0xe1c4f2df9e3815f9e8ae525304c0459ef4da15eaebccb14f5bc1c93aace48ffa",
      "blockNumber": "0x5d3962",
      "gasUsed": "0x102d3",
      "effectiveGasPrice": "0x3b9aca0c",
      "blobGasPrice": "0x1fb6961ce7",
      "from": "0xf39fd6e51aad88f6f4ce6ab8827279cfffb92266",
      "to": "0x40af4fb3c5a7299977f7dd5a442435bd6a520fbc",
      "contractAddress": null,
      "root": "0x0000000000000000000000000000000000000000000000000000000000000000"
    },
    {
      "status": "0x1",
      "cumulativeGasUsed": "0x14f9f",
      "logs": [
        {
          "address": "0x40af4fb3c5a7299977f7dd5a442435bd6a520fbc",
          "topics": [
            "0xbe533f538959a17d76f1b09e966e741ee3b1183099682f96216c93d21feaecba"
          ],
          "data": "0x06f7e36d00000000000000000000000000000000000000000000000000000000",
          "blockHash": "0x41dd2b5bf074bb9a5646ebd25863eb4c172380c40d764c2541048e5df00e7e9e",
          "blockNumber": "0x5d3964",
          "blockTimestamp": "0x666cdde4",
          "transactionHash": "0x7d189df1c26dab1621db990602f52c44de7eadd369a24e986434eda967e42a86",
          "transactionIndex": "0x0",
          "logIndex": "0x0",
          "removed": false
        },
        {
          "address": "0x40af4fb3c5a7299977f7dd5a442435bd6a520fbc",
          "topics": [
            "0xda3c8142b3c1d27633026f55bfcb4eeb0b5b8db0daa0a3e10c2213a441722ad1"
          ],
          "data": "0x06f7e36d00000000000000000000000000000000000000000000000000000000000000000000000000000000c9b81022130932b862c9434c5cef43d9509a697e",
          "blockHash": "0x41dd2b5bf074bb9a5646ebd25863eb4c172380c40d764c2541048e5df00e7e9e",
          "blockNumber": "0x5d3964",
          "blockTimestamp": "0x666cdde4",
          "transactionHash": "0x7d189df1c26dab1621db990602f52c44de7eadd369a24e986434eda967e42a86",
          "transactionIndex": "0x0",
          "logIndex": "0x1",
          "removed": false
        }
      ],
      "logsBloom": "0x00000000000000002000000000000000000000000000000000000000000000080000000000000000000000000000000000000000000000000000000000000000000000000000000000000020000000000000000000000000000000000000000000000000000000000000200000004000000000000000000010000000000000000000000000000000000000000000100000000000000000000000000000000000000000000000000000004000080000000000000000000000000000000000000000000000000000000000000000000000000000000000000000000000000000000000000000000000000000000000000000000000000000000000000000000000",
      "type": "0x0",
      "transactionHash": "0x7d189df1c26dab1621db990602f52c44de7eadd369a24e986434eda967e42a86",
      "transactionIndex": "0x0",
      "blockHash": "0x41dd2b5bf074bb9a5646ebd25863eb4c172380c40d764c2541048e5df00e7e9e",
      "blockNumber": "0x5d3964",
      "gasUsed": "0x14f9f",
      "effectiveGasPrice": "0x3b9aca0c",
      "blobGasPrice": "0x190eaf73cf",
      "from": "0xf39fd6e51aad88f6f4ce6ab8827279cfffb92266",
      "to": "0x40af4fb3c5a7299977f7dd5a442435bd6a520fbc",
      "contractAddress": null,
      "root": "0x0000000000000000000000000000000000000000000000000000000000000000"
    },
    {
      "status": "0x1",
      "cumulativeGasUsed": "0x10f35",
      "logs": [
        {
          "address": "0x40af4fb3c5a7299977f7dd5a442435bd6a520fbc",
          "topics": [
            "0xbe533f538959a17d76f1b09e966e741ee3b1183099682f96216c93d21feaecba"
          ],
          "data": "0x5cefc4ad00000000000000000000000000000000000000000000000000000000",
          "blockHash": "0x7ec11deaf2d9d891cffffb456fae13ba841a88f90dc7c57cc11ee4971a6f6340",
          "blockNumber": "0x5d3965",
          "blockTimestamp": "0x666cdde5",
          "transactionHash": "0x58f61bae96158d2abf023dcb527b8e5d24f3608c19d2c8eda26274d492f48bd9",
          "transactionIndex": "0x0",
          "logIndex": "0x0",
          "removed": false
        },
        {
          "address": "0x40af4fb3c5a7299977f7dd5a442435bd6a520fbc",
          "topics": [
            "0xda3c8142b3c1d27633026f55bfcb4eeb0b5b8db0daa0a3e10c2213a441722ad1"
          ],
          "data": "0x5cefc4ad0000000000000000000000000000000000000000000000000000000000000000000000000000000008b3dce948189047a946a516966ed406a748782b",
          "blockHash": "0x7ec11deaf2d9d891cffffb456fae13ba841a88f90dc7c57cc11ee4971a6f6340",
          "blockNumber": "0x5d3965",
          "blockTimestamp": "0x666cdde5",
          "transactionHash": "0x58f61bae96158d2abf023dcb527b8e5d24f3608c19d2c8eda26274d492f48bd9",
          "transactionIndex": "0x0",
          "logIndex": "0x1",
          "removed": false
        }
      ],
      "logsBloom": "0x00000000000000002000000000000000000000000000000000000000000000080000000000000000000000000000000000000000000000000000000000000000000000000000000000000020000000000000000000000000000000000000000000000000000000000000200000004000000000000000000010000000000000000000000000000000000000000000100000000000000000000000000000000000000000000000000000004000080000000000000000000000000000000000000000000000000000000000000000000000000000000000000000000000000000000000000000000000000000000000000000000000000000000000000000000000",
      "type": "0x0",
      "transactionHash": "0x58f61bae96158d2abf023dcb527b8e5d24f3608c19d2c8eda26274d492f48bd9",
      "transactionIndex": "0x0",
      "blockHash": "0x7ec11deaf2d9d891cffffb456fae13ba841a88f90dc7c57cc11ee4971a6f6340",
      "blockNumber": "0x5d3965",
      "gasUsed": "0x10f35",
      "effectiveGasPrice": "0x3b9aca0c",
      "blobGasPrice": "0x1645f145ba",
      "from": "0xf39fd6e51aad88f6f4ce6ab8827279cfffb92266",
      "to": "0x40af4fb3c5a7299977f7dd5a442435bd6a520fbc",
      "contractAddress": null,
      "root": "0x0000000000000000000000000000000000000000000000000000000000000000"
    },
    {
      "status": "0x1",
      "cumulativeGasUsed": "0x11197",
      "logs": [
        {
          "address": "0x40af4fb3c5a7299977f7dd5a442435bd6a520fbc",
          "topics": [
            "0xbe533f538959a17d76f1b09e966e741ee3b1183099682f96216c93d21feaecba"
          ],
          "data": "0x9f31e87b00000000000000000000000000000000000000000000000000000000",
          "blockHash": "0x4e88133c370c8e75a7c60f68858b8e327aa4ef31eba3099ccd4a173ba89d87cc",
          "blockNumber": "0x5d3966",
          "blockTimestamp": "0x666cdde6",
          "transactionHash": "0x5647065f3ce53dfa8c9d72e8d646b08c43216c50cb1403817eec721c69b6bcf0",
          "transactionIndex": "0x0",
          "logIndex": "0x0",
          "removed": false
        },
        {
          "address": "0x40af4fb3c5a7299977f7dd5a442435bd6a520fbc",
          "topics": [
            "0xda3c8142b3c1d27633026f55bfcb4eeb0b5b8db0daa0a3e10c2213a441722ad1"
          ],
          "data": "0x9f31e87b00000000000000000000000000000000000000000000000000000000000000000000000000000000180593c150f916831aedb9e60be689d304456286",
          "blockHash": "0x4e88133c370c8e75a7c60f68858b8e327aa4ef31eba3099ccd4a173ba89d87cc",
          "blockNumber": "0x5d3966",
          "blockTimestamp": "0x666cdde6",
          "transactionHash": "0x5647065f3ce53dfa8c9d72e8d646b08c43216c50cb1403817eec721c69b6bcf0",
          "transactionIndex": "0x0",
          "logIndex": "0x1",
          "removed": false
        }
      ],
      "logsBloom": "0x00000000000000002000000000000000000000000000000000000000000000080000000000000000000000000000000000000000000000000000000000000000000000000000000000000020000000000000000000000000000000000000000000000000000000000000200000004000000000000000000010000000000000000000000000000000000000000000100000000000000000000000000000000000000000000000000000004000080000000000000000000000000000000000000000000000000000000000000000000000000000000000000000000000000000000000000000000000000000000000000000000000000000000000000000000000",
      "type": "0x0",
      "transactionHash": "0x5647065f3ce53dfa8c9d72e8d646b08c43216c50cb1403817eec721c69b6bcf0",
      "transactionIndex": "0x0",
      "blockHash": "0x4e88133c370c8e75a7c60f68858b8e327aa4ef31eba3099ccd4a173ba89d87cc",
      "blockNumber": "0x5d3966",
      "gasUsed": "0x11197",
      "effectiveGasPrice": "0x3b9aca0c",
      "blobGasPrice": "0x13cc64ab25",
      "from": "0xf39fd6e51aad88f6f4ce6ab8827279cfffb92266",
      "to": "0x40af4fb3c5a7299977f7dd5a442435bd6a520fbc",
      "contractAddress": null,
      "root": "0x0000000000000000000000000000000000000000000000000000000000000000"
    },
    {
      "status": "0x1",
      "cumulativeGasUsed": "0x22590",
      "logs": [
        {
          "address": "0x40af4fb3c5a7299977f7dd5a442435bd6a520fbc",
          "topics": [
            "0xbe533f538959a17d76f1b09e966e741ee3b1183099682f96216c93d21feaecba"
          ],
          "data": "0x9877696700000000000000000000000000000000000000000000000000000000",
          "blockHash": "0x4e88133c370c8e75a7c60f68858b8e327aa4ef31eba3099ccd4a173ba89d87cc",
          "blockNumber": "0x5d3966",
          "blockTimestamp": "0x666cdde6",
          "transactionHash": "0xc3f79ec905cf88e2c391c704efc4b0991b67d2bc53951f6b44620ec9da2a0222",
          "transactionIndex": "0x1",
          "logIndex": "0x2",
          "removed": false
        },
        {
          "address": "0x40af4fb3c5a7299977f7dd5a442435bd6a520fbc",
          "topics": [
            "0xda3c8142b3c1d27633026f55bfcb4eeb0b5b8db0daa0a3e10c2213a441722ad1"
          ],
          "data": "0x98776967000000000000000000000000000000000000000000000000000000000000000000000000000000009507a39e0f069feefa033c42eae0820559fe5c67",
          "blockHash": "0x4e88133c370c8e75a7c60f68858b8e327aa4ef31eba3099ccd4a173ba89d87cc",
          "blockNumber": "0x5d3966",
          "blockTimestamp": "0x666cdde6",
          "transactionHash": "0xc3f79ec905cf88e2c391c704efc4b0991b67d2bc53951f6b44620ec9da2a0222",
          "transactionIndex": "0x1",
          "logIndex": "0x3",
          "removed": false
        }
      ],
      "logsBloom": "0x00000000000000002000000000000000000000000000000000000000000000080000000000000000000000000000000000000000000000000000000000000000000000000000000000000020000000000000000000000000000000000000000000000000000000000000200000004000000000000000000010000000000000000000000000000000000000000000100000000000000000000000000000000000000000000000000000004000080000000000000000000000000000000000000000000000000000000000000000000000000000000000000000000000000000000000000000000000000000000000000000000000000000000000000000000000",
      "type": "0x0",
      "transactionHash": "0xc3f79ec905cf88e2c391c704efc4b0991b67d2bc53951f6b44620ec9da2a0222",
      "transactionIndex": "0x1",
      "blockHash": "0x4e88133c370c8e75a7c60f68858b8e327aa4ef31eba3099ccd4a173ba89d87cc",
      "blockNumber": "0x5d3966",
      "gasUsed": "0x113f9",
      "effectiveGasPrice": "0x3b9aca0c",
      "blobGasPrice": "0x13cc64ab25",
      "from": "0xf39fd6e51aad88f6f4ce6ab8827279cfffb92266",
      "to": "0x40af4fb3c5a7299977f7dd5a442435bd6a520fbc",
      "contractAddress": null,
      "root": "0x0000000000000000000000000000000000000000000000000000000000000000"
    },
    {
      "status": "0x1",
      "cumulativeGasUsed": "0x1165b",
      "logs": [
        {
          "address": "0x40af4fb3c5a7299977f7dd5a442435bd6a520fbc",
          "topics": [
            "0xbe533f538959a17d76f1b09e966e741ee3b1183099682f96216c93d21feaecba"
          ],
          "data": "0xc7f758a800000000000000000000000000000000000000000000000000000000",
          "blockHash": "0x152a2d0bb1deeb765bc8dd51cf4e9c8eed5d2f5bdd1f7bdb6029425244717916",
          "blockNumber": "0x5d3967",
          "blockTimestamp": "0x666cdde7",
          "transactionHash": "0x7ab2d2867abf24783edcfdf0100dcfbd2e52d6e292869e64cf1a88d6d8458f19",
          "transactionIndex": "0x0",
          "logIndex": "0x0",
          "removed": false
        },
        {
          "address": "0x40af4fb3c5a7299977f7dd5a442435bd6a520fbc",
          "topics": [
            "0xda3c8142b3c1d27633026f55bfcb4eeb0b5b8db0daa0a3e10c2213a441722ad1"
          ],
          "data": "0xc7f758a800000000000000000000000000000000000000000000000000000000000000000000000000000000a1a66287e75c8862ceea03c71a1fd9d5b2445f64",
          "blockHash": "0x152a2d0bb1deeb765bc8dd51cf4e9c8eed5d2f5bdd1f7bdb6029425244717916",
          "blockNumber": "0x5d3967",
          "blockTimestamp": "0x666cdde7",
          "transactionHash": "0x7ab2d2867abf24783edcfdf0100dcfbd2e52d6e292869e64cf1a88d6d8458f19",
          "transactionIndex": "0x0",
          "logIndex": "0x1",
          "removed": false
        }
      ],
      "logsBloom": "0x00000000000000002000000000000000000000000000000000000000000000080000000000000000000000000000000000000000000000000000000000000000000000000000000000000020000000000000000000000000000000000000000000000000000000000000200000004000000000000000000010000000000000000000000000000000000000000000100000000000000000000000000000000000000000000000000000004000080000000000000000000000000000000000000000000000000000000000000000000000000000000000000000000000000000000000000000000000000000000000000000000000000000000000000000000000",
      "type": "0x0",
      "transactionHash": "0x7ab2d2867abf24783edcfdf0100dcfbd2e52d6e292869e64cf1a88d6d8458f19",
      "transactionIndex": "0x0",
      "blockHash": "0x152a2d0bb1deeb765bc8dd51cf4e9c8eed5d2f5bdd1f7bdb6029425244717916",
      "blockNumber": "0x5d3967",
      "gasUsed": "0x1165b",
      "effectiveGasPrice": "0x3b9aca0c",
      "blobGasPrice": "0x11993d0609",
      "from": "0xf39fd6e51aad88f6f4ce6ab8827279cfffb92266",
      "to": "0x40af4fb3c5a7299977f7dd5a442435bd6a520fbc",
      "contractAddress": null,
      "root": "0x0000000000000000000000000000000000000000000000000000000000000000"
    },
    {
      "status": "0x1",
      "cumulativeGasUsed": "0x22f18",
      "logs": [
        {
          "address": "0x40af4fb3c5a7299977f7dd5a442435bd6a520fbc",
          "topics": [
            "0xbe533f538959a17d76f1b09e966e741ee3b1183099682f96216c93d21feaecba"
          ],
          "data": "0x6c996f8800000000000000000000000000000000000000000000000000000000",
          "blockHash": "0x152a2d0bb1deeb765bc8dd51cf4e9c8eed5d2f5bdd1f7bdb6029425244717916",
          "blockNumber": "0x5d3967",
          "blockTimestamp": "0x666cdde7",
          "transactionHash": "0x4e538de2350f766911f492576ae11678a0be21ae3f64751532ef4c18cc8fe4fe",
          "transactionIndex": "0x1",
          "logIndex": "0x2",
          "removed": false
        },
        {
          "address": "0x40af4fb3c5a7299977f7dd5a442435bd6a520fbc",
          "topics": [
            "0xda3c8142b3c1d27633026f55bfcb4eeb0b5b8db0daa0a3e10c2213a441722ad1"
          ],
          "data": "0x6c996f8800000000000000000000000000000000000000000000000000000000000000000000000000000000a1a66287e75c8862ceea03c71a1fd9d5b2445f64",
          "blockHash": "0x152a2d0bb1deeb765bc8dd51cf4e9c8eed5d2f5bdd1f7bdb6029425244717916",
          "blockNumber": "0x5d3967",
          "blockTimestamp": "0x666cdde7",
          "transactionHash": "0x4e538de2350f766911f492576ae11678a0be21ae3f64751532ef4c18cc8fe4fe",
          "transactionIndex": "0x1",
          "logIndex": "0x3",
          "removed": false
        }
      ],
      "logsBloom": "0x00000000000000002000000000000000000000000000000000000000000000080000000000000000000000000000000000000000000000000000000000000000000000000000000000000020000000000000000000000000000000000000000000000000000000000000200000004000000000000000000010000000000000000000000000000000000000000000100000000000000000000000000000000000000000000000000000004000080000000000000000000000000000000000000000000000000000000000000000000000000000000000000000000000000000000000000000000000000000000000000000000000000000000000000000000000",
      "type": "0x0",
      "transactionHash": "0x4e538de2350f766911f492576ae11678a0be21ae3f64751532ef4c18cc8fe4fe",
      "transactionIndex": "0x1",
      "blockHash": "0x152a2d0bb1deeb765bc8dd51cf4e9c8eed5d2f5bdd1f7bdb6029425244717916",
      "blockNumber": "0x5d3967",
      "gasUsed": "0x118bd",
      "effectiveGasPrice": "0x3b9aca0c",
      "blobGasPrice": "0x11993d0609",
      "from": "0xf39fd6e51aad88f6f4ce6ab8827279cfffb92266",
      "to": "0x40af4fb3c5a7299977f7dd5a442435bd6a520fbc",
      "contractAddress": null,
      "root": "0x0000000000000000000000000000000000000000000000000000000000000000"
    },
    {
      "status": "0x1",
      "cumulativeGasUsed": "0x34a37",
      "logs": [
        {
          "address": "0x40af4fb3c5a7299977f7dd5a442435bd6a520fbc",
          "topics": [
            "0xbe533f538959a17d76f1b09e966e741ee3b1183099682f96216c93d21feaecba"
          ],
          "data": "0xe810995300000000000000000000000000000000000000000000000000000000",
          "blockHash": "0x152a2d0bb1deeb765bc8dd51cf4e9c8eed5d2f5bdd1f7bdb6029425244717916",
          "blockNumber": "0x5d3967",
          "blockTimestamp": "0x666cdde7",
          "transactionHash": "0xf1bba2c855e11d669551352aa36ae1db9c62e7fcc56b5e723485296f3439b3e7",
          "transactionIndex": "0x2",
          "logIndex": "0x4",
          "removed": false
        },
        {
          "address": "0x40af4fb3c5a7299977f7dd5a442435bd6a520fbc",
          "topics": [
            "0xda3c8142b3c1d27633026f55bfcb4eeb0b5b8db0daa0a3e10c2213a441722ad1"
          ],
          "data": "0xe810995300000000000000000000000000000000000000000000000000000000000000000000000000000000a1a66287e75c8862ceea03c71a1fd9d5b2445f64",
          "blockHash": "0x152a2d0bb1deeb765bc8dd51cf4e9c8eed5d2f5bdd1f7bdb6029425244717916",
          "blockNumber": "0x5d3967",
          "blockTimestamp": "0x666cdde7",
          "transactionHash": "0xf1bba2c855e11d669551352aa36ae1db9c62e7fcc56b5e723485296f3439b3e7",
          "transactionIndex": "0x2",
          "logIndex": "0x5",
          "removed": false
        }
      ],
      "logsBloom": "0x00000000000000002000000000000000000000000000000000000000000000080000000000000000000000000000000000000000000000000000000000000000000000000000000000000020000000000000000000000000000000000000000000000000000000000000200000004000000000000000000010000000000000000000000000000000000000000000100000000000000000000000000000000000000000000000000000004000080000000000000000000000000000000000000000000000000000000000000000000000000000000000000000000000000000000000000000000000000000000000000000000000000000000000000000000000",
      "type": "0x0",
      "transactionHash": "0xf1bba2c855e11d669551352aa36ae1db9c62e7fcc56b5e723485296f3439b3e7",
      "transactionIndex": "0x2",
      "blockHash": "0x152a2d0bb1deeb765bc8dd51cf4e9c8eed5d2f5bdd1f7bdb6029425244717916",
      "blockNumber": "0x5d3967",
      "gasUsed": "0x11b1f",
      "effectiveGasPrice": "0x3b9aca0c",
      "blobGasPrice": "0x11993d0609",
      "from": "0xf39fd6e51aad88f6f4ce6ab8827279cfffb92266",
      "to": "0x40af4fb3c5a7299977f7dd5a442435bd6a520fbc",
      "contractAddress": null,
      "root": "0x0000000000000000000000000000000000000000000000000000000000000000"
    },
    {
      "status": "0x1",
      "cumulativeGasUsed": "0x467b8",
      "logs": [
        {
          "address": "0x40af4fb3c5a7299977f7dd5a442435bd6a520fbc",
          "topics": [
            "0xbe533f538959a17d76f1b09e966e741ee3b1183099682f96216c93d21feaecba"
          ],
          "data": "0x787e0fe000000000000000000000000000000000000000000000000000000000",
          "blockHash": "0x152a2d0bb1deeb765bc8dd51cf4e9c8eed5d2f5bdd1f7bdb6029425244717916",
          "blockNumber": "0x5d3967",
          "blockTimestamp": "0x666cdde7",
          "transactionHash": "0x35c6d922d2821ce78f3bc7ad1de6a2a4d927e545d522db7ae301dac54a7239da",
          "transactionIndex": "0x3",
          "logIndex": "0x6",
          "removed": false
        },
        {
          "address": "0x40af4fb3c5a7299977f7dd5a442435bd6a520fbc",
          "topics": [
            "0xda3c8142b3c1d27633026f55bfcb4eeb0b5b8db0daa0a3e10c2213a441722ad1"
          ],
          "data": "0x787e0fe000000000000000000000000000000000000000000000000000000000000000000000000000000000a1a66287e75c8862ceea03c71a1fd9d5b2445f64",
          "blockHash": "0x152a2d0bb1deeb765bc8dd51cf4e9c8eed5d2f5bdd1f7bdb6029425244717916",
          "blockNumber": "0x5d3967",
          "blockTimestamp": "0x666cdde7",
          "transactionHash": "0x35c6d922d2821ce78f3bc7ad1de6a2a4d927e545d522db7ae301dac54a7239da",
          "transactionIndex": "0x3",
          "logIndex": "0x7",
          "removed": false
        }
      ],
      "logsBloom": "0x00000000000000002000000000000000000000000000000000000000000000080000000000000000000000000000000000000000000000000000000000000000000000000000000000000020000000000000000000000000000000000000000000000000000000000000200000004000000000000000000010000000000000000000000000000000000000000000100000000000000000000000000000000000000000000000000000004000080000000000000000000000000000000000000000000000000000000000000000000000000000000000000000000000000000000000000000000000000000000000000000000000000000000000000000000000",
      "type": "0x0",
      "transactionHash": "0x35c6d922d2821ce78f3bc7ad1de6a2a4d927e545d522db7ae301dac54a7239da",
      "transactionIndex": "0x3",
      "blockHash": "0x152a2d0bb1deeb765bc8dd51cf4e9c8eed5d2f5bdd1f7bdb6029425244717916",
      "blockNumber": "0x5d3967",
      "gasUsed": "0x11d81",
      "effectiveGasPrice": "0x3b9aca0c",
      "blobGasPrice": "0x11993d0609",
      "from": "0xf39fd6e51aad88f6f4ce6ab8827279cfffb92266",
      "to": "0x40af4fb3c5a7299977f7dd5a442435bd6a520fbc",
      "contractAddress": null,
      "root": "0x0000000000000000000000000000000000000000000000000000000000000000"
    },
    {
      "status": "0x1",
      "cumulativeGasUsed": "0x16a4d",
      "logs": [
        {
          "address": "0x40af4fb3c5a7299977f7dd5a442435bd6a520fbc",
          "topics": [
            "0xbe533f538959a17d76f1b09e966e741ee3b1183099682f96216c93d21feaecba"
          ],
          "data": "0xa4c5e9cb00000000000000000000000000000000000000000000000000000000",
          "blockHash": "0x353c81230f251c59bfb1cda9675686171aac5f02480f07ebb6173df0824a7c39",
          "blockNumber": "0x5d3968",
          "blockTimestamp": "0x666cdde8",
          "transactionHash": "0xa7160b669900a5847ec471aa99f47c5a5d37793637541843926554b58828e2af",
          "transactionIndex": "0x0",
          "logIndex": "0x0",
          "removed": false
        },
        {
          "address": "0x40af4fb3c5a7299977f7dd5a442435bd6a520fbc",
          "topics": [
            "0xda3c8142b3c1d27633026f55bfcb4eeb0b5b8db0daa0a3e10c2213a441722ad1"
          ],
          "data": "0xa4c5e9cb00000000000000000000000000000000000000000000000000000000000000000000000000000000a1a66287e75c8862ceea03c71a1fd9d5b2445f64",
          "blockHash": "0x353c81230f251c59bfb1cda9675686171aac5f02480f07ebb6173df0824a7c39",
          "blockNumber": "0x5d3968",
          "blockTimestamp": "0x666cdde8",
          "transactionHash": "0xa7160b669900a5847ec471aa99f47c5a5d37793637541843926554b58828e2af",
          "transactionIndex": "0x0",
          "logIndex": "0x1",
          "removed": false
        }
      ],
      "logsBloom": "0x00000000000000002000000000000000000000000000000000000000000000080000000000000000000000000000000000000000000000000000000000000000000000000000000000000020000000000000000000000000000000000000000000000000000000000000200000004000000000000000000010000000000000000000000000000000000000000000100000000000000000000000000000000000000000000000000000004000080000000000000000000000000000000000000000000000000000000000000000000000000000000000000000000000000000000000000000000000000000000000000000000000000000000000000000000000",
      "type": "0x0",
      "transactionHash": "0xa7160b669900a5847ec471aa99f47c5a5d37793637541843926554b58828e2af",
      "transactionIndex": "0x0",
      "blockHash": "0x353c81230f251c59bfb1cda9675686171aac5f02480f07ebb6173df0824a7c39",
      "blockNumber": "0x5d3968",
      "gasUsed": "0x16a4d",
      "effectiveGasPrice": "0x3b9aca0c",
      "blobGasPrice": "0xfa4a801e5",
      "from": "0xf39fd6e51aad88f6f4ce6ab8827279cfffb92266",
      "to": "0x40af4fb3c5a7299977f7dd5a442435bd6a520fbc",
      "contractAddress": null,
      "root": "0x0000000000000000000000000000000000000000000000000000000000000000"
    },
    {
      "status": "0x1",
      "cumulativeGasUsed": "0x129e3",
      "logs": [
        {
          "address": "0x40af4fb3c5a7299977f7dd5a442435bd6a520fbc",
          "topics": [
            "0xbe533f538959a17d76f1b09e966e741ee3b1183099682f96216c93d21feaecba"
          ],
          "data": "0x7f4ef9d400000000000000000000000000000000000000000000000000000000",
          "blockHash": "0x1bedb7de98cc3dae8534b950fe7d60276d4df0c1f520033c3ae41be76883d191",
          "blockNumber": "0x5d3969",
          "blockTimestamp": "0x666cdde9",
          "transactionHash": "0xa28f2de687512506e540297055660425b8930c4451a09c1ff000a4d44192a3d4",
          "transactionIndex": "0x0",
          "logIndex": "0x0",
          "removed": false
        },
        {
          "address": "0x40af4fb3c5a7299977f7dd5a442435bd6a520fbc",
          "topics": [
            "0xda3c8142b3c1d27633026f55bfcb4eeb0b5b8db0daa0a3e10c2213a441722ad1"
          ],
          "data": "0x7f4ef9d400000000000000000000000000000000000000000000000000000000000000000000000000000000a1a66287e75c8862ceea03c71a1fd9d5b2445f64",
          "blockHash": "0x1bedb7de98cc3dae8534b950fe7d60276d4df0c1f520033c3ae41be76883d191",
          "blockNumber": "0x5d3969",
          "blockTimestamp": "0x666cdde9",
          "transactionHash": "0xa28f2de687512506e540297055660425b8930c4451a09c1ff000a4d44192a3d4",
          "transactionIndex": "0x0",
          "logIndex": "0x1",
          "removed": false
        }
      ],
      "logsBloom": "0x00000000000000002000000000000000000000000000000000000000000000080000000000000000000000000000000000000000000000000000000000000000000000000000000000000020000000000000000000000000000000000000000000000000000000000000200000004000000000000000000010000000000000000000000000000000000000000000100000000000000000000000000000000000000000000000000000004000080000000000000000000000000000000000000000000000000000000000000000000000000000000000000000000000000000000000000000000000000000000000000000000000000000000000000000000000",
      "type": "0x0",
      "transactionHash": "0xa28f2de687512506e540297055660425b8930c4451a09c1ff000a4d44192a3d4",
      "transactionIndex": "0x0",
      "blockHash": "0x1bedb7de98cc3dae8534b950fe7d60276d4df0c1f520033c3ae41be76883d191",
      "blockNumber": "0x5d3969",
      "gasUsed": "0x129e3",
      "effectiveGasPrice": "0x3b9aca0c",
      "blobGasPrice": "0xde7b1c5a8",
      "from": "0xf39fd6e51aad88f6f4ce6ab8827279cfffb92266",
      "to": "0x40af4fb3c5a7299977f7dd5a442435bd6a520fbc",
      "contractAddress": null,
      "root": "0x0000000000000000000000000000000000000000000000000000000000000000"
    },
    {
      "status": "0x1",
      "cumulativeGasUsed": "0x25628",
      "logs": [
        {
          "address": "0x40af4fb3c5a7299977f7dd5a442435bd6a520fbc",
          "topics": [
            "0xbe533f538959a17d76f1b09e966e741ee3b1183099682f96216c93d21feaecba"
          ],
          "data": "0x2b7efac100000000000000000000000000000000000000000000000000000000",
          "blockHash": "0x1bedb7de98cc3dae8534b950fe7d60276d4df0c1f520033c3ae41be76883d191",
          "blockNumber": "0x5d3969",
          "blockTimestamp": "0x666cdde9",
          "transactionHash": "0x54d6e462dda2b79f4b24f143f47cd9d2a05f73d04f6751ae077df9a9f2f16ad2",
          "transactionIndex": "0x1",
          "logIndex": "0x2",
          "removed": false
        },
        {
          "address": "0x40af4fb3c5a7299977f7dd5a442435bd6a520fbc",
          "topics": [
            "0xda3c8142b3c1d27633026f55bfcb4eeb0b5b8db0daa0a3e10c2213a441722ad1"
          ],
          "data": "0x2b7efac100000000000000000000000000000000000000000000000000000000000000000000000000000000a1a66287e75c8862ceea03c71a1fd9d5b2445f64",
          "blockHash": "0x1bedb7de98cc3dae8534b950fe7d60276d4df0c1f520033c3ae41be76883d191",
          "blockNumber": "0x5d3969",
          "blockTimestamp": "0x666cdde9",
          "transactionHash": "0x54d6e462dda2b79f4b24f143f47cd9d2a05f73d04f6751ae077df9a9f2f16ad2",
          "transactionIndex": "0x1",
          "logIndex": "0x3",
          "removed": false
        }
      ],
      "logsBloom": "0x00000000000000002000000000000000000000000000000000000000000000080000000000000000000000000000000000000000000000000000000000000000000000000000000000000020000000000000000000000000000000000000000000000000000000000000200000004000000000000000000010000000000000000000000000000000000000000000100000000000000000000000000000000000000000000000000000004000080000000000000000000000000000000000000000000000000000000000000000000000000000000000000000000000000000000000000000000000000000000000000000000000000000000000000000000000",
      "type": "0x0",
      "transactionHash": "0x54d6e462dda2b79f4b24f143f47cd9d2a05f73d04f6751ae077df9a9f2f16ad2",
      "transactionIndex": "0x1",
      "blockHash": "0x1bedb7de98cc3dae8534b950fe7d60276d4df0c1f520033c3ae41be76883d191",
      "blockNumber": "0x5d3969",
      "gasUsed": "0x12c45",
      "effectiveGasPrice": "0x3b9aca0c",
      "blobGasPrice": "0xde7b1c5a8",
      "from": "0xf39fd6e51aad88f6f4ce6ab8827279cfffb92266",
      "to": "0x40af4fb3c5a7299977f7dd5a442435bd6a520fbc",
      "contractAddress": null,
      "root": "0x0000000000000000000000000000000000000000000000000000000000000000"
    },
    {
      "status": "0x1",
      "cumulativeGasUsed": "0x384cf",
      "logs": [
        {
          "address": "0x40af4fb3c5a7299977f7dd5a442435bd6a520fbc",
          "topics": [
            "0xbe533f538959a17d76f1b09e966e741ee3b1183099682f96216c93d21feaecba"
          ],
          "data": "0xab3545e500000000000000000000000000000000000000000000000000000000",
          "blockHash": "0x1bedb7de98cc3dae8534b950fe7d60276d4df0c1f520033c3ae41be76883d191",
          "blockNumber": "0x5d3969",
          "blockTimestamp": "0x666cdde9",
          "transactionHash": "0x8c9c11a70d4e7f85b56586ae538cde5b20b684753eb6f77dac965a950a93ff43",
          "transactionIndex": "0x2",
          "logIndex": "0x4",
          "removed": false
        },
        {
          "address": "0x40af4fb3c5a7299977f7dd5a442435bd6a520fbc",
          "topics": [
            "0xda3c8142b3c1d27633026f55bfcb4eeb0b5b8db0daa0a3e10c2213a441722ad1"
          ],
          "data": "0xab3545e500000000000000000000000000000000000000000000000000000000000000000000000000000000a1a66287e75c8862ceea03c71a1fd9d5b2445f64",
          "blockHash": "0x1bedb7de98cc3dae8534b950fe7d60276d4df0c1f520033c3ae41be76883d191",
          "blockNumber": "0x5d3969",
          "blockTimestamp": "0x666cdde9",
          "transactionHash": "0x8c9c11a70d4e7f85b56586ae538cde5b20b684753eb6f77dac965a950a93ff43",
          "transactionIndex": "0x2",
          "logIndex": "0x5",
          "removed": false
        }
      ],
      "logsBloom": "0x00000000000000002000000000000000000000000000000000000000000000080000000000000000000000000000000000000000000000000000000000000000000000000000000000000020000000000000000000000000000000000000000000000000000000000000200000004000000000000000000010000000000000000000000000000000000000000000100000000000000000000000000000000000000000000000000000004000080000000000000000000000000000000000000000000000000000000000000000000000000000000000000000000000000000000000000000000000000000000000000000000000000000000000000000000000",
      "type": "0x0",
      "transactionHash": "0x8c9c11a70d4e7f85b56586ae538cde5b20b684753eb6f77dac965a950a93ff43",
      "transactionIndex": "0x2",
      "blockHash": "0x1bedb7de98cc3dae8534b950fe7d60276d4df0c1f520033c3ae41be76883d191",
      "blockNumber": "0x5d3969",
      "gasUsed": "0x12ea7",
      "effectiveGasPrice": "0x3b9aca0c",
      "blobGasPrice": "0xde7b1c5a8",
      "from": "0xf39fd6e51aad88f6f4ce6ab8827279cfffb92266",
      "to": "0x40af4fb3c5a7299977f7dd5a442435bd6a520fbc",
      "contractAddress": null,
      "root": "0x0000000000000000000000000000000000000000000000000000000000000000"
    },
    {
      "status": "0x1",
      "cumulativeGasUsed": "0x4b5d8",
      "logs": [
        {
          "address": "0x40af4fb3c5a7299977f7dd5a442435bd6a520fbc",
          "topics": [
            "0xbe533f538959a17d76f1b09e966e741ee3b1183099682f96216c93d21feaecba"
          ],
          "data": "0xcb37be9e00000000000000000000000000000000000000000000000000000000",
          "blockHash": "0x1bedb7de98cc3dae8534b950fe7d60276d4df0c1f520033c3ae41be76883d191",
          "blockNumber": "0x5d3969",
          "blockTimestamp": "0x666cdde9",
          "transactionHash": "0x61796bfc529fba5a714cab36ee95fc5c02f31c9e5decdfd524027e77ec83c739",
          "transactionIndex": "0x3",
          "logIndex": "0x6",
          "removed": false
        },
        {
          "address": "0x40af4fb3c5a7299977f7dd5a442435bd6a520fbc",
          "topics": [
            "0xda3c8142b3c1d27633026f55bfcb4eeb0b5b8db0daa0a3e10c2213a441722ad1"
          ],
          "data": "0xcb37be9e00000000000000000000000000000000000000000000000000000000000000000000000000000000a1a66287e75c8862ceea03c71a1fd9d5b2445f64",
          "blockHash": "0x1bedb7de98cc3dae8534b950fe7d60276d4df0c1f520033c3ae41be76883d191",
          "blockNumber": "0x5d3969",
          "blockTimestamp": "0x666cdde9",
          "transactionHash": "0x61796bfc529fba5a714cab36ee95fc5c02f31c9e5decdfd524027e77ec83c739",
          "transactionIndex": "0x3",
          "logIndex": "0x7",
          "removed": false
        }
      ],
      "logsBloom": "0x00000000000000002000000000000000000000000000000000000000000000080000000000000000000000000000000000000000000000000000000000000000000000000000000000000020000000000000000000000000000000000000000000000000000000000000200000004000000000000000000010000000000000000000000000000000000000000000100000000000000000000000000000000000000000000000000000004000080000000000000000000000000000000000000000000000000000000000000000000000000000000000000000000000000000000000000000000000000000000000000000000000000000000000000000000000",
      "type": "0x0",
      "transactionHash": "0x61796bfc529fba5a714cab36ee95fc5c02f31c9e5decdfd524027e77ec83c739",
      "transactionIndex": "0x3",
      "blockHash": "0x1bedb7de98cc3dae8534b950fe7d60276d4df0c1f520033c3ae41be76883d191",
      "blockNumber": "0x5d3969",
      "gasUsed": "0x13109",
      "effectiveGasPrice": "0x3b9aca0c",
      "blobGasPrice": "0xde7b1c5a8",
      "from": "0xf39fd6e51aad88f6f4ce6ab8827279cfffb92266",
      "to": "0x40af4fb3c5a7299977f7dd5a442435bd6a520fbc",
      "contractAddress": null,
      "root": "0x0000000000000000000000000000000000000000000000000000000000000000"
    },
    {
      "status": "0x1",
      "cumulativeGasUsed": "0x5e943",
      "logs": [
        {
          "address": "0x40af4fb3c5a7299977f7dd5a442435bd6a520fbc",
          "topics": [
            "0xbe533f538959a17d76f1b09e966e741ee3b1183099682f96216c93d21feaecba"
          ],
          "data": "0xc1e582ba00000000000000000000000000000000000000000000000000000000",
          "blockHash": "0x1bedb7de98cc3dae8534b950fe7d60276d4df0c1f520033c3ae41be76883d191",
          "blockNumber": "0x5d3969",
          "blockTimestamp": "0x666cdde9",
          "transactionHash": "0x6dce55193d53a4236065b51482fd0d1008bbcf29f768132f24a2e338a05e73de",
          "transactionIndex": "0x4",
          "logIndex": "0x8",
          "removed": false
        },
        {
          "address": "0x40af4fb3c5a7299977f7dd5a442435bd6a520fbc",
          "topics": [
            "0xda3c8142b3c1d27633026f55bfcb4eeb0b5b8db0daa0a3e10c2213a441722ad1"
          ],
          "data": "0xc1e582ba00000000000000000000000000000000000000000000000000000000000000000000000000000000a1a66287e75c8862ceea03c71a1fd9d5b2445f64",
          "blockHash": "0x1bedb7de98cc3dae8534b950fe7d60276d4df0c1f520033c3ae41be76883d191",
          "blockNumber": "0x5d3969",
          "blockTimestamp": "0x666cdde9",
          "transactionHash": "0x6dce55193d53a4236065b51482fd0d1008bbcf29f768132f24a2e338a05e73de",
          "transactionIndex": "0x4",
          "logIndex": "0x9",
          "removed": false
        }
      ],
      "logsBloom": "0x00000000000000002000000000000000000000000000000000000000000000080000000000000000000000000000000000000000000000000000000000000000000000000000000000000020000000000000000000000000000000000000000000000000000000000000200000004000000000000000000010000000000000000000000000000000000000000000100000000000000000000000000000000000000000000000000000004000080000000000000000000000000000000000000000000000000000000000000000000000000000000000000000000000000000000000000000000000000000000000000000000000000000000000000000000000",
      "type": "0x0",
      "transactionHash": "0x6dce55193d53a4236065b51482fd0d1008bbcf29f768132f24a2e338a05e73de",
      "transactionIndex": "0x4",
      "blockHash": "0x1bedb7de98cc3dae8534b950fe7d60276d4df0c1f520033c3ae41be76883d191",
      "blockNumber": "0x5d3969",
      "gasUsed": "0x1336b",
      "effectiveGasPrice": "0x3b9aca0c",
      "blobGasPrice": "0xde7b1c5a8",
      "from": "0xf39fd6e51aad88f6f4ce6ab8827279cfffb92266",
      "to": "0x40af4fb3c5a7299977f7dd5a442435bd6a520fbc",
      "contractAddress": null,
      "root": "0x0000000000000000000000000000000000000000000000000000000000000000"
    },
    {
      "status": "0x1",
      "cumulativeGasUsed": "0x71f10",
      "logs": [
        {
          "address": "0x40af4fb3c5a7299977f7dd5a442435bd6a520fbc",
          "topics": [
            "0xbe533f538959a17d76f1b09e966e741ee3b1183099682f96216c93d21feaecba"
          ],
          "data": "0x2a2c16a000000000000000000000000000000000000000000000000000000000",
          "blockHash": "0x1bedb7de98cc3dae8534b950fe7d60276d4df0c1f520033c3ae41be76883d191",
          "blockNumber": "0x5d3969",
          "blockTimestamp": "0x666cdde9",
          "transactionHash": "0x150251c819cc5d875992852d4fe2ab6f15da61a623a70f8551a97f6a2714180f",
          "transactionIndex": "0x5",
          "logIndex": "0xa",
          "removed": false
        },
        {
          "address": "0x40af4fb3c5a7299977f7dd5a442435bd6a520fbc",
          "topics": [
            "0xda3c8142b3c1d27633026f55bfcb4eeb0b5b8db0daa0a3e10c2213a441722ad1"
          ],
          "data": "0x2a2c16a000000000000000000000000000000000000000000000000000000000000000000000000000000000a1a66287e75c8862ceea03c71a1fd9d5b2445f64",
          "blockHash": "0x1bedb7de98cc3dae8534b950fe7d60276d4df0c1f520033c3ae41be76883d191",
          "blockNumber": "0x5d3969",
          "blockTimestamp": "0x666cdde9",
          "transactionHash": "0x150251c819cc5d875992852d4fe2ab6f15da61a623a70f8551a97f6a2714180f",
          "transactionIndex": "0x5",
          "logIndex": "0xb",
          "removed": false
        }
      ],
      "logsBloom": "0x00000000000000002000000000000000000000000000000000000000000000080000000000000000000000000000000000000000000000000000000000000000000000000000000000000020000000000000000000000000000000000000000000000000000000000000200000004000000000000000000010000000000000000000000000000000000000000000100000000000000000000000000000000000000000000000000000004000080000000000000000000000000000000000000000000000000000000000000000000000000000000000000000000000000000000000000000000000000000000000000000000000000000000000000000000000",
      "type": "0x0",
      "transactionHash": "0x150251c819cc5d875992852d4fe2ab6f15da61a623a70f8551a97f6a2714180f",
      "transactionIndex": "0x5",
      "blockHash": "0x1bedb7de98cc3dae8534b950fe7d60276d4df0c1f520033c3ae41be76883d191",
      "blockNumber": "0x5d3969",
      "gasUsed": "0x135cd",
      "effectiveGasPrice": "0x3b9aca0c",
      "blobGasPrice": "0xde7b1c5a8",
      "from": "0xf39fd6e51aad88f6f4ce6ab8827279cfffb92266",
      "to": "0x40af4fb3c5a7299977f7dd5a442435bd6a520fbc",
      "contractAddress": null,
      "root": "0x0000000000000000000000000000000000000000000000000000000000000000"
    },
    {
      "status": "0x1",
      "cumulativeGasUsed": "0x1382f",
      "logs": [
        {
          "address": "0x40af4fb3c5a7299977f7dd5a442435bd6a520fbc",
          "topics": [
            "0xbe533f538959a17d76f1b09e966e741ee3b1183099682f96216c93d21feaecba"
          ],
          "data": "0xde3d9fb700000000000000000000000000000000000000000000000000000000",
          "blockHash": "0x47e395d869c42c6db21f70b1973ec8617f57f5d2e68dbe854f34842435969fcd",
          "blockNumber": "0x5d396a",
          "blockTimestamp": "0x666cddea",
          "transactionHash": "0xe51c02af83889926462b999181cc0ae31f84f654214a86ab3834ea29c445680e",
          "transactionIndex": "0x0",
          "logIndex": "0x0",
          "removed": false
        },
        {
          "address": "0x40af4fb3c5a7299977f7dd5a442435bd6a520fbc",
          "topics": [
            "0xda3c8142b3c1d27633026f55bfcb4eeb0b5b8db0daa0a3e10c2213a441722ad1"
          ],
          "data": "0xde3d9fb700000000000000000000000000000000000000000000000000000000000000000000000000000000a1a66287e75c8862ceea03c71a1fd9d5b2445f64",
          "blockHash": "0x47e395d869c42c6db21f70b1973ec8617f57f5d2e68dbe854f34842435969fcd",
          "blockNumber": "0x5d396a",
          "blockTimestamp": "0x666cddea",
          "transactionHash": "0xe51c02af83889926462b999181cc0ae31f84f654214a86ab3834ea29c445680e",
          "transactionIndex": "0x0",
          "logIndex": "0x1",
          "removed": false
        }
      ],
      "logsBloom": "0x00000000000000002000000000000000000000000000000000000000000000080000000000000000000000000000000000000000000000000000000000000000000000000000000000000020000000000000000000000000000000000000000000000000000000000000200000004000000000000000000010000000000000000000000000000000000000000000100000000000000000000000000000000000000000000000000000004000080000000000000000000000000000000000000000000000000000000000000000000000000000000000000000000000000000000000000000000000000000000000000000000000000000000000000000000000",
      "type": "0x0",
      "transactionHash": "0xe51c02af83889926462b999181cc0ae31f84f654214a86ab3834ea29c445680e",
      "transactionIndex": "0x0",
      "blockHash": "0x47e395d869c42c6db21f70b1973ec8617f57f5d2e68dbe854f34842435969fcd",
      "blockNumber": "0x5d396a",
      "gasUsed": "0x1382f",
      "effectiveGasPrice": "0x3b9aca0c",
      "blobGasPrice": "0xc5c2c3b19",
      "from": "0xf39fd6e51aad88f6f4ce6ab8827279cfffb92266",
      "to": "0x40af4fb3c5a7299977f7dd5a442435bd6a520fbc",
      "contractAddress": null,
      "root": "0x0000000000000000000000000000000000000000000000000000000000000000"
    },
    {
      "status": "0x1",
      "cumulativeGasUsed": "0x184fb",
      "logs": [
        {
          "address": "0x40af4fb3c5a7299977f7dd5a442435bd6a520fbc",
          "topics": [
            "0xbe533f538959a17d76f1b09e966e741ee3b1183099682f96216c93d21feaecba"
          ],
          "data": "0x9a5ea6a000000000000000000000000000000000000000000000000000000000",
          "blockHash": "0x1e254e62c59452c0d26b9652226421618411fac60262b49754fa65527bfce420",
          "blockNumber": "0x5d396b",
          "blockTimestamp": "0x666cddeb",
          "transactionHash": "0xa851c95d23673d228f62cfe756104a06c6fce1e2034cb5aafb82f1fd24130f4e",
          "transactionIndex": "0x0",
          "logIndex": "0x0",
          "removed": false
        },
        {
          "address": "0x40af4fb3c5a7299977f7dd5a442435bd6a520fbc",
          "topics": [
            "0xda3c8142b3c1d27633026f55bfcb4eeb0b5b8db0daa0a3e10c2213a441722ad1"
          ],
          "data": "0x9a5ea6a000000000000000000000000000000000000000000000000000000000000000000000000000000000a1a66287e75c8862ceea03c71a1fd9d5b2445f64",
          "blockHash": "0x1e254e62c59452c0d26b9652226421618411fac60262b49754fa65527bfce420",
          "blockNumber": "0x5d396b",
          "blockTimestamp": "0x666cddeb",
          "transactionHash": "0xa851c95d23673d228f62cfe756104a06c6fce1e2034cb5aafb82f1fd24130f4e",
          "transactionIndex": "0x0",
          "logIndex": "0x1",
          "removed": false
        }
      ],
      "logsBloom": "0x00000000000000002000000000000000000000000000000000000000000000080000000000000000000000000000000000000000000000000000000000000000000000000000000000000020000000000000000000000000000000000000000000000000000000000000200000004000000000000000000010000000000000000000000000000000000000000000100000000000000000000000000000000000000000000000000000004000080000000000000000000000000000000000000000000000000000000000000000000000000000000000000000000000000000000000000000000000000000000000000000000000000000000000000000000000",
      "type": "0x0",
      "transactionHash": "0xa851c95d23673d228f62cfe756104a06c6fce1e2034cb5aafb82f1fd24130f4e",
      "transactionIndex": "0x0",
      "blockHash": "0x1e254e62c59452c0d26b9652226421618411fac60262b49754fa65527bfce420",
      "blockNumber": "0x5d396b",
      "gasUsed": "0x184fb",
      "effectiveGasPrice": "0x3b9aca0c",
      "blobGasPrice": "0xafc9915b7",
      "from": "0xf39fd6e51aad88f6f4ce6ab8827279cfffb92266",
      "to": "0x40af4fb3c5a7299977f7dd5a442435bd6a520fbc",
      "contractAddress": null,
      "root": "0x0000000000000000000000000000000000000000000000000000000000000000"
    },
    {
      "status": "0x1",
      "cumulativeGasUsed": "0x2c98c",
      "logs": [
        {
          "address": "0x40af4fb3c5a7299977f7dd5a442435bd6a520fbc",
          "topics": [
            "0xbe533f538959a17d76f1b09e966e741ee3b1183099682f96216c93d21feaecba"
          ],
          "data": "0x25be10bd00000000000000000000000000000000000000000000000000000000",
          "blockHash": "0x1e254e62c59452c0d26b9652226421618411fac60262b49754fa65527bfce420",
          "blockNumber": "0x5d396b",
          "blockTimestamp": "0x666cddeb",
          "transactionHash": "0xeff364f2f5733de516d772fc05728f3bf500b479395e79216854a9765f5dcee2",
          "transactionIndex": "0x1",
          "logIndex": "0x2",
          "removed": false
        },
        {
          "address": "0x40af4fb3c5a7299977f7dd5a442435bd6a520fbc",
          "topics": [
            "0xda3c8142b3c1d27633026f55bfcb4eeb0b5b8db0daa0a3e10c2213a441722ad1"
          ],
          "data": "0x25be10bd00000000000000000000000000000000000000000000000000000000000000000000000000000000a1a66287e75c8862ceea03c71a1fd9d5b2445f64",
          "blockHash": "0x1e254e62c59452c0d26b9652226421618411fac60262b49754fa65527bfce420",
          "blockNumber": "0x5d396b",
          "blockTimestamp": "0x666cddeb",
          "transactionHash": "0xeff364f2f5733de516d772fc05728f3bf500b479395e79216854a9765f5dcee2",
          "transactionIndex": "0x1",
          "logIndex": "0x3",
          "removed": false
        }
      ],
      "logsBloom": "0x00000000000000002000000000000000000000000000000000000000000000080000000000000000000000000000000000000000000000000000000000000000000000000000000000000020000000000000000000000000000000000000000000000000000000000000200000004000000000000000000010000000000000000000000000000000000000000000100000000000000000000000000000000000000000000000000000004000080000000000000000000000000000000000000000000000000000000000000000000000000000000000000000000000000000000000000000000000000000000000000000000000000000000000000000000000",
      "type": "0x0",
      "transactionHash": "0xeff364f2f5733de516d772fc05728f3bf500b479395e79216854a9765f5dcee2",
      "transactionIndex": "0x1",
      "blockHash": "0x1e254e62c59452c0d26b9652226421618411fac60262b49754fa65527bfce420",
      "blockNumber": "0x5d396b",
      "gasUsed": "0x14491",
      "effectiveGasPrice": "0x3b9aca0c",
      "blobGasPrice": "0xafc9915b7",
      "from": "0xf39fd6e51aad88f6f4ce6ab8827279cfffb92266",
      "to": "0x40af4fb3c5a7299977f7dd5a442435bd6a520fbc",
      "contractAddress": null,
      "root": "0x0000000000000000000000000000000000000000000000000000000000000000"
    },
    {
      "status": "0x1",
      "cumulativeGasUsed": "0x381fd",
      "logs": [
        {
          "address": "0x40af4fb3c5a7299977f7dd5a442435bd6a520fbc",
          "topics": [
            "0x159f10d3da077d18f228d52be447d552e7d1892d10f7af8f615658160e374729"
          ],
          "data": "0x000000000000000000000000bff93e345a83d66ac6fcaaa9a7869172a443efa2",
          "blockHash": "0x1e254e62c59452c0d26b9652226421618411fac60262b49754fa65527bfce420",
          "blockNumber": "0x5d396b",
          "blockTimestamp": "0x666cddeb",
          "transactionHash": "0xb4f035fc72787434192c11341affeaad5f405100af5de461e414e68ce9d4e8b7",
          "transactionIndex": "0x2",
          "logIndex": "0x4",
          "removed": false
        }
      ],
      "logsBloom": "0x00000000000000082000000000000000000000000000000000000000000000000000000000000000000000000200000000000000000000000000000000000000000000000000000000000020000000000000000000000000000000000000000000000000000000000000000000004000000000000000000000000000000000000000000000000000000000000000000000000000000000000000000000000000000000000000000000000000000000000000000000000000000000000000000000000000000000000000000000000000000000000000000000000000000000000000000000000000000000000010000000000000000000000000000000000000",
      "type": "0x0",
      "transactionHash": "0xb4f035fc72787434192c11341affeaad5f405100af5de461e414e68ce9d4e8b7",
      "transactionIndex": "0x2",
      "blockHash": "0x1e254e62c59452c0d26b9652226421618411fac60262b49754fa65527bfce420",
      "blockNumber": "0x5d396b",
      "gasUsed": "0xb871",
      "effectiveGasPrice": "0x3b9aca0c",
      "blobGasPrice": "0xafc9915b7",
      "from": "0xf39fd6e51aad88f6f4ce6ab8827279cfffb92266",
      "to": "0x40af4fb3c5a7299977f7dd5a442435bd6a520fbc",
      "contractAddress": null,
      "root": "0x0000000000000000000000000000000000000000000000000000000000000000"
    },
    {
      "status": "0x1",
      "cumulativeGasUsed": "0x67b2b",
      "logs": [
        {
          "address": "0xc77427793e32517830568969539d03e6290ccd22",
          "topics": [
            "0xa657f2ad315cf3bb35cf1964158da75c3f334481df05a4a1644b2376b17a59b2"
          ],
          "data": "0x00000000000000000000000040af4fb3c5a7299977f7dd5a442435bd6a520fbc",
          "blockHash": "0x1e254e62c59452c0d26b9652226421618411fac60262b49754fa65527bfce420",
          "blockNumber": "0x5d396b",
          "blockTimestamp": "0x666cddeb",
          "transactionHash": "0x3ddce2aec521c10260acf4fc344066d2e7b846c57dee406d12aab1881b6ff7f9",
          "transactionIndex": "0x3",
          "logIndex": "0x5",
          "removed": false
        }
      ],
      "logsBloom": "0x00000800008000000000000000000000000000000000000000000000000000000000000000000000000000000000000000000000000000000000001000000000000000000000000000000000000000000000000000000000000000000000000000001000000000000000000000000000000040000000000000000000000000000000000000000000000000000000000000000000000000000000000000000000000000000000000000000000000000000000000000000000000000000000000000000000000000000000000000000000000000000000000000000000000000000000000000000000000000000000000000000000000008000000000000000000",
      "type": "0x0",
      "transactionHash": "0x3ddce2aec521c10260acf4fc344066d2e7b846c57dee406d12aab1881b6ff7f9",
      "transactionIndex": "0x3",
      "blockHash": "0x1e254e62c59452c0d26b9652226421618411fac60262b49754fa65527bfce420",
      "blockNumber": "0x5d396b",
      "gasUsed": "0x2f92e",
      "effectiveGasPrice": "0x3b9aca0c",
      "blobGasPrice": "0xafc9915b7",
      "from": "0xf39fd6e51aad88f6f4ce6ab8827279cfffb92266",
      "to": null,
      "contractAddress": "0xc77427793e32517830568969539d03e6290ccd22",
      "root": "0x0000000000000000000000000000000000000000000000000000000000000000"
    }
  ],
  "libraries": [],
  "pending": [],
  "returns": {},
  "timestamp": 1718410730,
  "chain": 11155111,
  "commit": "732f7b6"
}